:020000040800F2
:1000000000C000202D290008310E0008330E000822
:10001000350E0008370E0008390E000800000000F9
:100020000000000000000000000000003B0E00087F
:100030003D0E0008000000003F0E0008410E0008C1
:100040007529000875290008752900087529000818
:100050007529000875290008752900087529000808
:1000600075290008752900087529000875290008F8
:1000700075290008752900087529000875290008E8
:1000800075290008752900087529000875290008D8
:1000900075290008752900087529000875290008C8
:1000A00075290008752900087529000875290008B8
:1000B000490E0008752900087529000875290008EF
:1000C0007529000875290008752900087529000898
:1000D0007529000875290008752900087529000888
:1000E0007529000875290008752900087529000878
:1000F0007529000875290008752900087529000868
:100100007529000875290008752900087529000857
:100110007529000875290008752900087529000847
:100120007529000875290008752900087529000837
:1001300000000000000000000000000000000000BF
:1001400000000000000000000000000000000000AF
:10015000000000000000000000000000000000009F
:10016000000000000000000000000000000000008F
:10017000000000000000000000000000000000007F
:10018000000000000000000000000000000000006F
:10019000000000000000000000000000000000005F
:1001A000000000000000000000000000000000004F
:1001B000000000000000000000000000000000003F
:1001C000000000000000000000000000000000002F
:1001D000000000000000000000000000000000001F
:0401E0005FF8E0F1F3
:1001E80010B5054C237833B9044B13B10448AFF369
:1001F80000800123237010BD40040020000000008F
:10020800442B000808B5034B1BB103490348AFF35F
:10021800008008BD0000000044040020442B0008B2
:1002280081F0004102E000BF83F0004330B54FEA9F
:1002380041044FEA430594EA050F08BF90EA020F0C
:100248001FBF54EA000C55EA020C7FEA645C7FEA9F
:10025800655C00F0E2804FEA5454D4EB5555B8BFC2
:100268006D420CDD2C4480EA020281EA030382EA33
:10027800000083EA010180EA020281EA0303362DC5
:1002880088BF30BD11F0004F4FEA01314FF4801C98
:100298004CEA113102D0404261EB410113F0004FAA
:1002A8004FEA03334CEA133302D0524263EB430361
:1002B80094EA050F00F0A780A4F10104D5F1200EFF
:1002C8000DDB02FA0EFC22FA05F2801841F100015A
:1002D80003FA0EF2801843FA05F359410EE0A5F12E
:1002E80020050EF1200E012A03FA0EFC28BF4CF05F
:1002F800020C43FA05F3C01851EBE37101F0004515
:1003080007D54FF0000EDCF1000C7EEB00006EEB21
:100318000101B1F5801F1BD3B1F5001F0CD34908AB
:100328005FEA30004FEA3C0C04F101044FEA445202
:1003380012F5800F80F09A80BCF1004F08BF5FEA89
:10034800500C50F1000041EB045141EA050130BD69
:100358005FEA4C0C404141EB0101013C28BFB1F57B
:10036800801FE9D291F0000F04BF01460020B1FAC6
:1003780081F308BF2033A3F10B03B3F120020CDA99
:100388000C3208DD02F1140CC2F10C0201FA0CF077
:1003980021FA02F10CE002F11402D8BFC2F1200CDC
:1003A80001FA02F120FA0CFCDCBF41EA0C01904092
:1003B800E41AA2BF01EB0451294330BD6FEA0404DB
:1003C8001F3C1CDA0C340EDC04F11404C4F12002C6
:1003D80020FA04F001FA02F340EA030021FA04F3D8
:1003E80045EA030130BDC4F10C04C4F1200220FA2F
:1003F80002F001FA04F340EA0300294630BD21FA6D
:1004080004F0294630BD94F0000F83F4801306BF32
:1004180081F480110134013D4EE77FEA645C18BF26
:100428007FEA655C29D094EA050F08BF90EA020FBD
:1004380005D054EA000C04BF1946104630BD91EAB5
:10044800030F1EBF0021002030BD5FEA545C05D1B8
:100458004000494128BF41F0004130BD14F58004F7
:100468003CBF01F5801130BD01F0004545F0FE416B
:1004780041F470014FF0000030BD7FEA645C1ABFA0
:10048800194610467FEA655C1CBF0B46024650EAD7
:10049800013406BF52EA033591EA030F41F4002103
:1004A80030BD00BF90F0000F04BF0021704730B589
:1004B8004FF4806404F132044FF000054FF000015E
:1004C80050E700BF90F0000F04BF0021704730B51F
:1004D8004FF4806404F1320410F0004548BF4042F4
:1004E8004FF000013EE700BF42004FEAE2014FEA49
:1004F80031014FEA02701FBF12F07F4393F07F4F24
:1005080081F06051704732F07F4208BF704793F026
:100518007F4F04BF41F40021704730B54FF4607439
:1005280001F0004521F000411CE700BF50EA01023C
:1005380008BF704730B54FF000050AE050EA0102E5
:1005480008BF704730B511F0004502D5404261EB55
:1005580041014FF4806404F132045FEA915C3FF496
:10056800D8AE4FF003025FEADC0C18BF03325FEA33
:10057800DC0C18BF033202EBDC02C2F1200300FAE4
:1005880003FC20FA02F001FA03FE40EA0E0021FA09
:1005980002F11444BDE600BF70B54FF0FF0C4CF4F7
:1005A800E06C1CEA11541DBF1CEA135594EA0C0FA9
:1005B80095EA0C0F00F0DEF82C4481EA030621EAE4
:1005C8004C5123EA4C5350EA013518BF52EA03351F
:1005D80041F4801143F4801338D0A0FB02CE4FF0D1
:1005E8000005E1FB02E506F00042E0FB03E54FF001
:1005F8000006E1FB03569CF0000F18BF4EF0010EF9
:10060800A4F1FF04B6F5007F64F5407404D25FEAF4
:100618004E0E6D4146EB060642EAC62141EA5551A7
:100628004FEAC52040EA5E504FEACE2EB4F1FD0CE9
:1006380088BFBCF5E06F1ED8BEF1004F08BF5FEA67
:10064800500E50F1000041EB045170BD06F0004619
:1006580046EA010140EA020081EA0301B4EB5C04C6
:10066800C2BFD4EB0C0541EA045170BD41F48011BE
:100678004FF0000E013C00F3AB8014F1360FDEBFE3
:10068800002001F0004170BDC4F10004203C35DABF
:100698000C341BDC04F11404C4F1200500FA05F342
:1006A80020FA04F001FA05F240EA020001F00042E3
:1006B80021F0004110EBD37021FA04F642EB060159
:1006C8005EEA430E08BF20EAD37070BDC4F10C0483
:1006D800C4F1200500FA04F320FA05F001FA04F247
:1006E80040EA020001F0004110EBD37041F1000133
:1006F8005EEA430E08BF20EAD37070BDC4F120053E
:1007080000FA05F24EEA020E20FA04F301FA05F2A5
:1007180043EA020321FA04F001F0004121FA04F24D
:1007280020EA020000EBD3705EEA430E08BF20EA1D
:10073800D37070BD94F0000F0FD101F00046400057
:1007480041EB010111F4801F08BF013CF7D041EAD9
:10075800060195F0000F18BF704703F000465200DD
:1007680043EB030313F4801F08BF013DF7D043EAAE
:100778000603704794EA0C0F0CEA135518BF95EA64
:100788000C0F0CD050EA410618BF52EA4306D1D1EB
:1007980081EA030101F000414FF0000070BD50EA0A
:1007A800410606BF1046194652EA430619D094EA94
:1007B8000C0F02D150EA013613D195EA0C0F05D17E
:1007C80052EA03361CBF104619460AD181EA0301D2
:1007D80001F0004141F0FE4141F470014FF000008A
:1007E80070BD41F0FE4141F4780170BD70B54FF025
:1007F800FF0C4CF4E06C1CEA11541DBF1CEA1355A5
:1008080094EA0C0F95EA0C0F00F0A7F8A4EB050486
:1008180081EA030E52EA03354FEA013100F088807D
:100828004FEA03334FF0805545EA131343EA126346
:100838004FEA022245EA111545EA10654FEA0026FB
:100848000EF000419D4208BF964244F1FD0404F5B4
:10085800407402D25B084FEA3202B61A65EB030510
:100868005B084FEA32024FF480104FF4002CB6EBCD
:10087800020E75EB030E22BFB61A754640EA0C004D
:100888005B084FEA3202B6EB020E75EB030E22BF8D
:10089800B61A754640EA5C005B084FEA3202B6EBCE
:1008A800020E75EB030E22BFB61A754640EA9C008D
:1008B8005B084FEA3202B6EB020E75EB030E22BF5D
:1008C800B61A754640EADC0055EA060E18D04FEA1B
:1008D800051545EA16754FEA06164FEAC30343EABB
:1008E80052734FEAC2025FEA1C1CC0D111F4801F88
:1008F8000BD141EA00014FF000004FF0004CB6E781
:1009080011F4801F04BF01430020B4F1FD0C88BF1F
:10091800BCF5E06F3FF6AFAEB5EB030C04BFB6EB2A
:10092800020C5FEA500C50F1000041EB045170BD1D
:100938000EF0004E4EEA113114EB5C04C2BFD4EB4A
:100948000C0541EA045170BD41F480114FF0000ECE
:10095800013C90E645EA060E8DE60CEA135594EA4A
:100968000C0F08BF95EA0C0F3FF43BAF94EA0C0F4D
:100978000AD150EA01347FF434AF95EA0C0F7FF4C2
:1009880025AF104619462CE795EA0C0F06D152EA16
:1009980003353FF4FDAE1046194622E750EA4106FA
:1009A80018BF52EA43067FF4C5AE50EA41047FF40B
:1009B8000DAF52EA43057FF4EBAE12E74FF0FF3C70
:1009C80006E000BF4FF0010C02E000BF4FF0010C41
:1009D8004DF804CD4FEA410C7FEA6C5C4FEA430CBA
:1009E80018BF7FEA6C5C1BD001B050EA410C0CBF09
:1009F80052EA430C91EA030F02BF90EA020F00206B
:100A0800704710F1000F91EA030F58BF994208BFD1
:100A180090422CBFD8176FEAE37040F0010070478E
:100A28004FEA410C7FEA6C5C02D150EA013C07D1E5
:100A38004FEA430C7FEA6C5CD6D152EA033CD3D030
:100A48005DF8040B704700BF8446104662468C462A
:100A58001946634600E000BF01B5FFF7B7FF00285D
:100A680048BF10F1000F01BD4DF808EDFFF7F4FF86
:100A78000CBF012000205DF808FB00BF4DF808ED11
:100A8800FFF7EAFF34BF012000205DF808FB00BF34
:100A98004DF808EDFFF7E0FF94BF012000205DF856
:100AA80008FB00BF4DF808EDFFF7CEFF94BF01200B
:100AB80000205DF808FB00BF4DF808EDFFF7C4FF04
:100AC80034BF012000205DF808FB00BF4FEA410257
:100AD80012F5001215D211D56FF47873B3EB625288
:100AE80012D94FEAC12343F0004343EA505311F0AF
:100AF800004F23FA02F018BF404270474FF0000041
:100B0800704750EA013005D111F0004008BF6FF07E
:100B1800004070474FF00000704700BF2DE9F047D4
:100B280004460D461046194622462B46FFF77CFB25
:100B380004460D4600222B4BFFF72EFDDFF8A88058
:100B4800D8E90023FFF772FB06460F46C8E900679D
:100B5800DFF898A0DAE9002320462946FFF764FB6E
:100B68000022204BFFF742FE80468946CAE900452D
:100B78000022002320462946FFF70EFD04460D46B5
:100B88000022002330463946FFF706FD02460B4691
:100B980020462946FFF74AFB04460D46002200235B
:100BA80040464946FFF7F8FC02460B4620462946D0
:100BB800FFF73CFB04460D4600220023FFF75EFFCB
:100BC80048B900220A4B20462946FFF775FF20B195
:100BD8000024074D01E00024002520462946BDE8F1
:100BE800F08700BF0000344060040020700400203B
:100BF800000089400000000008B50368B3F1804F89
:100C080000D008BD184B1B68586A00225A62FFF7CB
:100C180059FC0022154BFFF7BFFC0FA3D3E90023B3
:100C2800FFF7BAFC0EA3D3E90023FFF7B5FC0022B7
:100C38000F4BFFF7DBFD0F4BD3E90023FFF76EFFE8
:100C4800FFF744FF0C4B1B68586301224FF4805197
:100C58000A4801F0AFFAD4E71F85EB51B81E0940E6
:100C6800CDCCCCCCCCCCE43F0C05002000003440EB
:100C780000408F40680400207C04002000100140E0
:100C880072B6FEE700B591B02822002106A801F04F
:100C980093FE002301930293039304930593012287
:100CA80006924FF4803307930A9202220D920E9314
:100CB8004FF4E0130F9306A800F040FE80B90F230D
:100CC800019302210291002303934FF4806204925E
:100CD800059301A801F072F820B911B05DF804FB82
:100CE800FFF7CEFFFFF7CCFF08B500F0EDFDFFF7EB
:100CF800C9FF00F03FF801F0B7FC01F0CFFA01F0AE
:100D080003FB01F033FB01F063FB01F093FB01F0FF
:100D18003BFD124800F080F9114C0021204600F0FC
:100D280063FC0421204600F05FFC0821204600F007
:100D38005BFC0C21204600F057FC3C21094800F0E0
:100D4800CDFC3C21084800F0C9FC3C21074800F0D4
:100D5800C5FC3C21064800F0C1FCFEE7C4040020A5
:100D68007C0400200C050020540500209C05002070
:100D7800E40500202DE9F04188B00024049405948E
:100D880006940794254B9A6942F020029A619A6961
:100D980002F020020092009A9A6942F004029A61D5
:100DA8009A6902F004020192019A9A6942F01002CB
:100DB8009A619A6902F010020292029A9A6942F0C4
:100DC80008029A619B6903F008030393039BDFF809
:100DD800508022464FF4C051404601F0EBF9114DC6
:100DE80022460421284601F0E5F94FF4C053049344
:100DF8000127059706940226079604A9404601F0A4
:100E0800B9F80423049305970694079604A928467D
:100E180001F0B0F808B0BDE8F08100BF0010024052
:100E28000010014000140140FEE7FEE7FEE7FEE780
:100E3800FEE770477047704708B500F057FD08BDDA
:100E480008B5024800F029F908BD00BFC404002015
:100E580082B00E4B9A6942F001029A619A6902F0D7
:100E680001020092009ADA6942F08052DA61DB6985
:100E780003F080530193019B054A536823F0E06314
:100E880043F00073536002B0704700BF0010024087
:100E98000000014030B4036A23F001030362036ACF
:100EA8004268846924F073040D682C4323F0020C13
:100EB8008B6843EA0C03104DA84203D005F5006582
:100EC800A84205D123F00803CD682B4323F004037F
:100ED800094DA84203D005F50065A84205D122F4C2
:100EE80040724D692A438D692A43426084614A6889
:100EF8004263036230BC7047002C014030B4036A7F
:100F080023F480730362036A4268C46924F0730C93
:100F18000C6844EA0C0523F400738C6843EA042344
:100F2800114CA04203D004F50064A04206D123F47A
:100F38000063CC6843EA042323F480630A4CA0428C
:100F480003D004F50064A04207D122F440524C6952
:100F580042EA04128C6942EA04124260C5614A6896
:100F6800C263036230BC7047002C014030B4036A8E
:100F780023F480530362036A4468C26922F4E64298
:100F88000D6842EA052223F400538D6843EA0533CD
:100F9800094DA84203D005F50065A84204D124F400
:100FA80080444D6944EA85144460C2614A68026419
:100FB800036230BC704700BF002C014010B4036AC4
:100FC800046A24F001040462846924F0F00C4CEAF9
:100FD800021223F00A030B438261036210BC7047BC
:100FE80010B4046A24F0100404628469036A24F4C7
:100FF800704C4CEA023223F0A00343EA01138261E9
:10100800036210BC7047836823F070030B4343F0FE
:10101800070383607047000090F83D30DBB2012B76
:101028002FD1022380F83D300268D36843F00103D2
:10103800D3600368154A934218D002F500629342C0
:1010480014D0B3F1804F11D0A2F5983293420DD04D
:1010580002F58062934209D002F58062934205D07E
:101068001A6842F001021A60002070479A6802F07C
:101078000702062A07D01A6842F001021A60002007
:101088007047012070470020704700BF002C0140C6
:101098007047704770477047704710B5044603683B
:1010A8001A6912F0020F11D0DA6812F0020F0DD08F
:1010B8006FF002021A610123037703689B6913F03A
:1010C800030F70D0FFF7E6FF0023237723681A6920
:1010D80012F0040F12D0DA6812F0040F0ED06FF07D
:1010E80004021A610223237723689B6913F4407F63
:1010F8005FD02046FFF7CEFF0023237723681A69C5
:1011080012F0080F12D0DA6812F0080F0ED06FF044
:1011180008021A61042323772368DB6913F0030F9D
:101128004ED02046FFF7B6FF0023237723681A69BD
:1011380012F0100F12D0DA6812F0100F0ED06FF004
:1011480010021A61082323772368DB6913F4407FB0
:101158003DD02046FFF79EFF0023237723681A69B6
:1011680012F0010F03D0DA6812F0010F36D12368AC
:101178001A6912F0800F03D0DA6812F0800F34D1A8
:1011880023681A6912F0400F03D0DA6812F0400F92
:1011980032D123681A6912F0200F03D0DA6812F0EE
:1011A800200F30D110BDFFF774FF2046FFF773FF03
:1011B8008AE72046FFF76DFF2046FFF76CFF9BE7A5
:1011C8002046FFF766FF2046FFF765FFACE720469D
:1011D800FFF75FFF2046FFF75EFFBDE76FF00102F4
:1011E8001A612046FFF708FDC1E76FF080021A6117
:1011F800204600F041FBC3E76FF040021A61204629
:10120800FFF74AFFC5E76FF020021A61204600F099
:1012180032FBC7E70368244A904212D002F5006205
:1012280090420ED0B0F1804F0BD0A2F59832904288
:1012380007D002F58062904203D002F580629042A6
:1012480003D123F070034A681343174A904212D01F
:1012580002F5006290420ED0B0F1804F0BD0A2F59B
:101268009832904207D002F58062904203D002F58E
:101278008062904203D123F44073CA68134323F079
:1012880080034A69134303608B68C3620B688362F7
:10129800054B984203D003F50063984201D10B69CE
:1012A8000363012343617047002C014040B310B52C
:1012B800044690F83D30F3B1022384F83D302146CE
:1012C80051F8040BFFF7A6FF012384F8463084F891
:1012D8003E3084F83F3084F8403084F8413084F858
:1012E800423084F8433084F8443084F8453084F838
:1012F8003D30002010BD80F83C3001F0CDF8DBE730
:101308000120704740B310B5044690F83D30F3B162
:10131800022384F83D30214651F8040BFFF77AFF89
:10132800012384F8463084F83E3084F83F3084F84E
:10133800403084F8413084F8423084F8433084F8EF
:10134800443084F8453084F83D30002010BD80F8E2
:101358003C30FFF79DFEDBE701207047002857D09F
:1013680070B50D46044690F83D30002B4BD0022353
:1013780084F83D302268936823F4804323F0070300
:101388009360214651F8040BFFF744FF21688A68EF
:101398008B690E6A2868104323F4407C2CF0030CF8
:1013A800AA68AB6942EA032343EA0C0323F47C43AB
:1013B80023F0FC03EA69D5F80CC04CEA022C4CEA8D
:1013C800030C2A6A13032A6943EA021343EA0C034B
:1013D80026F022066A686D6942EA0512324388607F
:1013E80021688B6123681A62012384F8463084F8E7
:1013F8003E3084F83F3084F8423084F8433084F833
:101408003D30002070BD80F83C3001F075F8AEE743
:101418000120704730B4036A23F010030362036AA3
:101428004468826922F4E6420D6842EA052223F004
:1014380020038D6843EA0513114DA84203D005F532
:101448000065A84206D123F08003CD6843EA05135E
:1014580023F040030A4DA84203D005F50065A842D1
:1014680007D124F440644D6944EA85048D6944EA4F
:101478008504446082614A688263036230BC7047B5
:10148800002C014090F83C30012B22D010B50446C6
:10149800012380F83C300C2A0BD8DFE802F0070A59
:1014A8000A0A0E0A0A0A120A0A0A16000068FFF750
:1014B800F1FC002084F83C0010BD0068FFF7AAFF8B
:1014C800F7E70068FFF71AFDF3E70068FFF74EFD3E
:1014D800EFE70220704710B4846824F47F4C42EA96
:1014E80003220A4342EA0C02826010BC704790F85B
:1014F8003C30012B66D010B50446012380F83C30FF
:10150800022380F83D300268936823F47F4323F078
:10151800770393600B68602B40D022D8402B47D0CC
:101528000BD9502B0ED1CA6849680068FFF746FDF1
:1015380050212068FFF767FD04E0202B0CD008D964
:10154800302B09D0012384F83D30002084F83C007A
:1015580010BD0BB1102BF5D119462068FFF753FDCC
:10156800F0E7702B0ED0B3F5005FEBD1CB684A687B
:1015780089680068FFF7AFFF2268936843F48043E7
:101588009360DFE7CB684A6889680068FFF7A3FFC4
:101598002268936843F077039360D3E7CA68496881
:1015A8000068FFF71DFD60212068FFF72CFDC9E7E3
:1015B800CA6849680068FFF701FD40212068FFF705
:1015C80022FDBFE70220704701F01F01012303FA43
:1015D80001FC036A23EA0C030362036A02FA01F1BD
:1015E8000B4303627047000010B504460846002903
:1015F8003AD194F83E30DBB2013B18BF0123002BEF
:1016080066D1002849D1022384F83E3001220146E0
:101618002068FFF7D9FF23682F4A934203D002F5C9
:101628000062934203D15A6C42F400425A64236820
:10163800294A934241D002F5006293423DD0B3F16A
:10164800804F3AD0A2F59832934236D002F58062A4
:10165800934232D002F5806293422ED01A6842F04B
:1016680001021A60002032E0042908D008290DD0B0
:1016780094F84130DBB2013B18BF0123BFE794F86F
:101688003F30DBB2013B18BF0123B8E794F8403084
:10169800DBB2013B18BF0123B1E7042805D00828B5
:1016A80007D0022384F84130B0E7022384F83F30A2
:1016B800ACE7022384F84030A8E79A6802F00702F2
:1016C800062A07D01A6842F001021A60002010BDED
:1016D8000120FCE70020FAE7002C014038B5044659
:1016E80090F83E00C0B294F83F3094F84220D2B24D
:1016F80094F843C00D46B1B9012849D1012A48D10F
:10170800022384F83E3084F842307DB3042D39D06A
:10171800012200212068FFF757FF012204212068D9
:10172800FFF752FF27E0DBB25FFA8CFC042912D0E6
:10173800012833D1012B2CD1012A31D1BCF1010F61
:1017480030D1022384F83E3084F83F3084F84230A8
:1017580084F84330D9E7012B1CD1BCF1010F1BD110
:10176800022384F83F3084F84330CEE70122002179
:101778002068FFF729FF2268136843F0010313600C
:10178800002006E0012204212068FFF71DFFF2E790
:10179800012038BD0120FCE71846FAE70120F8E7E8
:1017A8001846F6E71046F4E790F83C30012B34D0A1
:1017B80010B4012380F83C30022380F83D300368E0
:1017C8005A689C6822F0700C0A6842EA0C025A6057
:1017D8000368134A934212D002F5006293420ED076
:1017E800B3F1804F0BD0A2F59832934207D002F59F
:1017F8008062934203D002F58062934204D124F0C0
:1018080080044A6814439C60012380F83D3000231B
:1018180080F83C30184610BC70470220704700BF63
:10182800002C014090F83C30012B22D0012380F895
:101838003C30CB6823F440738A68134323F48063F5
:101848004A68134323F400630A68134323F480535C
:101858000A69134323F400534A69134323F480436A
:10186800CA69134302685364002380F83C30184661
:1018780070470220704770477047000010B5044653
:101888000E4B18784FF47A73B3FBF0F30C4A1068D8
:10189800B0FBF3F000F0ECFC68B90F2C01D9012083
:1018A8000AE0002221464FF0FF3000F09BFC054B78
:1018B8001C60002000E0012010BD00BF00000020D7
:1018C800080000200400002008B5074A136843F008
:1018D80010031360032000F073FC0F20FFF7CEFF06
:1018E800FFF7B6FA002008BD00200240034A11683D
:1018F800034B1B780B441360704700BF780400202B
:1019080000000020014B1868704700BF78040020D1
:1019180082B0084B1B68084AA2FB03235B0A00FB42
:1019280003F3019300BF019B5A1E0192002BF9D1CA
:1019380002B0704708000020D34D6210002800F064
:10194800F18170B582B00446036813F0010F2CD002
:10195800994B5B6803F00C03042B1DD0964B5B6816
:1019680003F00C03082B12D06368B3F5803F41D015
:10197800002B55D103F1804303F504331A6822F490
:1019880080321A601A6822F480221A6037E08A4B83
:101998005B6813F4803FE7D0874B1B6813F4003F64
:1019A80003D06368002B00F0BF81236813F0020F97
:1019B80075D0814B5B6813F00C0F5FD07E4B5B6872
:1019C80003F00C03082B54D02369002B00F08A8005
:1019D8007A4B01221A60FFF795FF0546764B1B6884
:1019E80013F0020F75D1FFF78DFF401B0228F5D9C0
:1019F80003209EE1704A136843F4803313606368E0
:101A080043B3FFF77FFF05466B4B1B6813F4003F9A
:101A1800CBD1FFF777FF401B6428F5D9032088E175
:101A2800B3F5A02F09D0644B1A6822F480321A60EB
:101A38001A6822F480221A60E1E703F18043A3F5D3
:101A48003C331A6842F480221A601A6842F48032E1
:101A58001A60D4E7FFF756FF0546574B1B6813F487
:101A6800003FA2D0FFF74EFF401B6428F5D90320A2
:101A78005FE1514B5B6813F4803FA5D14E4B1B6867
:101A880013F0020F03D02369012B40F04F814A4A1B
:101A9800136823F0F803616943EAC10313602368FC
:101AA80013F0080F33D0A369002B5CD0434B0122FD
:101AB800C3F88024FFF726FF05463F4B5B6A13F007
:101AC800020F21D1FFF71EFF401B0228F5D9032082
:101AD8002FE1394A136823F0F803616943EAC10327
:101AE8001360DCE7354B00221A60FFF70BFF054651
:101AF800314B1B6813F0020FD1D0FFF703FF401BD7
:101B08000228F5D9032014E10120FFF701FF23681B
:101B180013F0040F00F09680274BDB6913F0805F09
:101B280034D1254BDA6942F08052DA61DB6903F07F
:101B380080530193019B0125214B1B6813F4807F7F
:101B480026D0E368012B3DD0002B53D103F180430D
:101B580003F504331A6A22F001021A621A6A22F0A3
:101B680004021A6233E0154B0022C3F88024FFF701
:101B7800C9FE0546104B5B6A13F0020FC7D0FFF78A
:101B8800C1FE401B0228F5D90320D2E00025D3E787
:101B98000B4A136843F480731360FFF7B3FE0646DD
:101BA800074B1B6813F4807FCBD1FFF7ABFE801B7C
:101BB8006428F5D90320BCE000100240000042422E
:101BC800007000405F4A136A43F001031362E36840
:101BD80033B3FFF797FE06465A4B1B6A13F0020F02
:101BE8002FD1FFF78FFE801B41F288339842F3D93B
:101BF80003209EE0052B09D0524B1A6A22F00102FD
:101C08001A621A6A22F004021A62E0E74D4B1A6A55
:101C180042F004021A621A6A42F001021A62D6E716
:101C2800FFF770FE0646474B1B6A13F0020F08D0F9
:101C3800FFF768FE801B41F288339842F3D90320EE
:101C480077E0E5B9E369002B72D03E4A526802F0AA
:101C58000C02082A56D0022B17D03B4B00221A66DA
:101C6800FFF750FE0446374B1B6813F0007F47D040
:101C7800FFF748FE001B0228F5D9032059E0314A36
:101C8800D36923F08053D361DCE72F4B00221A6617
:101C9800FFF738FE05462B4B1B6813F0007F06D074
:101CA800FFF730FE401B0228F5D9032041E0236AE4
:101CB800B3F5803F1AD023494B6823F47413226A82
:101CC800606A024313434B601F4B01221A66FFF7F9
:101CD80019FE04461B4B1B6813F0007F0ED1FFF75B
:101CE80011FE001B0228F5D9032022E0154A53688B
:101CF80023F40033A1680B435360DCE7002018E0AD
:101D0800002016E0012B16D00E4B5B6803F48031DF
:101D1800226A914211D103F47013626A93420ED180
:101D2800002006E001207047012002E0012000E0C9
:101D3800002002B070BD0120FBE70120F9E7012077
:101D4800F7E700BF001002400000424286B0174B80
:101D58000FCB0DF1180C0CE90F0040F20123ADF880
:101D68000430134B5B6803F00C02082A02D01148B8
:101D780006B07047C3F3834218326A4412F8100C55
:101D880013F4803F0DD00A4B5B68C3F3404318330C
:101D98006B4413F8143C074A02FB00F0B0FBF3F065
:101DA800E6E7054B03FB00F0E2E700BF5C2B000809
:101DB8000010024000127A0000093D00002800F0DF
:101DC800A08070B50D460446524B1B6803F007030C
:101DD8008B420BD24F4A136823F007030B4313605F
:101DE800136803F007038B4240F08D80236813F0DB
:101DF800020F17D013F0040F04D0474A536843F476
:101E0800E0635360236813F0080F04D0424A536814
:101E180043F460535360404A536823F0F003A168C9
:101E28000B435360236813F0010F31D06368012B13
:101E380020D0022B25D0384A126812F0020F64D045
:101E480035494A6822F0030213434B60FFF75AFDF5
:101E58000646314B5B6803F00C036268B3EB820FF4
:101E680016D0FFF74FFD801B41F288339842F0D916
:101E7800032045E0284A126812F4003FE0D101200F
:101E88003EE0254A126812F0007FD9D1012037E0E0
:101E9800204B1B6803F00703AB420AD91D4A13689D
:101EA80023F007032B431360136803F00703AB42C7
:101EB8002DD1236813F0040F06D0174A536823F472
:101EC800E063E1680B435360236813F0080F07D001
:101ED800114A536823F46053216943EAC1035360EC
:101EE800FFF734FF0C4B5B68C3F303130B4AD35C57
:101EF800D8400B4B18600B4B1868FFF7BFFC00204D
:101F080070BD012070470120FAE70120F8E70120A1
:101F1800F6E700BF0020024000100240702B0008C6
:101F28000800002004000020014B1868704700BF1B
:101F38000800002008B5FFF7F7FF044B5B68C3F300
:101F48000223034AD35CD84008BD00BF00100240FA
:101F5800802B000808B5FFF7E7FF044B5B68C3F365
:101F6800C223034AD35CD84008BD00BF001002401A
:101F7800802B000870B582B00024A446B0E0874DDD
:101F8800AA4210D007D9864DAA420CD005F5803553
:101F9800AA4208D013E0A5F58015AA4203D005F59A
:101FA8007025AA4207D18A68002A62D0012A5BD02C
:101FB8004361082403E0A5F58015AA42F3D0BEF1D9
:101FC800FF0F58D80646BEF1FF0F56D84FEA8C02CD
:101FD80033680F25954023EA050304FA02F21343F8
:101FE80033604B6813F0805F78D06E4B9A6942F08B
:101FF80001029A619B6903F001030193019B4FEA77
:102008009C02951C684B53F825600CF003039D0057
:102018000F23AB4026EA0306644B984233D003F5FE
:102028008063984200F0988003F58063984200F03E
:10203800958003F58063984200F0928003F58063F1
:10204800984200F08F8003F58063984219D00623E8
:102058001AE0CC68B3E7CC680434B0E7CC6808343D
:10206800ADE7CC680C34AAE703610824A7E700248D
:10207800A5E70424A3E7061DA5E7ACF10802920032
:10208800A6E7052300E00023AB4033430232464D68
:1020980045F822304B6813F4803F65D0444A1368F2
:1020A80043EA0E0313604B6813F4003F62D0404AC2
:1020B800536843EA0E0353604B6813F4801F5FD0E4
:1020C8003B4A936843EA0E0393604B6813F4001F7E
:1020D8005CD0374AD36843EA0E03D3600CF1010C95
:1020E8000A6832FA0CF357D0012303FA0CF302EA18
:1020F800030E33EA0202F1D14A68122A3FF63FAFD3
:10210800122A3FF65CAF01A555F822F0AF1F000870
:102118005B2000086520000877200008C71F00081A
:10212800C71F0008C71F0008C71F0008C71F0008EF
:10213800C71F0008C71F0008C71F0008C71F0008DF
:10214800C71F0008C71F0008C71F0008C71F0008CF
:102158005F2000086B200008012395E7022393E71E
:10216800032391E704238FE7114A136823EA0E0338
:10217800136098E70E4A536823EA0E0353609BE7FF
:102188000B4A936823EA0E0393609EE7084AD368D4
:1021980023EA0E03D360A1E702B070BD000022104D
:1021A800000031100010024000000140000801400A
:1021B800000401400AB101617047090401617047D8
:1021C800074AD36823F4E0631B041B0C000200F4E5
:1021D800E060034343F0BF6343F40033D3607047C8
:1021E80000ED00E000B5194BDB68C3F30223C3F12F
:1021F800070CBCF1040F28BF4FF0040C03F1040EC8
:10220800BEF1060F18D9033B4FF0FF3E0EFA0CFC47
:1022180021EA0C0199400EFA03F322EA0303194359
:1022280000280BDB0901C9B200F1604000F56140EC
:1022380080F800135DF804FB0023E5E700F00F00C9
:102248000901C9B2024B1954F4E700BF00ED00E0E0
:1022580014ED00E0002807DB00F01F02400901230D
:102268009340024A42F82030704700BF00E100E086
:102278000138B0F1807F0BD24FF0E0235861054A56
:10228800F02182F823100020986107221A61704714
:102298000120704700ED00E07047000000B587B0EE
:1022A8000023029303930493059300930193154825
:1022B8004FF08042026047224260836044F61F620A
:1022C800C26003618361FEF7F1FF90B94FF4805358
:1022D800029302A90B48FFF70AF968B90023009393
:1022E800019369460748FFF75FFA40B907B05DF800
:1022F80004FBFEF7C5FCE9E7FEF7C2FCEEE7FEF7D4
:10230800BFFCF3E7C404002000B58DB024220021EF
:1023180003A800F051FB0023019302931148124ACD
:102328000260436083604FF6FF72C260036183619D
:10233800012303930593099303A9FFF70FF850B9F5
:1023480000230193029301A90648FFF72DFA28B943
:102358000DB05DF804FBFEF793FCF1E7FEF790FC87
:10236800F6E700BF0C0500200004004000B58DB062
:102378002422002103A800F01FFB002301930293ED
:102388001148124A0260436083604FF6FF72C260D0
:1023980003618361012303930593099303A9FEF75E
:1023A800DDFF50B900230193029301A90648FFF706
:1023B800FBF928B90DB05DF804FBFEF761FCF1E705
:1023C800FEF75EFCF6E700BF540500200008004059
:1023D80000B58DB02422002103A800F0EDFA0023F7
:1023E800019302931148124A0260436083604FF6DA
:1023F800FF72C2600361836101230393059309930C
:1024080003A9FEF7ABFF50B900230193029301A97A
:102418000648FFF7C9F928B90DB05DF804FBFEF7C7
:102428002FFCF1E7FEF72CFCF6E700BF9C05002027
:10243800000C004000B58DB02422002103A800F054
:10244800BBFA0023019302931148124A02604360C9
:1024580083604FF6FF72C2600361436183610123A9
:1024680003930593099303A9FEF778FF50B9002356
:102478000193029301A90648FFF796F928B90DB010
:102488005DF804FBFEF7FCFBF1E7FEF7F9FBF6E766
:10249800E40500200034014000B583B00368144A05
:1024A800934205D0B3F1804F0DD003B05DF804FB23
:1024B800104B9A6942F400629A619B6903F40063C5
:1024C8000093009BF1E703F50433DA6942F0010257
:1024D800DA61DB6903F001030193019B00221146D5
:1024E8001C20FFF77FFE1C20FFF7B4FEDDE700BFCE
:1024F800002C01400010024000B58DB00023089365
:1025080009930A930B9303683B4A93420BD03B4AC7
:10251800934222D03A4A934239D03A4A934250D011
:102528000DB05DF804FB384BDA6942F00202DA615B
:10253800DA6902F002020092009A9A6942F00402F3
:102548009A619B6903F004030193019BC0230893DC
:1025580008A92E48FFF70EFDE2E72B4BDA6942F097
:102568000402DA61DA6902F004020292029A9A69B4
:1025780042F008029A619B6903F008030393039BE6
:10258800C023089308A92248FFF7F4FCC8E71E4BAC
:10259800DA6942F00802DA61DA6902F008020492A4
:1025A800049A9A6942F004029A619B6903F0040351
:1025B8000593059B0323089308A91448FFF7DAFC41
:1025C800AEE7114B9A6942F400529A619A6902F493
:1025D80000520692069A9A6942F010029A619B6923
:1025E80003F010030793079BC023089308A9094821
:1025F800FFF7C0FC94E700BF00040040000800405B
:10260800000C004000340140001002400008014066
:10261800000C01400010014000B587B00023029370
:1026280003930493059302680D4B9A4202D007B0B6
:102638005DF804FB03F564439A6942F004029A6169
:102648009B6903F004030193019B4FF470630293A9
:1026580002230393059302A90248FFF78BFCE6E7E0
:10266800002C01400008014010B596B000241294D7
:102678001394149415941094119409940A940B9437
:102688000C940D940E940F942022214601A800F07A
:1026980093F93B483B4B036047234360846040F217
:1026A800E733C360046144618461FEF7FFFD0028DD
:1026B8004AD14FF48053129312A93148FEF717FFFD
:1026C800002844D12E48FEF71DFE002842D10023E1
:1026D8001093119310A92A48FFF766F800283CD1F7
:1026E800002209920A920B920C920D920E920F926E
:1026F80009A92348FEF7C6FE002831D1042209A9FA
:102708001F48FEF7BFFE70BB082209A91C48FEF748
:10271800B9FE58BB0C2209A91948FEF7B3FE40BB05
:102728000023019302930393049305934FF40052FB
:102738000692089301A91248FFF774F8E0B9104807
:10274800FFF76AFF16B010BDFEF79AFAB1E7FEF779
:1027580097FAB7E7FEF794FAB9E7FEF791FABFE7F9
:10276800FEF78EFACAE7FEF78BFACDE7FEF788FA8E
:10277800D0E7FEF785FAD3E7FEF782FADFE700BF76
:102788007C040020002C014008B50A480A4B03606D
:102798004FF4E133436000238360C36003610C227C
:1027A80042618361C36100F08DF800B908BDFEF78E
:1027B80067FAFBE72C0600200044004010B586B0FD
:1027C800002302930393049305930268164B9A42DD
:1027D80001D006B010BD03F5E633DA6942F40032E1
:1027E800DA61DA6902F400320092009A9A6942F0DA
:1027F80004029A619B6903F004030193019B04237B
:1028080002930223039303230593084C02A920464D
:10281800FFF7B0FB0823029300230393049302A954
:102828002046FFF7A7FBD4E700440040000801401A
:1028380010B504460268136923F44053C1680B437A
:10284800136183680269134342691A430168CB68BC
:1028580023F4B05323F00C031343CB60026853698D
:1028680023F4407381690B4353610268134B9A4206
:1028780020D0FFF75FFB024602EB820202EB8202E6
:1028880063689B00B2FBF3F20D48A0FB02314909D3
:10289800642303FB11231B013233A0FB03235B09D1
:1028A80003F0F00202EB011203F00F032168134456
:1028B8008B6010BDFFF74EFB0246DDE70038014094
:1028C8001F85EB5158B310B5044690F83D300BB353
:1028D800242384F83D302268D36823F40053D3605E
:1028E8002046FFF7A5FF2268136923F4904313617C
:1028F8002268536923F02A0353612268D36843F49A
:102908000053D36000202064202384F83D3084F8ED
:102918003E3010BD80F83C30FFF750FFD8E701206B
:10292800704700000C480D490D4A002302E0D458B6
:10293800C4500433C4188C42F9D30A4A0A4C002301
:1029480001E013600432A242FBD3FFF7A5FC00F0BC
:102958000FF8FEF7C9F97047000000203C0400207A
:10296800982B00084004002074060020FEE70000B1
:1029780070B50D4E0D4D761BB61006D0002455F8D7
:10298800043B01349847A642F9D1094E094D00F09D
:10299800D5F8761BB61006D0002455F8043B013450
:1029A8009847A642F9D170BD8C2B00088C2B0008E3
:1029B800942B00088C2B0008830730B548D0541E90
:1029C800002A3FD00346CAB201E0013C3AD303F8DB
:1029D800012B9D07F9D1032C2DD9CDB245EA052548
:1029E8000F2C45EA054536D9A4F1100222F00F0C48
:1029F80003F1200EE6444FEA121C03F1100242E9EB
:102A0800045542E9025510327245F8D10CF1010221
:102A180014F00C0F03EB021204F00F0C13D0ACF1FE
:102A2800040323F003030433134442F8045B934282
:102A3800FBD10CF003042CB1CAB21C4403F8012BDF
:102A48009C42FBD130BD64461346002CF4D1F9E713
:102A580003461446BFE71A46A446E0E7024B13B103
:102A6800024800F005B8704700000000852A0008F9
:102A7800002301461A46184600F01AB838B5084B24
:102A8800084D5B1B9C1007D0043B1D44013C55F8C6
:102A980004399847002CF9D1BDE8384000F054B803
:102AA800982B0008942B0008704700BF704700BFA0
:102AB8002DE9F047DFF87CA00646DAF800009846D2
:102AC8000F469146FFF7F0FF1B4B1B68D3F84841B0
:102AD80024B365681F2D26DC5EB96B1C0235DAF855
:102AE8000000636044F82570FFF7E0FF0020BDE8B0
:102AF800F087012304EB8501C1F88890D4F8882178
:102B0800AB401A43022EC4F88821C1F80881E4D1E9
:102B1800D4F88C211343C4F88C31DEE703F5A6748E
:102B2800C3F84841D5E7DAF80000FFF7BFFF4FF0D8
:102B3800FF30DCE738040020882B0008F8B500BF18
:102B4800F8BC08BC9E467047F8B500BFF8BC08BC86
:042B58009E467047DE
:102B5C0002030405060708090A0B0C0D0E0F1010D2
:102B6C00000000000000000000000000010203044F
:102B7C0006070809000000000102030410000020F1
:082B8C00652A00080D02000893
:042B9400E90100084B
:102B980001000000100000000024F4000000000004
:102BA80000000000FC02002064030020CC03002089
:102BB800000000000000000000000000000000000D
:102BC80000000000000000000000000000000000FD
:102BD80000000000000000000000000000000000ED
:102BE80000000000000000000000000000000000DD
:102BF80000000000000000000000000000000000CD
:102C080000000000000000000000000000000000BC
:102C180000000000000000000000000000000000AC
:102C2800000000000000000000000000000000009C
:102C3800000000000000000000000000000000008C
:102C4800000000000000000001000000000000007B
:102C58000E33CDAB34126DE6ECDE05000B00000040
:102C6800000000000000000000000000000000005C
:102C7800000000000000000000000000000000004C
:102C8800000000000000000000000000000000003C
:102C9800000000000000000000000000000000002C
:0C2FC80000000000000000007006002067
:040000050800292D99
:00000001FF
