:020000040800F2
:1000000000C00020995E0008FB2E0008FD2E0008AD
:10001000FF2E0008012F0008032F00080000000039
:10002000000000000000000000000000052F000894
:10003000072F000800000000092F00080B2F000800
:10004000E15E0008E15E0008E15E0008E15E000894
:10005000E15E0008E15E0008E15E0008E15E000884
:10006000E15E0008E15E0008E15E0008E15E000874
:10007000E15E0008152F0008E15E0008E15E00085F
:10008000252F0008E15E0008E15E0008E15E00083F
:10009000E15E0008E15E0008E15E0008E15E000844
:1000A000E15E0008E15E0008E15E0008E15E000834
:1000B000352F0008E15E0008E15E0008E15E0008FF
:1000C000E15E0008E15E0008E15E0008E15E000814
:1000D000E15E0008E15E0008452F0008552F00088A
:1000E000E15E0008E15E0008E15E0008E15E0008F4
:1000F000E15E0008E15E0008E15E0008E15E0008E4
:10010000E15E0008E15E0008E15E0008E15E0008D3
:10011000E15E0008E15E0008E15E0008E15E0008C3
:10012000E15E0008E15E0008E15E0008E15E0008B3
:1001300000000000000000000000000000000000BF
:1001400000000000000000000000000000000000AF
:10015000000000000000000000000000000000009F
:10016000000000000000000000000000000000008F
:10017000000000000000000000000000000000007F
:10018000000000000000000000000000000000006F
:10019000000000000000000000000000000000005F
:1001A000000000000000000000000000000000004F
:1001B000000000000000000000000000000000003F
:1001C000000000000000000000000000000000002F
:1001D000000000000000000000000000000000001F
:0401E0005FF8E0F1F3
:1001E80010B5054C237833B9044B13B10448AFF369
:1001F80000800123237010BDEC04002000000000E3
:100208005467000808B5034B1BB103490348AFF313
:10021800008008BD00000000F004002054670008BA
:10022800844641EA000313F0030349D1403A23D33B
:100238000B6803604B6843608B688360CB68C3605E
:100248000B6903614B6943618B698361CB69C36146
:100258000B6A03624B6A43628B6A8362CB6AC3622E
:100268000B6B03634B6B43638B6B8363CB6BC36316
:1002780040304031403ADBD230320BD30B68036058
:100288004B6843608B688360CB68C3601030103163
:10029800103AF3D20C3205D351F8043B40F8043B32
:1002A800043AF9D2043208D0D2071CBF11F8013B36
:1002B80000F8013B01D30B8803806046704700BFFC
:1002C800082A13D38B07B1D010F00303AED0C3F1C3
:1002D8000403D21ADB071CBF11F8013B00F8013BED
:1002E800A4D331F8023B20F8023B9FE7043AD9D364
:1002F800013A11F8013B00F8013BF9D20B78037081
:100308004B7843708B7883706046704781F000416A
:1003180002E000BF83F0004330B54FEA41044FEAE2
:10032800430594EA050F08BF90EA020F1FBF54EA7D
:10033800000C55EA020C7FEA645C7FEA655C00F019
:10034800E2804FEA5454D4EB5555B8BF6D420CDDEA
:100358002C4480EA020281EA030382EA000083EA6D
:10036800010180EA020281EA0303362D88BF30BD0D
:1003780011F0004F4FEA01314FF4801C4CEA113163
:1003880002D0404261EB410113F0004F4FEA0333C2
:100398004CEA133302D0524263EB430394EA050F4D
:1003A80000F0A780A4F10104D5F1200E0DDB02FABC
:1003B8000EFC22FA05F2801841F1000103FA0EF250
:1003C800801843FA05F359410EE0A5F120050EF116
:1003D800200E012A03FA0EFC28BF4CF0020C43FA47
:1003E80005F3C01851EBE37101F0004507D54FF054
:1003F800000EDCF1000C7EEB00006EEB0101B1F5A4
:10040800801F1BD3B1F5001F0CD349085FEA3000E9
:100418004FEA3C0C04F101044FEA445212F5800FF4
:1004280080F09A80BCF1004F08BF5FEA500C50F191
:10043800000041EB045141EA050130BD5FEA4C0C74
:10044800404141EB0101013C28BFB1F5801FE9D2D1
:1004580091F0000F04BF01460020B1FA81F308BFF4
:100468002033A3F10B03B3F120020CDA0C3208DDC0
:1004780002F1140CC2F10C0201FA0CF021FA02F19B
:100488000CE002F11402D8BFC2F1200C01FA02F10B
:1004980020FA0CFCDCBF41EA0C019040E41AA2BF30
:1004A80001EB0451294330BD6FEA04041F3C1CDAF8
:1004B8000C340EDC04F11404C4F1200220FA04F018
:1004C80001FA02F340EA030021FA04F345EA0301C2
:1004D80030BDC4F10C04C4F1200220FA02F001FA84
:1004E80004F340EA0300294630BD21FA04F0294606
:1004F80030BD94F0000F83F4801306BF81F480119F
:100508000134013D4EE77FEA645C18BF7FEA655C11
:1005180029D094EA050F08BF90EA020F05D054EAE3
:10052800000C04BF1946104630BD91EA030F1EBFE8
:100538000021002030BD5FEA545C05D140004941EC
:1005480028BF41F0004130BD14F580043CBF01F5DF
:10055800801130BD01F0004545F0FE4141F47001C5
:100568004FF0000030BD7FEA645C1ABF19461046A0
:100578007FEA655C1CBF0B46024650EA013406BFA1
:1005880052EA033591EA030F41F4002130BD00BF60
:1005980090F0000F04BF0021704730B54FF480641D
:1005A80004F132044FF000054FF0000150E700BF9E
:1005B80090F0000F04BF0021704730B54FF48064FD
:1005C80004F1320410F0004548BF40424FF00001EA
:1005D8003EE700BF42004FEAE2014FEA31014FEA2D
:1005E80002701FBF12F07F4393F07F4F81F060517C
:1005F800704732F07F4208BF704793F07F4F04BFC7
:1006080041F40021704730B54FF4607401F00045A3
:1006180021F000411CE700BF50EA010208BF704703
:1006280030B54FF000050AE050EA010208BF7047F4
:1006380030B511F0004502D5404261EB41014FF45D
:10064800806404F132045FEA915C3FF4D8AE4FF065
:1006580003025FEADC0C18BF03325FEADC0C18BF48
:10066800033202EBDC02C2F1200300FA03FC20FA99
:1006780002F001FA03FE40EA0E0021FA02F11444E6
:10068800BDE600BF70B54FF0FF0C4CF4E06C1CEAFF
:1006980011541DBF1CEA135594EA0C0F95EA0C0F70
:1006A80000F0DEF82C4481EA030621EA4C5123EAE3
:1006B8004C5350EA013518BF52EA033541F4801112
:1006C80043F4801338D0A0FB02CE4FF00005E1FBC5
:1006D80002E506F00042E0FB03E54FF00006E1FB0F
:1006E80003569CF0000F18BF4EF0010EA4F1FF0452
:1006F800B6F5007F64F5407404D25FEA4E0E6D4192
:1007080046EB060642EAC62141EA55514FEAC520A2
:1007180040EA5E504FEACE2EB4F1FD0C88BFBCF51E
:10072800E06F1ED8BEF1004F08BF5FEA500E50F1CF
:10073800000041EB045170BD06F0004646EA010195
:1007480040EA020081EA0301B4EB5C04C2BFD4EBC7
:100758000C0541EA045170BD41F480114FF0000EC0
:10076800013C00F3AB8014F1360FDEBF002001F02E
:10077800004170BDC4F10004203C35DA0C341BDCA8
:1007880004F11404C4F1200500FA05F320FA04F07A
:1007980001FA05F240EA020001F0004221F00041AE
:1007A80010EBD37021FA04F642EB06015EEA430E21
:1007B80008BF20EAD37070BDC4F10C04C4F1200551
:1007C80000FA04F320FA05F001FA04F240EA020004
:1007D80001F0004110EBD37041F100015EEA430ED5
:1007E80008BF20EAD37070BDC4F1200500FA05F2F5
:1007F8004EEA020E20FA04F301FA05F243EA020374
:1008080021FA04F001F0004121FA04F220EA020082
:1008180000EBD3705EEA430E08BF20EAD37070BDC8
:1008280094F0000F0FD101F00046400041EB0101A8
:1008380011F4801F08BF013CF7D041EA060195F08A
:10084800000F18BF704703F00046520043EB030344
:1008580013F4801F08BF013DF7D043EA0603704731
:1008680094EA0C0F0CEA135518BF95EA0C0F0CD03C
:1008780050EA410618BF52EA4306D1D181EA030182
:1008880001F000414FF0000070BD50EA410606BF7C
:100898001046194652EA430619D094EA0C0F02D1C1
:1008A80050EA013613D195EA0C0F05D152EA033606
:1008B8001CBF104619460AD181EA030101F0004124
:1008C80041F0FE4141F470014FF0000070BD41F06D
:1008D800FE4141F4780170BD70B54FF0FF0C4CF447
:1008E800E06C1CEA11541DBF1CEA135594EA0C0F66
:1008F80095EA0C0F00F0A7F8A4EB050481EA030EB3
:1009080052EA03354FEA013100F088804FEA033399
:100918004FF0805545EA131343EA12634FEA022267
:1009280045EA111545EA10654FEA00260EF0004128
:100938009D4208BF964244F1FD0404F5407402D27A
:100948005B084FEA3202B61A65EB03055B084FEA0B
:1009580032024FF480104FF4002CB6EB020E75EB08
:10096800030E22BFB61A754640EA0C005B084FEA30
:100978003202B6EB020E75EB030E22BFB61A7546AD
:1009880040EA5C005B084FEA3202B6EB020E75EBF8
:10099800030E22BFB61A754640EA9C005B084FEA70
:1009A8003202B6EB020E75EB030E22BFB61A75467D
:1009B80040EADC0055EA060E18D04FEA051545EA6C
:1009C80016754FEA06164FEAC30343EA52734FEA15
:1009D800C2025FEA1C1CC0D111F4801F0BD141EA8E
:1009E80000014FF000004FF0004CB6E711F4801FF3
:1009F80004BF01430020B4F1FD0C88BFBCF5E06FD3
:100A08003FF6AFAEB5EB030C04BFB6EB020C5FEAE2
:100A1800500C50F1000041EB045170BD0EF0004E37
:100A28004EEA113114EB5C04C2BFD4EB0C0541EA69
:100A3800045170BD41F480114FF0000E013C90E666
:100A480045EA060E8DE60CEA135594EA0C0F08BF2A
:100A580095EA0C0F3FF43BAF94EA0C0F0AD150EA29
:100A680001347FF434AF95EA0C0F7FF425AF1046BC
:100A780019462CE795EA0C0F06D152EA03353FF4E4
:100A8800FDAE1046194622E750EA410618BF52EA61
:100A980043067FF4C5AE50EA41047FF40DAF52EA35
:100AA80043057FF4EBAE12E74FF0FF3C06E000BFD2
:100AB8004FF0010C02E000BF4FF0010C4DF804CDDF
:100AC8004FEA410C7FEA6C5C4FEA430C18BF7FEA9F
:100AD8006C5C1BD001B050EA410C0CBF52EA430CCD
:100AE80091EA030F02BF90EA020F0020704710F14D
:100AF800000F91EA030F58BF994208BF90422CBFDC
:100B0800D8176FEAE37040F0010070474FEA410CD4
:100B18007FEA6C5C02D150EA013C07D14FEA430CF2
:100B28007FEA6C5CD6D152EA033CD3D05DF8040B63
:100B3800704700BF8446104662468C461946634695
:100B480000E000BF01B5FFF7B7FF002848BF10F16C
:100B5800000F01BD4DF808EDFFF7F4FF0CBF0120B1
:100B680000205DF808FB00BF4DF808EDFFF7EAFF2D
:100B780034BF012000205DF808FB00BF4DF808EDE8
:100B8800FFF7E0FF94BF012000205DF808FB00BFDD
:100B98004DF808EDFFF7CEFF94BF012000205DF867
:100BA80008FB00BF4DF808EDFFF7C4FF34BF012074
:100BB80000205DF808FB00BF4FEA410C7FEA6C5C3F
:100BC80002D150EA013C0AD14FEA430C7FEA6C5C3F
:100BD80002D152EA033C02D14FF0000070474FF0B7
:100BE800010070474FEA410212F5001215D211D5E3
:100BF8006FF47873B3EB625212D94FEAC12343F012
:100C0800004343EA505311F0004F23FA02F018BF93
:100C1800404270474FF00000704750EA013005D15C
:100C280011F0004008BF6FF0004070474FF000001F
:100C3800704700BF4FEA4102B2F1E04324BFB3F569
:100C4800001CDCF1FE5C0DD901F0004C4FEAC0023B
:100C58004CEA5070B2F1004F40EB830008BF20F01F
:100C68000100704711F0804F21D113F13872BCBFD9
:100C780001F00040704741F480114FEA5252C2F12E
:100C88001802C2F1200C10FA0CF320FA02F018BF77
:100C980040F001004FEAC1234FEAD32303FA0CFCCA
:100CA80040EA0C0023FA02F34FEA4303CCE77FEA59
:100CB800625307D150EA01331EBF4FF0FE4040F4A3
:100CC8004000704701F0004040F0FE4040F4000052
:100CD800704700BF80F0004002E000BF81F0004193
:100CE80042001FBF5FEA410392EA030F7FEA226CCA
:100CF8007FEA236C6AD04FEA1262D2EB1363C1BF5A
:100D0800D218414048404140B8BF5B42192B88BFC8
:100D1800704710F0004F40F4000020F07F4018BFEB
:100D2800404211F0004F41F4000121F07F4118BF0B
:100D3800494292EA030F3FD0A2F1010241FA03FCB3
:100D480010EB0C00C3F1200301FA03F100F000439B
:100D580002D5494260EB4000B0F5000F13D3B0F163
:100D6800807F06D340084FEA310102F10102FE2AD2
:100D780051D2B1F1004F40EBC25008BF20F0010042
:100D880040EA03007047490040EB0000013A28BFE1
:100D9800B0F5000FEDD2B0FA80FCACF1080CB2EB64
:100DA8000C0200FA0CF0AABF00EBC25052421843E2
:100DB800BCBFD0401843704792F0000F81F4000187
:100DC80006BF80F400000132013BB5E74FEA41035A
:100DD8007FEA226C18BF7FEA236C21D092EA030FC6
:100DE80004D092F0000F08BF0846704790EA010F40
:100DF8001CBF0020704712F07F4F04D1400028BF6D
:100E080040F00040704712F100723CBF00F500004E
:100E1800704700F0004343F0FE4040F40000704784
:100E28007FEA226216BF08467FEA23630146420230
:100E380006BF5FEA412390EA010F40F48000704743
:100E48004FF0000304E000BF10F0004348BF4042E9
:100E58005FEA000C08BF704743F0964301464FF025
:100E680000001CE050EA010208BF70474FF0000381
:100E78000AE000BF50EA010208BF704711F00043C2
:100E880002D5404261EB41015FEA010C02BF844692
:100E98000146002043F0B64308BFA3F18053A3F5F1
:100EA8000003BCFA8CF2083AA3EBC25310DB01FA38
:100EB80002FC634400FA02FCC2F12002BCF1004FBC
:100EC80020FA02F243EB020008BF20F0010070474D
:100ED80002F1200201FA02FCC2F1200250EA4C00A1
:100EE80021FA02F243EB020008BF20EADC707047E7
:100EF8004FF0FF0C1CEAD0521EBF1CEAD15392EAF5
:100F08000C0F93EA0C0F6FD01A4480EA010C4002D0
:100F180018BF5FEA41211ED04FF0006343EA50102A
:100F280043EA5111A0FB01310CF00040B1F5000F6C
:100F38003EBF490041EAD3715B0040EA010062F11B
:100F48007F02FD2A1DD8B3F1004F40EBC25008BF05
:100F580020F00100704790F0000F0CF0004C08BF23
:100F680049024CEA502040EA51207F3AC2BFD2F1F0
:100F7800FF0340EAC250704740F400004FF00003FE
:100F8800013A5DDC12F1190FDCBF00F00040704738
:100F9800C2F10002410021FA02F1C2F1200200FA76
:100FA80002FC5FEA310040F1000053EA4C0308BF3D
:100FB80020EADC70704792F0000F00F0004C02BF8E
:100FC800400010F4000F013AF9D040EA0C0093F009
:100FD800000F01F0004C02BF490011F4000F013B63
:100FE800F9D041EA0C018FE70CEAD15392EA0C0FD1
:100FF80018BF93EA0C0F0AD030F0004C18BF31F03C
:10100800004CD8D180EA010000F00040704790F011
:10101800000F17BF90F0004F084691F0000F91F0B5
:10102800004F14D092EA0C0F01D142020FD193EA7B
:101038000C0F03D14B0218BF084608D180EA010003
:1010480000F0004040F0FE4040F40000704740F0DF
:10105800FE4040F4400070474FF0FF0C1CEAD052AD
:101068001EBF1CEAD15392EA0C0F93EA0C0F69D009
:10107800A2EB030280EA010C49024FEA402037D074
:101088004FF0805343EA111143EA10130CF000406B
:101098008B4238BF5B0042F17D024FF4000C8B425B
:1010A80024BF5B1A40EA0C00B3EB510F24BFA3EB3B
:1010B800510340EA5C00B3EB910F24BFA3EB91030B
:1010C80040EA9C00B3EBD10F24BFA3EBD10340EA65
:1010D800DC001B0118BF5FEA1C1CE0D1FD2A3FF6AB
:1010E80050AF8B4240EBC25008BF20F00100704760
:1010F8000CF0004C4CEA50207F32C2BFD2F1FF0303
:1011080040EAC250704740F400004FF00003013A33
:1011180037E792F0000F00F0004C02BF400010F4D7
:10112800000F013AF9D040EA0C0093F0000F01F0EB
:10113800004C02BF490011F4000F013BF9D041EA0D
:101148000C0195E70CEAD15392EA0C0F08D1420240
:101158007FF47DAF93EA0C0F7FF470AF084676E713
:1011680093EA0C0F04D14B023FF44CAF08466EE7EC
:1011780030F0004C18BF31F0004CCAD130F00042BA
:101188007FF45CAF31F000437FF43CAF5FE700BF12
:101198004FF0FF3C06E000BF4FF0010C02E000BF3B
:1011A8004FF0010C4DF804CD4FEA40024FEA4103DD
:1011B8007FEA226C18BF7FEA236C11D001B052EA93
:1011C800530C18BF90EA010F58BFB2EB030088BF59
:1011D800C81738BF6FEAE17018BF40F001007047C8
:1011E8007FEA226C02D15FEA402C05D17FEA236CAA
:1011F800E4D15FEA412CE1D05DF8040B704700BFF1
:10120800844608466146FFE70FB5FFF7C9FF002887
:1012180048BF10F1000F0FBD4DF808EDFFF7F4FFC0
:101228000CBF012000205DF808FB00BF4DF808ED59
:10123800FFF7EAFF34BF012000205DF808FB00BF7C
:101248004DF808EDFFF7E0FF94BF012000205DF89E
:1012580008FB00BF4DF808EDFFF7D2FF94BF01204F
:1012680000205DF808FB00BF4DF808EDFFF7C8FF48
:1012780034BF012000205DF808FB00BF4FEA4002A0
:10128800B2F1FE4F0FD34FF09E03B3EB12620DD9AC
:101298004FEA002343F0004310F0004F23FA02F016
:1012A80018BF404270474FF00000704712F1610FBD
:1012B80001D1420205D110F0004008BF6FF0004094
:1012C80070474FF000007047014B00221A607047CA
:1012D80024050020014B1868704700BF2405002032
:1012E800F8B50B46144601461846FFF7F7FC0546C5
:1012F8002649FFF7FDFD264E56F82410FFF7F0FCAF
:1013080046F824002349FFF7AFFF10B1214A46F8F9
:101318002420214F57F824102846FFF7DFFC1B49EB
:10132800FFF79AFE064647F8245029461B4B53F808
:101338002400FFF7DDFD0546154B53F82410184B24
:1013480053F82400FFF7D4FD01462846FFF7C8FCF0
:1013580005463146134B53F82400FFF7C9FD0146F3
:101368002846FFF7BDFC05460F4B43F82400002133
:10137800FFF75CFF30B90D492846FFF775FF10B13C
:101388000A4D00E000252846F8BD00BF0000A04136
:10139800080500200000FA454C0500209067000869
:1013A80080670008706700083C0500200000614461
:1013B80038B504F0D3FA04462F49FFF74DFE2F4BFA
:1013C80018602F492046FFF731FF002830D12D49FA
:1013D8002046FFF749FF002847D10124132C46DC9B
:1013E80004F0BCFA2449FFF737FE0146234D28686C
:1013F800FFF776FC28600134F0E71F492046FFF725
:101408002BFE01461D4C2068FFF76AFC2060013561
:10141800132D2CDC04F0A2FA04461A49FFF724FF26
:101428000028EAD018492046FFF758FC0446E4E7AC
:101438000125EDE710492046FFF70EFE01460F4C47
:101448002068FFF74DFC20600135132D0FDC04F0F8
:1014580085FA04460A49FFF7E9FE0028EAD00A4956
:101468002046FFF73DFC0446E4E70125EDE7034B82
:101478001A68064B1A6038BD0000A04120050020FC
:1014880000007042000096430000B4431C05002091
:1014980010B504F063FA0E4B1968FFF71FFC0446F9
:1014A8000C49FFF7E1FE30B10B492046FFF716FC67
:1014B8000446204610BD09492046FFF7B7FE00281C
:1014C800F7D005492046FFF70BFC0446F1E700BFBB
:1014D80020050020000034430000B443000034C35A
:1014E80038B50446274D00224FF48051284602F0B3
:1014F80029FF00224FF40061284602F023FFA5F5DA
:10150800806500220121284602F01CFF00220221EA
:10151800284602F017FF012C1CD0B4F1FF3F25D05C
:10152800184C01224FF48051204602F00BFF012293
:101538004FF40061204602F005FFA4F58064012203
:101548001146204602F0FEFE01220221204602F04A
:10155800F9FE38BD01224FF480510A4802F0F2FE2C
:1015680001220221284602F0EDFEF2E701224FF4A3
:101578000061044802F0E6FE01221146024802F02A
:10158800E1FEE6E700100140000C014038B50446D2
:10159800294D00224FF40051284602F0D3FE0022C4
:1015A8004FF48041284602F0CDFE00224FF48061BE
:1015B800224802F0C7FE00224FF40041204802F002
:1015C800C1FE012C1ED0B4F1FF3F28D01B4C0122D4
:1015D8004FF40051204602F0B5FE01224FF480413D
:1015E800204602F0AFFEA4F5806401224FF480612A
:1015F800204602F0A7FE01224FF40041204602F0E7
:10160800A1FE38BD01224FF40051284602F09AFE8F
:1016180001224FF400410A4802F094FEF1E701224A
:101628004FF48041044802F08DFE01224FF480619E
:10163800024802F087FEE4E7000C01400010014078
:101648000008014038B504460D460021FFF70CFE9E
:1016580018B1034B43F8254038BD0024F9E700BF13
:101668009C00002010B5FFF73BFB04460B49FFF731
:10167800DDFD30B10A492046FFF732FB044620461B
:1016880010BD08492046FFF7EFFD0028F7D00449B0
:101698002046FFF723FB0446F1E700BF000034C3F0
:1016A8000000B4430000344338B504460020FFF777
:1016B8006DFF0020FFF714FF04F050F94D4D28602E
:1016C8002146FFF7CFFF2860FFF7E2FE0021FFF772
:1016D800ADFD40B90120FFF703FF4FF0FF30FFF7E2
:1016E80055FF00242DE04FF0FF30FFF7F9FE0120F1
:1016F800FFF74CFF002405E021464FF08240FFF73A
:10170800A1FF0134032CF7DDFFF7C2FE3A49FFF7CA
:101718008DFD0028F8D106E021463848FFF792FFF2
:101728000134032CF8DDFFF7B3FE3549FFF77EFDE2
:1017380000B30024F5E721464FF08240FFF782FF0F
:101748000134032CF7DDFFF7A3FE2E49FFF78CFDCC
:101758000028F8D106E021462848FFF773FF013436
:10176800032CF8DDFFF794FE2749FFF77DFD08B14C
:101778000024F5E7FFF78CFE0021FFF757FD40B97D
:101788000120FFF7ADFE4FF0FF30FFF7FFFE00240A
:101798001EE04FF0FF30FFF7A3FE0120FFF7F6FE33
:1017A800002405E021464FF08040FFF74BFF01344D
:1017B800032CF7DDFFF76CFE1449FFF737FD00280F
:1017C800F8D10FE021464FF08040FFF73BFF01348E
:1017D800032CF7DDFFF75CFE4FF07E51FFF744FD69
:1017E8000028F7D10020FFF77BFE0020FFF7CEFE90
:1017F80038BD00BF20050020000048C2000040405E
:101808000000A0C0000048420000A040000080BFC7
:101818002DE9F84F0368B3F1804F01D0BDE8F88F88
:10182800654BD3F800C0DCF82400644B19684F6A94
:10183800634B1A68566A634B1B685D6A47F6A47463
:10184800A04202D9C0F57F40FF3047F6A474A742F2
:1018580002D9C7F57F47FF3747F6A474A64202D9D5
:10186800C6F57F46FF3647F6A474A54202D9C5F5EA
:101878007F45FF350024CCF824404C6254625C62FA
:10188800FFF7DEFA5049FFF733FB5049FFF7E4FB57
:10189800FEF7A0FE44A3D3E90023FEF7F3FEFFF70B
:1018A800C9F983463846FFF7CBFA4749FFF720FBCB
:1018B8004749FFF7D1FBFEF78DFE3BA3D3E9002391
:1018C800FEF7E0FEFFF7B6F982463046FFF7B8FAB2
:1018D8003D49FFF70DFB3E49FFF7BEFBFEF77AFED9
:1018E80031A3D3E90023FEF7CDFEFFF7A3F907469E
:1018F8002846FFF7A5FA3449FFF7FAFA3549FFF702
:10190800ABFBFEF767FE28A3D3E90023FEF7BAFE78
:10191800FFF790F9054651465846FFF7E1F9394671
:10192800FFF7DEF92946FFF7DBF9FEF753FE20A3A0
:10193800D3E90023FEF7A6FE80468946264E306886
:10194800FEF748FE42464B46FEF7E6FCFFF772F903
:101958003060224E224631685846FFF7C1FCFFF737
:101968008DFC0446012271685046FFF7B9FCFFF769
:1019780085FC80460222B1683846FFF7B1FCFFF7C4
:101988007DFC07460322F1682846FFF7A9FCFFF70C
:1019980075FC134B1B685C63C3F83880DF631864FD
:1019A8003CE700BFAFF30080666666666666344053
:1019B8009A9999999999893FF0050020380600204D
:1019C80080060020C80600200000A0410000054451
:1019D80000C0044400800444240500209C0000202A
:1019E800600500202DE9F04FA1B00024022C13DC83
:1019F800204604F035FA20AB03EB840545F80C0CBF
:101A0800204604F039FA45F8180C204604F016FA76
:101A180045F8240C0134E9E71E9E04961D9D701BB1
:101A2800FFF712FA804615901B9B1A9C0393181B0C
:101A3800FFF70AFA019013901F990691481BFFF7C8
:101A480003FA834616901C980790001BFFF7FCF9D1
:101A580082461490771907EBD7777F10189805906E
:101A680000FB00F0179E06FB06F9A0EB0900FFF744
:101A7800EBF9089001464046FFF73AFA09904146CB
:101A8800CDF808804046FFF733FA8046DDF804C0F9
:101A980061466046FFF72CFA01464046FFF720F9F9
:101AA800804601460998FFF7D7FA4FF07C51FFF7B7
:101AB8001FFA09903846FFF7C7F90999FFF70EF999
:101AC80009900F90039B1F1907EBD7777F10089990
:101AD8000198FFF70DFA4146FFF7BEFA4FF07C5127
:101AE800FFF706FA80463846FFF7AEF94146FFF79A
:101AF800F5F80A900D90069AAF1807EBD7777F1084
:101B0800199A0B9202FB02F0A0EB0900FFF79CF96F
:101B1800089001465846FFF7EBF981465946584662
:101B2800FFF7E6F9804651465046FFF7E1F90146CE
:101B38004046FFF7D5F8804601464846FFF78CFA3D
:101B48004FF07C51FFF7D4F981463846FFF77CF90E
:101B58004946FFF7C3F881461090079BE71807EB43
:101B6800D7777F1008995046FFF7C2F94146FFF72B
:101B780073FA4FF07C51FFF7BBF980463846FFF700
:101B880063F94146FFF7AAF880460E900999029832
:101B9800FFF7AEF907460A990198FFF7A9F9014638
:101BA8003846FFF79DF80746119049465846FFF713
:101BB8009FF9814641465046FFF79AF90146484643
:101BC800FFF78EF88046129039465046FFF790F995
:101BD800814641460198FFF78BF901464846FFF7D1
:101BE8007DF8814651460298FFF782F982465946A8
:101BF8000198FFF77DF901465046FFF76FF88246D6
:101C080001464846FFF728FAFFF738FB8146414668
:101C18000298FFF76DF9804639465846FFF768F98C
:101C280001464046FFF75AF85146FFF715FAFFF705
:101C380025FB82464FF0FF38002301934FF0000B3D
:101C48004BE00137012F46DCA9EB05004044AAEB25
:101C580004033B4403FB03F300FB0030FEF7A8FC3E
:101C680004F02AFAFEF7BEFF8642EAD1049BA9EBEC
:101C780003004044039BAAEB03033B4403FB03F329
:101C880000FB0030FEF794FC04F016FAFEF7AAFFFA
:101C9800059B8342D5D1069BA9EB03004044079BD3
:101CA800AAEB03033B4403FB03F300FB0030FEF7FE
:101CB8007FFC04F001FAFEF795FF0B9B8342C0D12D
:101CC8004046FFF7C1F801460198FFF709F801906F
:101CD8000BF1010BB5E708F10108B8F1010F02DCBF
:101CE8004FF0FF37AEE75846FFF7AEF801460198C8
:101CF800FFF7B2F904464846FFF7A6F82146FEF773
:101D0800EFFF21B0BDE8F08F2DE9F04FA1B000241E
:101D1800022C13DC204604F0A3F820AB03EB840567
:101D280045F80C0C204604F0A7F845F8180C204696
:101D380004F084F845F8240C0134E9E71E9E049663
:101D48001D9D701BFFF780F8804615901B9B1A9C01
:101D58000393181BFFF778F8019013901F990691C9
:101D6800481BFFF771F8834616901C980790001BD4
:101D7800FFF76AF882461490771907EBD7777F1038
:101D88001898059000FB00F0179E06FB06F9A0EBDB
:101D98000900FFF759F8089001464046FFF7A8F8F0
:101DA80009904146CDF808804046FFF7A1F88046E3
:101DB800DDF804C061466046FFF79AF801464046E0
:101DC800FEF78EFF804601460998FFF745F94FF068
:101DD8007C51FFF78DF809903846FFF735F80999D7
:101DE800FEF77CFF09900F90039B1F1907EBD7772D
:101DF8007F1008990198FFF77BF84146FFF72CF907
:101E08004FF07C51FFF774F880463846FFF71CF80E
:101E18004146FEF763FF0A900D90069AAF1807EB4C
:101E2800D7777F10199A0B9202FB02F0A0EB0900FA
:101E3800FFF70AF8089001465846FFF759F8814617
:101E480059465846FFF754F8804651465046FFF722
:101E58004FF801464046FEF743FF80460146484694
:101E6800FFF7FAF84FF07C51FFF742F88146384601
:101E7800FEF7EAFF4946FEF731FF81461090079BBF
:101E8800E71807EBD7777F1008995046FFF730F827
:101E98004146FFF7E1F84FF07C51FFF729F88046FB
:101EA8003846FEF7D1FF4146FEF718FF80460E90F0
:101EB80009990298FFF71CF807460A990198FFF755
:101EC80017F801463846FEF70BFF074611904946BA
:101ED8005846FFF70DF8814641465046FFF708F887
:101EE80001464846FEF7FCFE8046129039465046A9
:101EF800FEF7FEFF814641460198FEF7F9FF0146CD
:101F08004846FEF7EBFE814651460298FEF7F0FF81
:101F1800824659460198FEF7EBFF01465046FEF708
:101F2800DDFE824601464846FFF796F8FFF7A6F918
:101F3800814641460298FEF7DBFF804639465846FF
:101F4800FEF7D6FF01464046FEF7C8FE5146FFF7AA
:101F580083F8FFF793F982464FF0FF380023019387
:101F68004FF0000B4BE00137012F46DCA9EB0500D1
:101F78004044AAEB04033B4403FB03F300FB00309B
:101F8800FEF716FB04F098F8FEF72CFE8642EAD11D
:101F9800049BA9EB03004044039BAAEB03033B44C7
:101FA80003FB03F300FB0030FEF702FB04F084F8A8
:101FB800FEF718FE059B8342D5D1069BA9EB0300CB
:101FC8004044079BAAEB03033B4403FB03F300FBDA
:101FD8000030FEF7EDFA04F06FF8FEF703FE0B9BF6
:101FE8008342C0D13846FEF72FFF01460198FEF71D
:101FF80077FE01900BF1010BB5E708F10108B8F184
:10200800010F02DC4FF0FF37AEE75846FEF71CFF22
:1020180001460198FFF720F804465046FEF714FFE2
:102028002146FEF75DFE21B0BDE8F08F08B503F04C
:1020380099FE20B903F09EFEFEF702FF08BDFFF7E8
:10204800D1FCFBE708B503F08DFE20B903F098FE3C
:10205800FEF7F6FE08BDFFF757FEFBE7000000009D
:102068002DE9F04F83B080460F469B49FFF7DEF815
:1020780070B99A494046FFF7F7F848B99649384683
:10208800FFF7D4F820B995493846FFF7EDF810B1B5
:1020980003B0BDE8F08FFFF7C9FF01464046FEF7E1
:1020A8001DFE0446FFF7CEFF01463846FEF716FE32
:1020B800054621462046FEF71BFF064629462846C8
:1020C800FEF716FF01463046FEF70AFEFEF782FAD3
:1020D80003F0F2FFFEF7AEFD0646FFF7F5F8804B7A
:1020E8001B7813B14FF00009B9E003F04FFE8146A9
:1020F800B5E003F04BFE484540F3BD80C8E7794999
:102108003046FFF793F8002800F0BC80C0E7DFF8FE
:10211800D8A118E075493046FFF788F840B1BAF100
:10212800010F02D0DFF8C8A10DE0DFF8C8A10AE06E
:10213800BAF1010F02D0DFF8C0A104E0DFF8A4A1D2
:1021480001E0DFF8B8A103F009FCDFF8B4B1CBF87F
:1021580000002846FEF73EFACDE900012046FEF7CA
:1021680039FADDE9002303F0A5FF57A3D3E90023DB
:10217800FEF788FA04460D46DBF80010614B186834
:10218800FEF7ACFD834620462946FEF753FD594627
:10219800FFF768FAFFF788FAFFF796F80120FFF7CC
:1021A8009FF90120FFF7F2F90024032C0BDC2146EC
:1021B8005046FFF747FA0134F7E7DFF81CA1C2E7FA
:1021C800DFF844A1BFE7FFF785F8FEF703FA0446F6
:1021D8000D463046FEF7FEF93DA3D3E90023FEF78E
:1021E80051FA02460B4620462946FEF7BDFC50B17F
:1021F800142000F073FE3A4B1B78002BE3D103F058
:10220800C5FD4845DFDD0020FFF76AF90020FFF72C
:10221800BDF94FF4C87000F061FEFFF707FF0146F3
:102228004046FEF75BFD0446FFF70CFF01463846C3
:10223800FEF754FD054621462046FEF759FE0646A0
:1022480029462846FEF754FE01463046FEF748FD6B
:10225800FEF7C0F903F030FFFEF7ECFC06462B4909
:102268003046FFF701F800283FF412AF1C4B1B78EB
:10227800002B3FF43EAF1A4B93F800A0BAF1020FBF
:102288003FF43DAF20493046FEF7D0FF00287FF4E9
:1022980058AF14493046FEF7C9FF00288DD11C49B4
:1022A8003046FEF7C3FF00288AD11A493046FEF7A8
:1022B800BDFF00283FF42EAFBAF1010F3FF427AF5E
:1022C800DFF830A03FE700BFD9CEF753E3A54C4075
:1022D800666666666666E63F0000E0400000784392
:1022E800180500200000A041000050410000C8422D
:1022F8000000B841000088410000D841000040407B
:10230800200500201C050020000020410000A040FE
:102318000000F0410000484270B506460D461446DC
:10232800FFF784FE3060FFF78DFE2860002003F081
:1023380069FDFEF785FD2060012003F063FDFEF7CF
:102348007FFD606070BD00002DE9F04FA1B014AAB8
:102358001AA91DA8FFF7E0FF14AA1AA91DA8FFF7DC
:10236800DBFF00211D98FEF761FF0028F4D1002152
:102378001A98FEF75BFF0028EED1002400212046C2
:10238800FFF760F901212046FFF75CF9C24C0221F2
:102398002046FFF757F903212046FFF753F94FF07E
:1023A800FF30FFF79DF80120FFF7F0F8642000F0F8
:1023B80095FD16AA1BA91EA8FFF7AEFF1E98FEF7EB
:1023C8005DFF04461D98FEF759FF844208D11B980B
:1023D800FEF754FF04461A98FEF750FF8442E5D0F2
:1023E800642000F07BFD18AA1CA91FA8FFF794FF22
:1023F800DDF87C801E9F3846FEF740FF0446DDF876
:1024080074A05046FEF73AFF0546241A1C9B009319
:102418001846FEF733FF8346DDF868904846FEF716
:102428002DFF0646ABEB000B0BFB04F44046FEF712
:1024380025FF451BDDF86CB05846FEF71FFF861BCD
:1024480006FB05F5AC42CBD051463846FEF746FCB4
:102458000490129039464046FEF740FC05901390D0
:1024680049465846FEF73AFC0290109059460098A3
:10247800FEF734FC03901190169E149C21463046BA
:10248800FEF72CFCFEF7A6F881A3D3E90023FEF79C
:10249800F9F8CDE9060121463046FEF721FCFEF7A2
:1024A80099F804460D4602460B46DDE90601FEF79B
:1024B80013FA22462B46FEF70FFA04460D465146FC
:1024C8003846FEF70DFC01460498FEF711FD4FF063
:1024D8007C51FEF70DFDFEF77DF802460B46CDE96F
:1024E800062320462946FDF717FF04460D465946A0
:1024F8004846FEF7F5FB01460298FEF7F9FC4FF057
:102508007C51FEF7F5FCFEF765F802460B46CDE96F
:10251800082320462946FDF7FFFEFEF78BFB814680
:102528000C90189C31462046FEF7D8FBFEF752F86F
:1025380057A3D3E90023FEF7A5F8CDE90A01214600
:102548003046FEF7CDFBFEF745F804460D46024639
:102558000B46DDE90A01FEF7BFF922462B46FEF7D6
:10256800BBF904460D4639464046FEF7B9FB01461D
:102578000598FEF7BDFC4FF07C51FEF7B9FCFEF75D
:1025880029F802460B46CDE90A2320462946FDF7DD
:10259800C3FE04460D4659460098FEF7A1FB0146C6
:1025A8000398FEF7A5FC4FF07C51FEF7A1FCFEF75F
:1025B80011F802460B46CDE9002320462946FDF7CF
:1025C800ABFEFEF737FB06460E90DDF85C80159CE7
:1025D80021464046FEF782FBFDF7FCFF2CA3D3E91A
:1025E8000023FEF74FF882468B4621464046FEF709
:1025F80077FBFDF7EFFF04460D4602460B465046B3
:102608005946FEF769F922462B46FEF765F9024658
:102618000B46DDE90601FDF77FFE02460B46DDE9C4
:102628000801FDF779FEFEF705FB07460D90199C9A
:1026380041462046FEF752FBFDF7CCFF14A3D3E931
:102648000023FEF71FF882468B4621464046FEF7D8
:1026580047FBFDF7BFFF04460D4602460B465046B2
:102668005946FEF739F922462B46FEF735F9024658
:102678000B46DDE90A01FDF74FFE02460B46DDE990
:102688000001FDF749FEFEF7D5FA05460F9005E073
:102698000000000065CDDD410000A040DDF80C80A1
:1026A8004146DDF810A05046FEF722FC0446029988
:1026B800DDF814B05846FEF71BFC01462046FEF72D
:1026C8000DFB01464FF07E50FEF7C6FC0446494616
:1026D8004046FEF70DFC804631460298FEF708FC9E
:1026E80001464046FEF7FAFA2146FEF701FCDFF8FC
:1026F8007880C8F8000031465046FEF7F9FB0646D8
:1027080049465846FEF7F4FB01463046FEF7E6FA1E
:102718002146FEF7EDFB154E306039460398FEF76B
:10272800E7FB814629460298FEF7E2FB0146484648
:10273800FEF7D4FA2146FEF7DBFBC8F80400294669
:102748005046FEF7D5FB054639465846FEF7D0FBFE
:1027580001462846FEF7C2FA2146FEF7C9FB70601B
:1027680021B0BDE8F08F00BF2C0500203405002003
:1027780010B50020FEF70AFF0020FEF7B1FE4FF467
:10278800FA7000F0ABFB084C01220421204601F04E
:10279800D9FD4FF47A7000F0A1FB002204212046F5
:1027A80001F0D0FD10BD00BF001401402DE9F84F25
:1027B8000746FFF73BFC0546FFF744FC064603F0D7
:1027C800D1FA68B30024DFF8CC904FF001082EE06E
:1027D8000134072C5BDC304B04EB440203EB820A28
:1027E80053F822102846FEF779FA0146FEF780FBD7
:1027F8000746DAF804103046FEF770FA0146FEF78D
:1028080077FB01463846FEF76BFA0746014648460D
:10281800FEF72AFD0028DBD05FFA84F8B946D7E72F
:102828000024DFF870904FF00108D2E701340A2C39
:102838002DDC04EB4403184A02EB83031A89BBB26C
:102848009A42F3D1144B04EB440203EB820B53F886
:1028580022102846FEF742FA0146FEF749FB824657
:10286800DBF804103046FEF739FA0146FEF740FB64
:1028780001465046FEF734FA824601464846FEF7BE
:10288800F3FC0028D2D05FFA84F8D146CEE7404660
:10289800BDE8F88F286B6E4E18000020F8B5FFF7DA
:1028A800C5FB314D2968FEF719FA0446FFF7BEFB50
:1028B8002968FEF713FA01462046FEF719FB06467B
:1028C800FFF7C0FB294C2168FEF708FA0746FFF717
:1028D800B9FB2168FEF702FA01463846FEF708FB05
:1028E80001463046FEF7FCF90646FFF79FFB69688C
:1028F800FEF7F4F90746FFF799FB6968FEF7EEF96A
:1029080001463846FEF7F4FA0546FFF79BFB616877
:10291800FEF7E4F90746FFF795FB64682146FEF7E2
:10292800DDF901463846FEF7E3FA01462846FEF788
:10293800D7F901463046FEF779FC50B10B4D0A4CE9
:1029480029682068FFF78CFB69686068FFF788FBD7
:10295800F8BD054D21466868FFF782FB034B1968EF
:102968002868FFF77DFBF3E72C05002034050020DD
:102978002DE9F04387B000242DE0FFF757FB604DA9
:1029880055F83410FEF7AAF90646FFF74FFB55F83D
:102998003410FEF7A3F901463046FEF7A9FA0646B9
:1029A800FFF750FB05EBC4056968FEF797F9074682
:1029B800FFF748FB6968FEF791F901463846FEF7CC
:1029C80097FA01463046FEF78BF906AB03EB840312
:1029D80043F80C0C0134022CCFDD0024254600E01E
:1029E8000134022C0FDC06AB03EB840353F80C1CF8
:1029F80006AB03EB850353F80C0CFEF717FC002815
:102A0800EED12546ECE73E4B03EBC502516853F87F
:102A18003500FFF725FB002003F084F9FFF7A8FE37
:102A28000024A14600E00134022C31DCA542FAD092
:102A3800FFF7FCFA324E56F83410FEF74FF9074606
:102A4800FFF7F4FA56F83410FEF748F9014638460D
:102A5800FEF74EFA0746FFF7F5FA06EBC40671686B
:102A6800FEF73CF98046FFF7EDFA7168FEF736F994
:102A780001464046FEF73CFA01463846FEF730F973
:102A880006AB03EB890343F8140C09F10109CAE703
:102A980002990198FEF7CAFBB8B90224012618E08A
:102AA8000134022C29DCA542FAD0154B03EBC402F1
:102AB800516853F83400FFF7D3FAFFF759FE771C33
:102AC800304603F02FF93E46EAE700240126E8E7FE
:102AD800013C002C11DBA542FAD0094B03EBC402E0
:102AE800516853F83400FFF7BBFAFFF741FE771C33
:102AF800304603F017F93E46EAE707B0BDE8F08331
:102B0800000000202DE9F041002409E0204603F0F0
:102B180061F904EB4402144B03EB8203188101347E
:102B2800072CF3DD00241AE0204603F099F904F19C
:102B38000806FEF785F90C4D06EB460305EB8308FE
:102B480045F82300204603F097F9FEF779F9C8F80D
:102B58000400204603F03EF9A8F808000134022CCE
:102B6800E2DDBDE8F08100BF1800002000B583B0A9
:102B780003F014F98DF8040003F016F98DF8050038
:102B880003F01AF98DF8060003F01CF98DF8070018
:102B98000023184600E00133032B0DDC03F1080283
:102BA8006A4412F8041C00F108026A4412F8042C62
:102BB8009142F0D9D8B2EEE703B05DF804FB72B6E3
:102BC800FEE700B591B02822002106A803F0AAF973
:102BD8000023019302930393049305930122069221
:102BE8004FF4803307930A9202220D920E934FF40A
:102BF800E0130F9306A800F069FF80B90F23019333
:102C080002210291002303934FF4806204920593FA
:102C180001A801F09BF920B911B05DF804FBFFF79A
:102C2800CEFFFFF7CCFF000010B500F015FFFFF74F
:102C3800C8FF00F0D1F802F0C7F801F0DFFE01F09C
:102C480013FF01F043FF01F073FF01F0A3FF02F04F
:102C580057FE02F063F902F047F9544800F066FAAB
:102C6800534C0021204600F087FD0421204600F047
:102C780083FD0821204600F07FFD0C21204600F04E
:102C88007BFD3C214B4800F0F1FD3C214A4800F017
:102C9800EDFD3C21494800F0E9FD3C21484800F0A1
:102CA800E5FD4FF4FA7000F019F9464802F04AFEC3
:102CB800454802F0CBFFFEF77BFB1FE0FFF744FB24
:102CC800FFF7ECFD03F062F8022815D13F4B022212
:102CD8001A7011E00020FFF769FD3D4A00EB400340
:102CE80002EB830300EB4000596852F82000FFF71D
:102CF800B7F9364B03221A70012C1DD003F02CF8BB
:102D08000128FBD103F02EF810F0FF04F4D12F4B6B
:102D18001B78012BDED0022B08D0002BCED0002050
:102D2800FEF734FC0020FEF7DBFBE5E7FFF720FEAB
:102D3800264B01221A70DFE7264B1B78E3B103F01C
:102D480001F864281ED8214B1B781BB3012BD5D161
:102D5800FFF70CFFFFF72AFD1D4A00EB400302EBCB
:102D6800830300EB4000596852F82000FFF778F918
:102D7800164B00221A70C1E7FFF7C4FE154B01225B
:102D88001A70DCE703F002F80028DCD00F4B0122B0
:102D98001A70D8E7FFF7D8FAFFF780FD02F0F6FFC0
:102DA8000928ABD9094B01221A70A7E7A80500200A
:102DB80060050020F005002038060020800600206D
:102DC800C806002098070020DC070020180500200E
:102DD80018000020280500202DE9F04788B00024BD
:102DE8000494059406940794374B9A6942F020029C
:102DF8009A619A6902F020020092009A9A6942F058
:102E080004029A619A6902F004020192019A9A698D
:102E180042F008029A619A6902F008020292029A44
:102E28009A6942F010029A619B6903F010030393B8
:102E3800039BDFF898A0224646F20301504601F0B2
:102E480081FADFF88C9022464FF40041484601F0A1
:102E580079FADFF8808022464FF4E051404601F0CD
:102E680071FA1D4F22460421384601F06BFA46F2EA
:102E7800030304930126059606940225079504A9E1
:102E8800504601F03FF94FF4004304930596069429
:102E9800079504A9484601F035F94FF4E053049327
:102EA80005960694079504A9404601F02BF90423DA
:102EB800049305960694079504A9384601F022F96B
:102EC80008B0BDE8F08700BF00100240000C0140C8
:102ED80000080140001001400014014038B50546C3
:102EE80000F0D8FD044600F0D5FD001BA842FAD337
:102EF80038BDFEE7FEE7FEE7FEE7FEE770477047EE
:102F0800704708B500F0BAFD08BD000008B50248D2
:102F180001F090FB08BD00BF5407002008B5024827
:102F280001F088FB08BD00BF1007002008B5024863
:102F380000F03DF908BD00BFA805002008B502480B
:102F480002F048FB08BD00BF9807002010B5044CEC
:102F5800204602F03FFB204602F0D0F810BD00BF2B
:102F6800DC07002082B00E4B9A6942F001029A6198
:102F78009A6902F001020092009ADA6942F08052DE
:102F8800DA61DB6903F080530193019B054A5368BA
:102F980023F0E06343F00073536002B0704700BF52
:102FA800001002400000014030B4036A23F001031E
:102FB8000362036A4268846924F073040D682C4331
:102FC80023F0020C8B6843EA0C03104DA84203D08F
:102FD80005F50065A84205D123F00803CD682B4309
:102FE80023F00403094DA84203D005F50065A84263
:102FF80005D122F440724D692A438D692A43426003
:1030080084614A684263036230BC7047002C014007
:1030180030B4036A23F480730362036A4268C469A4
:1030280024F0730C0C6844EA0C0523F400738C68D4
:1030380043EA0423114CA04203D004F50064A042E3
:1030480006D123F40063CC6843EA042323F48063A5
:103058000A4CA04203D004F50064A04207D122F430
:1030680040524C6942EA04128C6942EA04124260F6
:10307800C5614A68C263036230BC7047002C0140D6
:1030880030B4036A23F480530362036A4468C26954
:1030980022F4E6420D6842EA052223F400538D68C3
:1030A80043EA0533094DA84203D005F50065A84257
:1030B80004D124F480444D6944EA85144460C26113
:1030C8004A680264036230BC704700BF002C0140AC
:1030D80010B4036A046A24F001040462846924F0C9
:1030E800F00C4CEA021223F00A030B4382610362DC
:1030F80010BC704710B4046A24F010040462846998
:10310800036A24F4704C4CEA023223F0A00343EA29
:1031180001138261036210BC7047836823F0700357
:103128000B4343F0070383607047000090F83D307D
:10313800DBB2012B2FD1022380F83D300268D3681F
:1031480043F00103D3600368154A934218D002F58F
:103158000062934214D0B3F1804F11D0A2F5983297
:1031680093420DD002F58062934209D002F5806245
:10317800934205D01A6842F001021A600020704795
:103188009A6802F00702062A07D01A6842F001027C
:103198001A6000207047012070470020704700BF68
:1031A800002C01407047704770477047704710B552
:1031B800044603681A6912F0020F11D0DA6812F097
:1031C800020F0DD06FF002021A6101230377036822
:1031D8009B6913F0030F70D0FFF7E6FF00232377F6
:1031E80023681A6912F0040F12D0DA6812F0040F7B
:1031F8000ED06FF004021A610223237723689B69BB
:1032080013F4407F5FD02046FFF7CEFF00232377DB
:1032180023681A6912F0080F12D0DA6812F0080F42
:103228000ED06FF008021A61042323772368DB6944
:1032380013F0030F4ED02046FFF7B6FF0023237785
:1032480023681A6912F0100F12D0DA6812F0100F02
:103258000ED06FF010021A61082323772368DB6908
:1032680013F4407F3DD02046FFF79EFF00232377CD
:1032780023681A6912F0010F03D0DA6812F0010FFF
:1032880036D123681A6912F0800F03D0DA6812F079
:10329800800F34D123681A6912F0400F03D0DA681E
:1032A80012F0400F32D123681A6912F0200F03D0B0
:1032B800DA6812F0200F30D110BDFFF774FF2046F6
:1032C800FFF773FF8AE72046FFF76DFF2046FFF7F9
:1032D8006CFF9BE72046FFF766FF2046FFF765FF78
:1032E800ACE72046FFF75FFF2046FFF75EFFBDE72C
:1032F8006FF001021A612046FEF78AFAC1E76FF003
:1033080080021A61204600F07FFBC3E76FF040029D
:103318001A612046FFF74AFFC5E76FF020021A61DD
:10332800204600F070FBC7E70368244A904212D099
:1033380002F5006290420ED0B0F1804F0BD0A2F59A
:103348009832904207D002F58062904203D002F58D
:103358008062904203D123F070034A681343174AEE
:10336800904212D002F5006290420ED0B0F1804F28
:103378000BD0A2F59832904207D002F580629042B5
:1033880003D002F58062904203D123F44073CA68E7
:10339800134323F080034A69134303608B68C362B5
:1033A8000B688362054B984203D003F5006398428B
:1033B80001D10B690363012343617047002C01406D
:1033C80040B310B5044690F83D30F3B1022384F8B9
:1033D8003D30214651F8040BFFF7A6FF012384F87E
:1033E800463084F83E3084F83F3084F8403084F822
:1033F800413084F8423084F8433084F8443084F80B
:10340800453084F83D30002010BD80F83C3001F094
:10341800F3FBDBE70120704740B310B5044690F892
:103428003D30F3B1022384F83D30214651F8040BB6
:10343800FFF77AFF012384F8463084F83E3084F899
:103448003F3084F8403084F8413084F8423084F8C2
:10345800433084F8443084F8453084F83D30002007
:1034680010BD80F83C30FFF79DFEDBE70120704778
:10347800002857D070B50D46044690F83D30002B13
:103488004BD0022384F83D302268936823F48043AC
:1034980023F007039360214651F8040BFFF744FF1C
:1034A80021688A688B690E6A2868104323F4407C77
:1034B8002CF0030CAA68AB6942EA032343EA0C0325
:1034C80023F47C4323F0FC03EA69D5F80CC04CEAEA
:1034D800022C4CEA030C2A6A13032A6943EA0213F2
:1034E80043EA0C0326F022066A686D6942EA05126F
:1034F8003243886021688B6123681A62012384F84B
:10350800463084F83E3084F83F3084F8423084F8FE
:10351800433084F83D30002070BD80F83C3001F025
:103528009BFBAEE70120704730B4036A23F0100319
:103538000362036A4468826922F4E6420D6842EA3B
:10354800052223F020038D6843EA0513114DA84294
:1035580003D005F50065A84206D123F08003CD68A5
:1035680043EA051323F040030A4DA84203D005F5AA
:103578000065A84207D124F440644D6944EA8504F3
:103588008D6944EA8504446082614A688263036203
:1035980030BC7047002C014038B590F83C30012B06
:1035A80060D004460D46012380F83C300C2A1AD816
:1035B800DFE802F0071919191D1919193119191914
:1035C80044000068FFF7F0FC2268936943F00803A1
:1035D80093612268936923F00403936122689369D5
:1035E80029690B439361002084F83C0038BD0068CA
:1035F800FFF79AFF2268936943F400639361226896
:10360800936923F48063936122689369296943EA83
:1036180001239361E7E70068FFF7FAFC2268D369A2
:1036280043F00803D3612268D36923F00403D3610C
:103638002268D36929690B43D361D4E70068FFF78F
:103648001FFD2268D36943F40063D3612268D369FC
:1036580023F48063D3612268D369296943EA01238B
:10366800D361C0E70220C1E710B4846824F47F4C1A
:1036780042EA03220A4342EA0C02826010BC704705
:1036880090F83C30012B66D010B50446012380F831
:103698003C30022380F83D300268936823F47F436E
:1036A80023F0770393600B68602B40D022D8402B1F
:1036B80047D00BD9502B0ED1CA6849680068FFF76C
:1036C80007FD50212068FFF728FD04E0202B0CD0CF
:1036D80008D9302B09D0012384F83D30002084F824
:1036E8003C0010BD0BB1102BF5D119462068FFF72F
:1036F80014FDF0E7702B0ED0B3F5005FEBD1CB686B
:103708004A6889680068FFF7AFFF2268936843F446
:1037180080439360DFE7CB684A6889680068FFF7F1
:10372800A3FF2268936843F077039360D3E7CA68DE
:1037380049680068FFF7DEFC60212068FFF7EDFCB0
:10374800C9E7CA6849680068FFF7C2FC40212068D9
:10375800FFF7E3FCBFE70220704701F01F010123D8
:1037680003FA01FC036A23EA0C030362036A02FA00
:1037780001F10B430362704710B50446084600295F
:103788003AD194F83E30DBB2013B18BF0123002B3D
:1037980066D1002849D1022384F83E30012201462F
:1037A8002068FFF7DAFF23682F4A934203D002F517
:1037B8000062934203D15A6C42F400425A6423686F
:1037C800294A934241D002F5006293423DD0B3F1B9
:1037D800804F3AD0A2F59832934236D002F58062F3
:1037E800934232D002F5806293422ED01A6842F09A
:1037F80001021A60002032E0042908D008290DD0FF
:1038080094F84130DBB2013B18BF0123BFE794F8BD
:103818003F30DBB2013B18BF0123B8E794F84030D2
:10382800DBB2013B18BF0123B1E7042805D0082803
:1038380007D0022384F84130B0E7022384F83F30F0
:10384800ACE7022384F84030A8E79A6802F0070240
:10385800062A07D01A6842F001021A60002010BD3B
:103868000120FCE70020FAE7002C014038B50446A7
:1038780090F83E00C0B294F83F3094F84220D2B29B
:1038880094F843C00D46B1B9012849D1012A48D15D
:10389800022384F83E3084F842307DB3042D39D0B9
:1038A800012200212068FFF758FF01220421206827
:1038B800FFF753FF27E0DBB25FFA8CFC042912D034
:1038C800012833D1012B2CD1012A31D1BCF1010FB0
:1038D80030D1022384F83E3084F83F3084F84230F7
:1038E80084F84330D9E7012B1CD1BCF1010F1BD15F
:1038F800022384F83F3084F84330CEE701220021C8
:103908002068FFF72AFF2268136843F00103136059
:10391800002006E0012204212068FFF71EFFF2E7DD
:10392800012038BD0120FCE71846FAE70120F8E736
:103938001846F6E71046F4E790F83C30012B34D0EF
:1039480010B4012380F83C30022380F83D3003682E
:103958005A689C6822F0700C0A6842EA0C025A60A5
:103968000368134A934212D002F5006293420ED0C4
:10397800B3F1804F0BD0A2F59832934207D002F5ED
:103988008062934203D002F58062934204D124F00E
:1039980080044A6814439C60012380F83D3000236A
:1039A80080F83C30184610BC70470220704700BFB2
:1039B800002C014090F83C30012B22D0012380F8E4
:1039C8003C30CB6823F440738A68134323F4806344
:1039D8004A68134323F400630A68134323F48053AB
:1039E8000A69134323F400534A69134323F48043B9
:1039F800CA69134302685364002380F83C301846B0
:103A080070470220704770477047000010B50446A1
:103A18000E4B18784FF47A73B3FBF0F30C4A106826
:103A2800B0FBF3F000F0D4FF68B90F2C01D90120E6
:103A38000AE0002221464FF0FF3000F083FF054BDB
:103A48001C60002000E0012010BD00BFAC00002079
:103A5800B4000020B000002008B5074A136843F0FE
:103A680010031360032000F05BFF0F20FFF7CEFF69
:103A7800FFF778FA002008BD00200240034A1168C9
:103A8800034B1B780B441360704700BF5C05002094
:103A9800AC000020014B1868704700BF5C0500208F
:103AA80082B0084B1B68084AA2FB03235B0A00FB91
:103AB80003F3019300BF019B5A1E0192002BF9D119
:103AC80002B07047B4000020D34D6210002800F007
:103AD800F18170B582B00446036813F0010F2CD051
:103AE800994B5B6803F00C03042B1DD0964B5B6865
:103AF80003F00C03082B12D06368B3F5803F41D064
:103B0800002B55D103F1804303F504331A6822F4DE
:103B180080321A601A6822F480221A6037E08A4BD1
:103B28005B6813F4803FE7D0874B1B6813F4003FB2
:103B380003D06368002B00F0BF81236813F0020FE5
:103B480075D0814B5B6813F00C0F5FD07E4B5B68C0
:103B580003F00C03082B54D02369002B00F08A8053
:103B68007A4B01221A60FFF795FF0546764B1B68D2
:103B780013F0020F75D1FFF78DFF401B0228F5D90E
:103B880003209EE1704A136843F48033136063682E
:103B980043B3FFF77FFF05466B4B1B6813F4003FE9
:103BA800CBD1FFF777FF401B6428F5D9032088E1C4
:103BB800B3F5A02F09D0644B1A6822F480321A603A
:103BC8001A6822F480221A60E1E703F18043A3F522
:103BD8003C331A6842F480221A601A6842F4803230
:103BE8001A60D4E7FFF756FF0546574B1B6813F4D6
:103BF800003FA2D0FFF74EFF401B6428F5D90320F1
:103C08005FE1514B5B6813F4803FA5D14E4B1B68B5
:103C180013F0020F03D02369012B40F04F814A4A69
:103C2800136823F0F803616943EAC103136023684A
:103C380013F0080F33D0A369002B5CD0434B01224B
:103C4800C3F88024FFF726FF05463F4B5B6A13F055
:103C5800020F21D1FFF71EFF401B0228F5D90320D0
:103C68002FE1394A136823F0F803616943EAC10375
:103C78001360DCE7354B00221A60FFF70BFF05469F
:103C8800314B1B6813F0020FD1D0FFF703FF401B25
:103C98000228F5D9032014E10120FFF701FF23686A
:103CA80013F0040F00F09680274BDB6913F0805F58
:103CB80034D1254BDA6942F08052DA61DB6903F0CE
:103CC80080530193019B0125214B1B6813F4807FCE
:103CD80026D0E368012B3DD0002B53D103F180435C
:103CE80003F504331A6A22F001021A621A6A22F0F2
:103CF80004021A6233E0154B0022C3F88024FFF750
:103D0800C9FE0546104B5B6A13F0020FC7D0FFF7D8
:103D1800C1FE401B0228F5D90320D2E00025D3E7D5
:103D28000B4A136843F480731360FFF7B3FE06462B
:103D3800074B1B6813F4807FCBD1FFF7ABFE801BCA
:103D48006428F5D90320BCE000100240000042427C
:103D5800007000405F4A136A43F001031362E3688E
:103D680033B3FFF797FE06465A4B1B6A13F0020F50
:103D78002FD1FFF78FFE801B41F288339842F3D989
:103D880003209EE0052B09D0524B1A6A22F001024B
:103D98001A621A6A22F004021A62E0E74D4B1A6AA4
:103DA80042F004021A621A6A42F001021A62D6E765
:103DB800FFF770FE0646474B1B6A13F0020F08D048
:103DC800FFF768FE801B41F288339842F3D903203D
:103DD80077E0E5B9E369002B72D03E4A526802F0F9
:103DE8000C02082A56D0022B17D03B4B00221A6629
:103DF800FFF750FE0446374B1B6813F0007F47D08F
:103E0800FFF748FE001B0228F5D9032059E0314A84
:103E1800D36923F08053D361DCE72F4B00221A6665
:103E2800FFF738FE05462B4B1B6813F0007F06D0C2
:103E3800FFF730FE401B0228F5D9032041E0236A32
:103E4800B3F5803F1AD023494B6823F47413226AD0
:103E5800606A024313434B601F4B01221A66FFF747
:103E680019FE04461B4B1B6813F0007F0ED1FFF7A9
:103E780011FE001B0228F5D9032022E0154A5368D9
:103E880023F40033A1680B435360DCE7002018E0FB
:103E9800002016E0012B16D00E4B5B6803F480312E
:103EA800226A914211D103F47013626A93420ED1CF
:103EB800002006E001207047012002E0012000E018
:103EC800002002B070BD0120FBE70120F9E70120C6
:103ED800F7E700BF001002400000424286B0174BCF
:103EE8000FCB0DF1180C0CE90F0040F20123ADF8CF
:103EF8000430134B5B6803F00C02082A02D0114807
:103F080006B07047C3F3834218326A4412F8100CA3
:103F180013F4803F0DD00A4B5B68C3F3404318335A
:103F28006B4413F8143C074A02FB00F0B0FBF3F0B3
:103F3800E6E7054B03FB00F0E2E700BFA0670008D7
:103F48000010024000127A0000093D00002800F02D
:103F5800A08070B50D460446524B1B6803F007035A
:103F68008B420BD24F4A136823F007030B431360AD
:103F7800136803F007038B4240F08D80236813F029
:103F8800020F17D013F0040F04D0474A536843F4C4
:103F9800E0635360236813F0080F04D0424A536863
:103FA80043F460535360404A536823F0F003A16818
:103FB8000B435360236813F0010F31D06368012B62
:103FC80020D0022B25D0384A126812F0020F64D094
:103FD80035494A6822F0030213434B60FFF75AFD44
:103FE8000646314B5B6803F00C036268B3EB820F43
:103FF80016D0FFF74FFD801B41F288339842F0D965
:10400800032045E0284A126812F4003FE0D101205D
:104018003EE0254A126812F0007FD9D1012037E02E
:10402800204B1B6803F00703AB420AD91D4A1368EB
:1040380023F007032B431360136803F00703AB4215
:104048002DD1236813F0040F06D0174A536823F4C0
:10405800E063E1680B435360236813F0080F07D04F
:10406800114A536823F46053216943EAC10353603A
:10407800FFF734FF0C4B5B68C3F303130B4AD35CA5
:10408800D8400B4B18600B4B1868FFF7BFFC00209B
:1040980070BD012070470120FAE70120F8E70120F0
:1040A800F6E700BF0020024000100240B467000895
:1040B800B4000020B0000020014B1868704700BF12
:1040C800B400002008B5FFF7F7FF044B5B68C3F3A3
:1040D8000223034AD35CD84008BD00BF0010024049
:1040E800C467000808B5FFF7E7FF044B5B68C3F334
:1040F800C223034AD35CD84008BD00BF0010024069
:10410800C467000870B582B00024A446B0E0874DAB
:10411800AA4210D007D9864DAA420CD005F58035A1
:10412800AA4208D013E0A5F58015AA4203D005F5E8
:104138007025AA4207D18A68002A62D0012A5BD07A
:104148004361082403E0A5F58015AA42F3D0BEF127
:10415800FF0F58D80646BEF1FF0F56D84FEA8C021B
:1041680033680F25954023EA050304FA02F2134346
:1041780033604B6813F0805F78D06E4B9A6942F0D9
:1041880001029A619B6903F001030193019B4FEAC5
:104198009C02951C684B53F825600CF003039D00A6
:1041A8000F23AB4026EA0306644B984233D003F54D
:1041B8008063984200F0988003F58063984200F08D
:1041C800958003F58063984200F0928003F5806340
:1041D800984200F08F8003F58063984219D0062337
:1041E8001AE0CC68B3E7CC680434B0E7CC6808348C
:1041F800ADE7CC680C34AAE703610824A7E70024DC
:10420800A5E70424A3E7061DA5E7ACF10802920080
:10421800A6E7052300E00023AB4033430232464DB6
:1042280045F822304B6813F4803F65D0444A136840
:1042380043EA0E0313604B6813F4003F62D0404A10
:10424800536843EA0E0353604B6813F4801F5FD032
:104258003B4A936843EA0E0393604B6813F4001FCC
:104268005CD0374AD36843EA0E03D3600CF1010CE3
:104278000A6832FA0CF357D0012303FA0CF302EA66
:10428800030E33EA0202F1D14A68122A3FF63FAF21
:10429800122A3FF65CAF01A555F822F03F4100080D
:1042A800EB410008F54100080742000857410008A3
:1042B8005741000857410008574100085741000876
:1042C8005741000857410008574100085741000866
:1042D8005741000857410008574100085741000856
:1042E800EF410008FB410008012395E7022393E70B
:1042F800032391E704238FE7114A136823EA0E0387
:10430800136098E70E4A536823EA0E0353609BE74D
:104318000B4A936823EA0E0393609EE7084AD36822
:1043280023EA0E03D360A1E702B070BD000022109B
:104338000000311000100240000001400008014058
:10434800000401400AB10161704709040161704726
:1043580030B40124056CAC40C56B6C6004686360C4
:104368004368102B05D0036899600368DA6030BC95
:10437800704703689A600368D960F8E700283AD064
:1043880010B4024600681D4B984229D81C4B0344C0
:104398001C49A1FB03131B099B0013641A4BD3632D
:1043A800022382F82130016821F47F5121F0300185
:1043B800536894682343D468234314692343546996
:1043C800234394692343D46923430B4303600020A8
:1043D8009063012382F8213082F8200010BC7047D6
:1043E8000A4B03440749A1FB03131B099B001364F1
:1043F800074BD363D4E70120704700BF070402408E
:10440800F8FFFDBFCDCCCCCC00000240F8FBFDBFCF
:104418000004024038B5044690F82000012831D045
:10442800012084F8200094F82100012804D00023FA
:1044380084F82030022038BD022084F821000020B2
:10444800A0632568286820F0010028602046FFF74F
:104458007FFFE36A5BB12268136843F00E031360C1
:104468002268136843F0010313600020E3E7226821
:10447800136823F0040313602268136843F00A03E7
:104488001360EDE70220D6E790F82130022B06D022
:1044980004238363002380F82030012070470268DA
:1044A800136823F00E0313600268136823F00103F6
:1044B8001360036CC16B012202FA03F34B6080F8AE
:1044C8002120002380F820301846704708B590F85E
:1044D8002130022B03D004238363012008BD026826
:1044E800136823F00E0313600268136823F00103B6
:1044F800136003684B4A93424ED9783A934224D0CA
:104508001432934230D0143293422FD01432934253
:104518002FD0143293422FD0143293422FD014321A
:1045280093422FD002F5627293422ED014329342F6
:104538002DD0143293422CD01432934202D04FF42F
:10454800803203E04FF4805200E00122364B5A607B
:10455800012380F82130002380F82030436B002BA2
:104568005ED098470020B9E71022EFE74FF4807239
:10457800ECE74FF48052E9E74FF48032E6E74FF476
:104588008012E3E74FF08072E0E70122DEE71022B5
:10459800DCE74FF48072D9E7244A934224D01432DE
:1045A800934225D01432934224D01432934224D01B
:1045B8001432934224D01432934224D014329342BA
:1045C80024D002F56272934223D01432934222D04F
:1045D8001432934221D01432934202D04FF48032E5
:1045E80003E04FF4805200E00122114B5A60AFE71C
:1045F8001022FAE74FF48072F7E74FF48052F4E79D
:104608004FF48032F1E74FF48012EEE74FF08072FA
:10461800EBE70122E9E71022E7E74FF48072E4E7CD
:1046280000205BE7800002400004024008000240CE
:104638000000024038B5C36B1A6804682568016C2D
:1046480004238B40134200F09B8015F0040F00F008
:104658009780236813F0200F03D1236823F0040305
:10466800236003689A4A934246D9783A934224D001
:104678001432934228D01432934227D014329342F2
:1046880027D01432934227D01432934227D01432C1
:10469800934227D002F56272934226D01432934295
:1046A80025D01432934224D01432934202D04FF4CE
:1046B800802203E04FF4804200E00422854B5A60D8
:1046C800C36A03B1984738BD4022F7E74FF48062C8
:1046D800F4E74FF48042F1E74FF48022EEE74FF41D
:1046E8008002EBE74FF08062E8E70422E6E7402229
:1046F800E4E74FF48062E1E7774A934224D014322A
:10470800934225D01432934224D01432934224D0B9
:104718001432934224D01432934224D01432934258
:1047280024D002F56272934223D01432934222D0ED
:104738001432934221D01432934202D04FF4802293
:1047480003E04FF4804200E00422644B5A60B7E76C
:104758004022FAE74FF48062F7E74FF48042F4E72B
:104768004FF48022F1E74FF48002EEE74FF08062C9
:10477800EBE70422E9E74022E7E74FF48062E4E749
:1047880002238B40134200F0AB8015F0020F00F0BB
:10479800A780236813F0200F06D1236823F00A03AB
:1047A8002360012380F821300368494A93424BD99A
:1047B800783A934224D0143293422DD01432934243
:1047C8002CD0143293422CD0143293422CD0143271
:1047D80093422CD0143293422CD002F56272934249
:1047E8002BD0143293422AD01432934229D0143257
:1047F800934202D04FF4003203E04FF4005200E03D
:104808000222344B5A60002380F82030836A002B40
:104818003FF459AF984756E72022F2E74FF4007269
:10482800EFE74FF40052ECE74FF40032E9E74FF4BA
:104838000012E6E74FF00072E3E70222E1E72022E8
:10484800DFE74FF40072DCE7234A934224D01432A6
:10485800934225D01432934224D01432934224D068
:104868001432934224D01432934224D01432934207
:1048780024D002F56272934223D01432934222D09C
:104888001432934221D01432934202D04FF40032B2
:1048980003E04FF4005200E00222104B5A60B2E7E6
:1048A8002022FAE74FF40072F7E74FF40052F4E7DA
:1048B8004FF40032F1E74FF40012EEE74FF00072C8
:1048C800EBE70222E9E72022E7E74FF40072E4E78A
:1048D800800002400004024008000240000002403C
:1048E800082303FA01F111423FF4EDAE15F0080F69
:1048F8003FF4E9AE236823F00E032360026CC16B1A
:10490800012303FA02F24A60836380F8213000230E
:1049180080F82030036B002B3FF4D5AE9847D2E6E1
:10492800074AD36823F4E0631B041B0C000200F45D
:10493800E060034343F0BF6343F40033D360704740
:1049480000ED00E000B5194BDB68C3F30223C3F1A7
:10495800070CBCF1040F28BF4FF0040C03F1040E40
:10496800BEF1060F18D9033B4FF0FF3E0EFA0CFCC0
:1049780021EA0C0199400EFA03F322EA03031943D2
:1049880000280BDB0901C9B200F1604000F5614065
:1049980080F800135DF804FB0023E5E700F00F0042
:1049A8000901C9B2024B1954F4E700BF00ED00E059
:1049B80014ED00E0002807DB00F01F024009012386
:1049C8009340024A42F82030704700BF00E100E0FF
:1049D8000138B0F1807F0BD24FF0E0235861054ACF
:1049E800F02182F823100020986107221A6170478D
:1049F8000120704700ED00E07047000000B587B067
:104A0800002302930393049305930093019315489D
:104A18004FF08042026047224260836044F61F6282
:104A2800C26003618361FEF7CBFC90B94FF48053F9
:104A3800029302A90B48FEF723FE68B900230093EE
:104A4800019369460748FEF777FF40B907B05DF85C
:104A580004FBFEF7B4F8E9E7FEF7B1F8EEE7FEF776
:104A6800AEF8F3E7A805002000B58DB02422002198
:104A780003A801F057FA0023019302931148124A40
:104A88000260436083604FF6FF72C2600361836116
:104A9800012303930593099303A9FEF7E9FC50B991
:104AA80000230193029301A90648FEF745FF28B9A0
:104AB8000DB05DF804FBFEF782F8F1E7FEF77FF82A
:104AC800F6E700BFF00500200004004000B58DB0F7
:104AD8002422002103A801F025FA00230193029360
:104AE8001148124A0260436083604FF6FF72C26049
:104AF80003618361012303930593099303A9FEF7D7
:104B0800B7FC50B900230193029301A90648FEF7A8
:104B180013FF28B90DB05DF804FBFEF750F8F1E774
:104B2800FEF74DF8F6E700BF380600200008004001
:104B380000B58DB02422002103A801F0F3F9002369
:104B4800019302931148124A0260436083604FF652
:104B5800FF72C26003618361012303930593099384
:104B680003A9FEF785FC50B900230193029301A91C
:104B78000648FEF7E1FE28B90DB05DF804FBFEF724
:104B88001EF8F1E7FEF71BF8F6E700BF80060020E5
:104B9800000C004000B58DB02422002103A801F0CC
:104BA800C1F90023019302931148124A026043603D
:104BB80083604FF6FF72C260036143618361012322
:104BC80003930593099303A9FEF752FC50B90023F8
:104BD8000193029301A90648FEF7AEFE28B90DB06D
:104BE8005DF804FBFDF7EBFFF1E7FDF7E8FFF6E7FB
:104BF800C80600200034014000B583B00368144A99
:104C0800934205D0B3F1804F0DD003B05DF804FB9B
:104C1800104B9A6942F400629A619B6903F400633D
:104C28000093009BF1E703F50433DA6942F00102CF
:104C3800DA61DB6903F001030193019B002211464D
:104C48001C20FFF77FFE1C20FFF7B4FEDDE700BF46
:104C5800002C01400010024000B58DB000230893DD
:104C680009930A930B9303683B4A93420BD03B4A40
:104C7800934222D03A4A934239D03A4A934250D08A
:104C88000DB05DF804FB384BDA6942F00202DA61D4
:104C9800DA6902F002020092009A9A6942F004026C
:104CA8009A619B6903F004030193019BC023089355
:104CB80008A92E48FFF726FAE2E72B4BDA6942F0FB
:104CC8000402DA61DA6902F004020292029A9A692D
:104CD80042F008029A619B6903F008030393039B5F
:104CE800C023089308A92248FFF70CFAC8E71E4B0F
:104CF800DA6942F00802DA61DA6902F0080204921D
:104D0800049A9A6942F004029A619B6903F00403C9
:104D18000593059B0323089308A91448FFF7F2F9A4
:104D2800AEE7114B9A6942F400529A619A6902F40B
:104D380000520692069A9A6942F010029A619B699B
:104D480003F010030793079BC023089308A9094899
:104D5800FFF7D8F994E700BF0004004000080040BE
:104D6800000C0040003401400010024000080140DF
:104D7800000C01400010014000B587B000230293E9
:104D880003930493059302680D4B9A4202D007B02F
:104D98005DF804FB03F564439A6942F004029A61E2
:104DA8009B6903F004030193019B4FF47063029322
:104DB80002230393059302A90248FFF7A3F9E6E744
:104DC800002C01400008014010B596B00024129450
:104DD8001394149415941094119409940A940B94B0
:104DE8000C940D940E940F942022214601A801F0F2
:104DF80099F83B483B4B036047234360846040F28B
:104E0800E733C360046144618461FEF7D9FA00287E
:104E18004BD14FF48053129312A93148FEF730FC5E
:104E2800002845D12E48FEF7F7FA002843D1002381
:104E38001093119310A92A48FEF77EFD00283DD152
:104E48006023099300220A920B920C920D920E9203
:104E58000F9209A92248FEF79FFB002831D10422AE
:104E680009A91F48FEF798FB70BB082209A91C482E
:104E7800FEF792FB58BB0C2209A91948FEF78CFBD8
:104E880040BB0023019302930393049305934FF4CB
:104E980000520692089301A91148FEF78BFDE0B96C
:104EA8000F48FFF769FF16B010BDFDF788FEB0E7A1
:104EB800FDF785FEB6E7FDF782FEB8E7FDF77FFE52
:104EC800BEE7FDF77CFECAE7FDF779FECDE7FDF703
:104ED80076FED0E7FDF773FED3E7FDF770FEDFE758
:104EE80060050020002C014008B50A480A4B036001
:104EF8004FF4E133436000238360C36003610C22F5
:104F080042618361C36100F0E9F900B908BDFDF7AA
:104F180056FEFBE7980700200044004008B50A4801
:104F28000A4B03604FF4E133436000238360C3609E
:104F380003610C2242618361C36100F0CFF900B9BB
:104F480008BDFDF73CFEFBE7DC07002000480040F9
:104F580070B588B00446002304930593069307931D
:104F680003684B4A934204D04A4A934247D008B058
:104F780070BD494BDA6942F40032DA61DA6902F449
:104F880000320092009A9A6942F004029A619B6981
:104F980003F004030193019B042304930223059364
:104FA800032307933D4E04A93046FFF7ABF80823C7
:104FB800049300250595069504A93046FFF7A2F845
:104FC8003748384B0360456085608023C3600561BE
:104FD800456185614FF40053C361FFF7CFF958B9B4
:104FE8002F4BA3635C62002211462620FFF7AAFC20
:104FF8002620FFF7DFFCBAE7FDF7E1FDF0E7264BD7
:10500800DA6942F48022DA61DA6902F480220292D3
:10501800029A9A6942F008029A619B6903F00803B0
:105028000393039B4FF480630493022305930323A4
:1050380007931D4E04A93046FFF764F84FF4006348
:10504800049300250595069504A93046FFF75AF8FC
:105058001648174B0360456085608023C36005616F
:10506800456185614FF44053C361FFF787F958B92B
:105078000E4BA3635C62002211462720FFF762FCF7
:105088002720FFF797FC72E7FDF799FDF0E700BFCF
:105098000044004000480040001002400008014061
:1050A800100700206C000240000C0140540700204B
:1050B8003000024008B5034B834200D008BD00F021
:1050C80049FDFBE79807002010B5094C204600F081
:1050D800A0F9084B1B685868C0B2C043C0B200F0C2
:1050E800C7FDFF220449204600F0EEFB10BD00BFBB
:1050F800DC07002054070020A408002002680C4B9D
:105108009A4200D070470B4B1B681A6812F0100FB8
:10511800F8D000B583B0002201921A6801925B684A
:105128000193019BFFF7D0FF03B05DF804FB00BFBC
:1051380000480040DC0700200268D36823F0C00361
:10514800D360202380F83D3070470268D36823F489
:105158009073D3600268536923F001035361036BB2
:10516800012B05D0202380F83E30002303637047CD
:105178000268D36823F01003D360F3E790F83D305A
:10518800DBB2212B01D0022070478368B3F5805F22
:1051980017D0036A5A1C02621A7803685A60C38CD3
:1051A8009BB2013B9BB2C3844BB90268D36823F01E
:1051B8008003D3600268D36843F04003D3600020C3
:1051C80070470369002BE4D1036A1B880268C3F3A4
:1051D80008035360036A02330362E0E710B504462C
:1051E8000268136923F44053C1680B431361836851
:1051F8000269134342691A430168CB6823F4B05328
:1052080023F00C031343CB600268536923F4407303
:1052180081690B4353610268134B9A4220D0FEF711
:1052280051FF024602EB820202EB820263689B0096
:10523800B2FBF3F20D48A0FB02314909642303FBDA
:1052480011231B013233A0FB03235B0903F0F00297
:1052580002EB011203F00F03216813448B6010BDA9
:10526800FEF740FF0246DDE7003801401F85EB519D
:105278002DE9F84305460F4616469946DDF8208085
:105288002C68246837EA04030CBF4FF0010C4FF078
:10529800000CB4451FD1B8F1FF3FF1D0B8F1000FB1
:1052A80005D0FEF7F7FBA0EB09004045E8D92A68CE
:1052B800D36823F4D073D3602A68536923F00103B9
:1052C8005361202385F83D3085F83E30002385F86A
:1052D8003C30032000E00020BDE8F88358B310B547
:1052E800044690F83D300BB3242384F83D302268FF
:1052F800D36823F40053D3602046FFF76FFF22687A
:10530800136923F4904313612268536923F02A0335
:1053180053612268D36843F40053D36000202064AB
:10532800202384F83D3084F83E3010BD80F83C30AE
:10533800FFF70EFED8E7012070472DE9F04182B053
:105348001E4690F83D30DBB2202B54D104460D4662
:105358009046002953D0002A53D090F83C30012BB6
:1053680051D0012380F83C3000230364212380F8C6
:105378003D30FEF78FFB0746A4F82480A4F826806A
:10538800A368B3F5805F05D04FF00008002384F8C8
:105398003C3012E0236913B14FF00008F6E7A84645
:1053A8000025F3E738F8023B2268C3F3080353608B
:1053B800E28C92B2013A92B2E284E38C9BB273B16E
:1053C80000963B46002280212046FFF751FFE0B9B6
:1053D800002DE7D015F8012B23685A60E8E70096FE
:1053E8003B46002240212046FFF742FF78B92023A0
:1053F80084F83D3000E0022002B0BDE8F0810120D1
:10540800FAE70120F8E70220F6E70320F4E7032093
:10541800F2E710B5044601684A6990F83D30DBB2FE
:10542800212B0AD021684A6902F0400294F83E30E4
:10543800DBB2222B11D0002010BD02F08002002A1E
:10544800F0D04B6923F080034B61406B08B1FFF744
:105458001BF82046FFF770FEE4E7002AEBD04B6903
:1054680023F040034B61A06B08B1FFF70DF820460D
:10547800FFF76BFEDFE7704708B50168CA6822F0DE
:105488004002CA60202280F83D20FFF7F4FF002088
:1054980008BD7047704710B5446A23685A6994F884
:1054A8003D30DBB2212B10D023685A6902F040024C
:1054B80094F83E30DBB2222B11D0236C43F010035A
:1054C80023642046FFF7E6FF10BD02F08002002AA1
:1054D800EAD00023E3842046FFF72EFEE4E7002A03
:1054E800EBD00023E3852046FFF72FFEE5E708B55C
:1054F800406A0023C385C384FFF7CCFF08BD70470B
:1055080090F83E30DBB2222B60D18368B3F5805F20
:1055180046D0826AB3F5805F04D0002B4DD1036971
:10552800002B4AD103685B681370836A0133836276
:10553800C38D9BB2013B9BB2C385002B48D100B5FC
:1055480083B00268D36823F02003D3600268D3686D
:1055580023F48073D3600268536923F00103536115
:10556800202380F83E30036B012B2CD100230363EA
:105578000268D36823F01003D36003681A6812F036
:10558800100F06D0002201921A6801925B680193FD
:10559800019B818DFFF7B3FF002003B05DF804FB8A
:1055A8000269002AB5D1826A03685B68C3F30803FD
:1055B8001380836A02338362BAE703685B6803F087
:1055C8007F031370B1E7FFF775FDE5E70220704729
:1055D8000020704730B583B0044602681368D0686D
:1055E800516913F00F0505D113F0200F02D010F008
:1055F800200F19D12DB111F0010119D110F4907FAC
:1056080016D1216B012975D013F0800F03D010F04B
:10561800800F40F0D78013F0400F03D010F0400FF8
:1056280040F0D48003B030BD2046FFF769FFF9E7AA
:1056380013F0010F06D010F4807F03D0226C42F0E3
:105648000102226413F0040F04D019B1226C42F055
:105658000202226413F0020F04D019B1226C42F046
:105668000402226413F0080F07D010F0200F00D1B5
:1056780019B1226C42F008022264226C002AD1D0AF
:1056880013F0200F02D010F0200F21D123685B699E
:1056980003F04003226C12F0080F00D123B3204618
:1056A800FFF753FD23685A6912F0400F18D05A6962
:1056B80022F040025A61A36B73B1464A5A63A06B49
:1056C800FEF704FF0028ADD0A06B436B9847A9E70D
:1056D8002046FFF715FFD9E72046FFF7DBFEA1E7D5
:1056E8002046FFF7D7FE9DE72046FFF7D3FE0023AD
:1056F800236497E713F0100F86D010F0100F83D0B3
:10570800002301931368019353680193019B536924
:1057180013F0400F32D0A16B0B685B689BB2002B73
:1057280080D0A08D98427FF67DAFE3858B69202BD2
:1057380008D1A18DE38D9BB2C91A89B22046FFF723
:10574800DEFE6FE7D36823F48073D3602268536961
:1057580023F0010353612268536923F04003536126
:10576800202384F83E30002323632268D36823F083
:105778001003D360A06BFEF787FEDAE7A18DE38DF7
:105788009BB2C91A89B2E38D9BB2002B3FF44AAF92
:1057980000293FF447AFD36823F49073D36022689D
:1057A800536923F001035361202384F83E3000231A
:1057B80023632268D36823F01003D3602046FFF7E1
:1057C8009EFE2FE72046FFF7D9FC2BE72046FFF780
:1057D80053FE27E7F754000808B5406A036B012B0E
:1057E80002D0FFF756FE08BD818D4908FFF787FEF6
:1057F800F9E708B50346406A1B681B6813F0200FD9
:1058080016D10023C3850268D36823F48073D3605C
:105818000268536923F0010353610268536923F056
:1058280040035361202380F83E30036B012B05D0E1
:10583800036B012B08D0FFF73DFC08BD0268D36855
:1058480023F01003D360F3E7818DFFF758FEF4E7E8
:1058580030B583B00446134681628285002505640D
:10586800222280F83E20826B14489062A26B144872
:10587800D062A26B13481063A26B556320680A4676
:10588800011DA06BFEF7C6FD019523681A680192F9
:105898005A680192019A84F83C50DA6842F480729E
:1058A800DA602268536943F001035361226853693F
:1058B80043F040035361284603B030BDFB5700084E
:1058C800E15700089F54000808B590F83E30DBB255
:1058D800202B0DD171B17AB190F83C30012B0DD04D
:1058E800012380F83C3000230363FFF7B1FF00E099
:1058F800022008BD0120FCE70120FAE70220F8E7B2
:1059080000B583B00E4B5A6942F001025A615B69D7
:1059180003F001030193019B002211460D20FFF7BC
:1059280011F80D20FFF746F8002211461020FFF766
:1059380009F81020FFF73EF803B05DF804FB00BF3C
:105948000010024008B5034B18600B220249FFF70C
:10595800BBFF08BD7008002064080020014B986850
:10596800704700BF2C08002038B5164CE078A378A3
:1059780043EA0020FBF768FA4FF06051FBF7B8FAEA
:105988001149FBF7B5FA114D28606079237943EA8C
:105998000020FBF759FA4FF06051FBF7A9FA0A49C2
:1059A800FBF7A6FA6860E079A37943EA0020FBF7E1
:1059B8004BFA4FF06051FBF79BFA0349FBF798FA53
:1059C800A86038BD4C080020000034432C08002093
:1059D80038B5274CE078A37843EA0020FBF734FA7F
:1059E8004FF06051FBF784FA4FF08341FBF780FAE0
:1059F800FAF7F0FD1CA3D3E90023FAF743FEFBF7FF
:105A080019F91C4D28606079237943EA0020FBF7D7
:105A18001BFA4FF06051FBF76BFA4FF08341FBF72D
:105A280067FAFAF7D7FD10A3D3E90023FAF72AFE9D
:105A3800FBF700F96860E079A37943EA0020FBF7F7
:105A480003FA4FF06051FBF753FA4FF08341FBF72D
:105A58004FFAFAF7BFFD04A3D3E90023FAF712FEC1
:105A6800FBF7E8F8A86038BD9A9999999999234065
:105A78004C0800202008002038B5164CE078A378A0
:105A880043EA0020FBF7E0F94FF06051FBF730FAEA
:105A98001149FBF72DFA114D28606079237943EA03
:105AA8000020FBF7D1F94FF06051FBF721FA0A49C2
:105AB800FBF71EFA6860E079A37943EA0020FBF758
:105AC800C3F94FF06051FBF713FA0349FBF710FADB
