:020000040800F2
:1000000000C000203D4F0008DF210008E12100086A
:10001000E3210008E5210008E721000800000000B6
:10002000000000000000000000000000E9210008BE
:10003000EB21000800000000ED210008EF2100087E
:10004000854F0008854F0008854F0008854F000840
:10005000854F0008854F0008854F0008854F000830
:10006000854F0008854F0008854F0008854F000820
:10007000854F0008F9210008854F0008854F0008CA
:1000800009220008854F0008854F0008854F0008A9
:10009000854F0008854F0008854F0008854F0008F0
:1000A000854F0008854F0008854F0008854F0008E0
:1000B00019220008854F0008854F0008854F000869
:1000C000854F0008854F0008854F0008854F0008C0
:1000D000854F0008854F00082922000839220008B2
:1000E000854F0008854F0008854F0008854F0008A0
:1000F000854F0008854F0008854F0008854F000890
:10010000854F0008854F0008854F0008854F00087F
:10011000854F0008854F0008854F0008854F00086F
:10012000854F0008854F0008854F0008854F00085F
:1001300000000000000000000000000000000000BF
:1001400000000000000000000000000000000000AF
:10015000000000000000000000000000000000009F
:10016000000000000000000000000000000000008F
:10017000000000000000000000000000000000007F
:10018000000000000000000000000000000000006F
:10019000000000000000000000000000000000005F
:1001A000000000000000000000000000000000004F
:1001B000000000000000000000000000000000003F
:1001C000000000000000000000000000000000002F
:1001D000000000000000000000000000000000001F
:0401E0005FF8E0F1F3
:1001E80010B5054C237833B9044B13B10448AFF369
:1001F80000800123237010BD4C0400200000000083
:10020800FC57000808B5034B1BB103490348AFF37B
:10021800008008BD0000000050040020FC570008C2
:10022800844641EA000313F0030349D1403A23D33B
:100238000B6803604B6843608B688360CB68C3605E
:100248000B6903614B6943618B698361CB69C36146
:100258000B6A03624B6A43628B6A8362CB6AC3622E
:100268000B6B03634B6B43638B6B8363CB6BC36316
:1002780040304031403ADBD230320BD30B68036058
:100288004B6843608B688360CB68C3601030103163
:10029800103AF3D20C3205D351F8043B40F8043B32
:1002A800043AF9D2043208D0D2071CBF11F8013B36
:1002B80000F8013B01D30B8803806046704700BFFC
:1002C800082A13D38B07B1D010F00303AED0C3F1C3
:1002D8000403D21ADB071CBF11F8013B00F8013BED
:1002E800A4D331F8023B20F8023B9FE7043AD9D364
:1002F800013A11F8013B00F8013BF9D20B78037081
:100308004B7843708B7883706046704781F000416A
:1003180002E000BF83F0004330B54FEA41044FEAE2
:10032800430594EA050F08BF90EA020F1FBF54EA7D
:10033800000C55EA020C7FEA645C7FEA655C00F019
:10034800E2804FEA5454D4EB5555B8BF6D420CDDEA
:100358002C4480EA020281EA030382EA000083EA6D
:10036800010180EA020281EA0303362D88BF30BD0D
:1003780011F0004F4FEA01314FF4801C4CEA113163
:1003880002D0404261EB410113F0004F4FEA0333C2
:100398004CEA133302D0524263EB430394EA050F4D
:1003A80000F0A780A4F10104D5F1200E0DDB02FABC
:1003B8000EFC22FA05F2801841F1000103FA0EF250
:1003C800801843FA05F359410EE0A5F120050EF116
:1003D800200E012A03FA0EFC28BF4CF0020C43FA47
:1003E80005F3C01851EBE37101F0004507D54FF054
:1003F800000EDCF1000C7EEB00006EEB0101B1F5A4
:10040800801F1BD3B1F5001F0CD349085FEA3000E9
:100418004FEA3C0C04F101044FEA445212F5800FF4
:1004280080F09A80BCF1004F08BF5FEA500C50F191
:10043800000041EB045141EA050130BD5FEA4C0C74
:10044800404141EB0101013C28BFB1F5801FE9D2D1
:1004580091F0000F04BF01460020B1FA81F308BFF4
:100468002033A3F10B03B3F120020CDA0C3208DDC0
:1004780002F1140CC2F10C0201FA0CF021FA02F19B
:100488000CE002F11402D8BFC2F1200C01FA02F10B
:1004980020FA0CFCDCBF41EA0C019040E41AA2BF30
:1004A80001EB0451294330BD6FEA04041F3C1CDAF8
:1004B8000C340EDC04F11404C4F1200220FA04F018
:1004C80001FA02F340EA030021FA04F345EA0301C2
:1004D80030BDC4F10C04C4F1200220FA02F001FA84
:1004E80004F340EA0300294630BD21FA04F0294606
:1004F80030BD94F0000F83F4801306BF81F480119F
:100508000134013D4EE77FEA645C18BF7FEA655C11
:1005180029D094EA050F08BF90EA020F05D054EAE3
:10052800000C04BF1946104630BD91EA030F1EBFE8
:100538000021002030BD5FEA545C05D140004941EC
:1005480028BF41F0004130BD14F580043CBF01F5DF
:10055800801130BD01F0004545F0FE4141F47001C5
:100568004FF0000030BD7FEA645C1ABF19461046A0
:100578007FEA655C1CBF0B46024650EA013406BFA1
:1005880052EA033591EA030F41F4002130BD00BF60
:1005980090F0000F04BF0021704730B54FF480641D
:1005A80004F132044FF000054FF0000150E700BF9E
:1005B80090F0000F04BF0021704730B54FF48064FD
:1005C80004F1320410F0004548BF40424FF00001EA
:1005D8003EE700BF42004FEAE2014FEA31014FEA2D
:1005E80002701FBF12F07F4393F07F4F81F060517C
:1005F800704732F07F4208BF704793F07F4F04BFC7
:1006080041F40021704730B54FF4607401F00045A3
:1006180021F000411CE700BF50EA010208BF704703
:1006280030B54FF000050AE050EA010208BF7047F4
:1006380030B511F0004502D5404261EB41014FF45D
:10064800806404F132045FEA915C3FF4D8AE4FF065
:1006580003025FEADC0C18BF03325FEADC0C18BF48
:10066800033202EBDC02C2F1200300FA03FC20FA99
:1006780002F001FA03FE40EA0E0021FA02F11444E6
:10068800BDE600BF70B54FF0FF0C4CF4E06C1CEAFF
:1006980011541DBF1CEA135594EA0C0F95EA0C0F70
:1006A80000F0DEF82C4481EA030621EA4C5123EAE3
:1006B8004C5350EA013518BF52EA033541F4801112
:1006C80043F4801338D0A0FB02CE4FF00005E1FBC5
:1006D80002E506F00042E0FB03E54FF00006E1FB0F
:1006E80003569CF0000F18BF4EF0010EA4F1FF0452
:1006F800B6F5007F64F5407404D25FEA4E0E6D4192
:1007080046EB060642EAC62141EA55514FEAC520A2
:1007180040EA5E504FEACE2EB4F1FD0C88BFBCF51E
:10072800E06F1ED8BEF1004F08BF5FEA500E50F1CF
:10073800000041EB045170BD06F0004646EA010195
:1007480040EA020081EA0301B4EB5C04C2BFD4EBC7
:100758000C0541EA045170BD41F480114FF0000EC0
:10076800013C00F3AB8014F1360FDEBF002001F02E
:10077800004170BDC4F10004203C35DA0C341BDCA8
:1007880004F11404C4F1200500FA05F320FA04F07A
:1007980001FA05F240EA020001F0004221F00041AE
:1007A80010EBD37021FA04F642EB06015EEA430E21
:1007B80008BF20EAD37070BDC4F10C04C4F1200551
:1007C80000FA04F320FA05F001FA04F240EA020004
:1007D80001F0004110EBD37041F100015EEA430ED5
:1007E80008BF20EAD37070BDC4F1200500FA05F2F5
:1007F8004EEA020E20FA04F301FA05F243EA020374
:1008080021FA04F001F0004121FA04F220EA020082
:1008180000EBD3705EEA430E08BF20EAD37070BDC8
:1008280094F0000F0FD101F00046400041EB0101A8
:1008380011F4801F08BF013CF7D041EA060195F08A
:10084800000F18BF704703F00046520043EB030344
:1008580013F4801F08BF013DF7D043EA0603704731
:1008680094EA0C0F0CEA135518BF95EA0C0F0CD03C
:1008780050EA410618BF52EA4306D1D181EA030182
:1008880001F000414FF0000070BD50EA410606BF7C
:100898001046194652EA430619D094EA0C0F02D1C1
:1008A80050EA013613D195EA0C0F05D152EA033606
:1008B8001CBF104619460AD181EA030101F0004124
:1008C80041F0FE4141F470014FF0000070BD41F06D
:1008D800FE4141F4780170BD70B54FF0FF0C4CF447
:1008E800E06C1CEA11541DBF1CEA135594EA0C0F66
:1008F80095EA0C0F00F0A7F8A4EB050481EA030EB3
:1009080052EA03354FEA013100F088804FEA033399
:100918004FF0805545EA131343EA12634FEA022267
:1009280045EA111545EA10654FEA00260EF0004128
:100938009D4208BF964244F1FD0404F5407402D27A
:100948005B084FEA3202B61A65EB03055B084FEA0B
:1009580032024FF480104FF4002CB6EB020E75EB08
:10096800030E22BFB61A754640EA0C005B084FEA30
:100978003202B6EB020E75EB030E22BFB61A7546AD
:1009880040EA5C005B084FEA3202B6EB020E75EBF8
:10099800030E22BFB61A754640EA9C005B084FEA70
:1009A8003202B6EB020E75EB030E22BFB61A75467D
:1009B80040EADC0055EA060E18D04FEA051545EA6C
:1009C80016754FEA06164FEAC30343EA52734FEA15
:1009D800C2025FEA1C1CC0D111F4801F0BD141EA8E
:1009E80000014FF000004FF0004CB6E711F4801FF3
:1009F80004BF01430020B4F1FD0C88BFBCF5E06FD3
:100A08003FF6AFAEB5EB030C04BFB6EB020C5FEAE2
:100A1800500C50F1000041EB045170BD0EF0004E37
:100A28004EEA113114EB5C04C2BFD4EB0C0541EA69
:100A3800045170BD41F480114FF0000E013C90E666
:100A480045EA060E8DE60CEA135594EA0C0F08BF2A
:100A580095EA0C0F3FF43BAF94EA0C0F0AD150EA29
:100A680001347FF434AF95EA0C0F7FF425AF1046BC
:100A780019462CE795EA0C0F06D152EA03353FF4E4
:100A8800FDAE1046194622E750EA410618BF52EA61
:100A980043067FF4C5AE50EA41047FF40DAF52EA35
:100AA80043057FF4EBAE12E74FF0FF3C06E000BFD2
:100AB8004FF0010C02E000BF4FF0010C4DF804CDDF
:100AC8004FEA410C7FEA6C5C4FEA430C18BF7FEA9F
:100AD8006C5C1BD001B050EA410C0CBF52EA430CCD
:100AE80091EA030F02BF90EA020F0020704710F14D
:100AF800000F91EA030F58BF994208BF90422CBFDC
:100B0800D8176FEAE37040F0010070474FEA410CD4
:100B18007FEA6C5C02D150EA013C07D14FEA430CF2
:100B28007FEA6C5CD6D152EA033CD3D05DF8040B63
:100B3800704700BF8446104662468C461946634695
:100B480000E000BF01B5FFF7B7FF002848BF10F16C
:100B5800000F01BD4DF808EDFFF7F4FF0CBF0120B1
:100B680000205DF808FB00BF4DF808EDFFF7EAFF2D
:100B780034BF012000205DF808FB00BF4DF808EDE8
:100B8800FFF7E0FF94BF012000205DF808FB00BFDD
:100B98004DF808EDFFF7CEFF94BF012000205DF867
:100BA80008FB00BF4DF808EDFFF7C4FF34BF012074
:100BB80000205DF808FB00BF4FEA410C7FEA6C5C3F
:100BC80002D150EA013C0AD14FEA430C7FEA6C5C3F
:100BD80002D152EA033C02D14FF0000070474FF0B7
:100BE800010070474A0011D212F5001211D20DD53A
:100BF8006FF47873B3EB62520ED44FEAC12343F01B
:100C0800004343EA505323FA02F070474FF00000C4
:100C1800704750EA013002D14FF0FF3070474FF073
:100C2800000070474FEA4102B2F1E04324BFB3F538
:100C3800001CDCF1FE5C0DD901F0004C4FEAC0024B
:100C48004CEA5070B2F1004F40EB830008BF20F02F
:100C58000100704711F0804F21D113F13872BCBFE9
:100C680001F00040704741F480114FEA5252C2F13E
:100C78001802C2F1200C10FA0CF320FA02F018BF87
:100C880040F001004FEAC1234FEAD32303FA0CFCDA
:100C980040EA0C0023FA02F34FEA4303CCE77FEA69
:100CA800625307D150EA01331EBF4FF0FE4040F4B3
:100CB8004000704701F0004040F0FE4040F4000062
:100CC800704700BF80F0004002E000BF81F00041A3
:100CD80042001FBF5FEA410392EA030F7FEA226CDA
:100CE8007FEA236C6AD04FEA1262D2EB1363C1BF6A
:100CF800D218414048404140B8BF5B42192B88BFD9
:100D0800704710F0004F40F4000020F07F4018BFFB
:100D1800404211F0004F41F4000121F07F4118BF1B
:100D2800494292EA030F3FD0A2F1010241FA03FCC3
:100D380010EB0C00C3F1200301FA03F100F00043AB
:100D480002D5494260EB4000B0F5000F13D3B0F173
:100D5800807F06D340084FEA310102F10102FE2AE2
:100D680051D2B1F1004F40EBC25008BF20F0010052
:100D780040EA03007047490040EB0000013A28BFF1
:100D8800B0F5000FEDD2B0FA80FCACF1080CB2EB74
:100D98000C0200FA0CF0AABF00EBC25052421843F2
:100DA800BCBFD0401843704792F0000F81F4000197
:100DB80006BF80F400000132013BB5E74FEA41036A
:100DC8007FEA226C18BF7FEA236C21D092EA030FD6
:100DD80004D092F0000F08BF0846704790EA010F50
:100DE8001CBF0020704712F07F4F04D1400028BF7D
:100DF80040F00040704712F100723CBF00F500005F
:100E0800704700F0004343F0FE4040F40000704794
:100E18007FEA226216BF08467FEA23630146420240
:100E280006BF5FEA412390EA010F40F48000704753
:100E38004FF0000304E000BF10F0004348BF4042F9
:100E48005FEA000C08BF704743F0964301464FF035
:100E580000001CE050EA010208BF70474FF0000391
:100E68000AE000BF50EA010208BF704711F00043D2
:100E780002D5404261EB41015FEA010C02BF8446A2
:100E88000146002043F0B64308BFA3F18053A3F501
:100E98000003BCFA8CF2083AA3EBC25310DB01FA48
:100EA80002FC634400FA02FCC2F12002BCF1004FCC
:100EB80020FA02F243EB020008BF20F0010070475D
:100EC80002F1200201FA02FCC2F1200250EA4C00B1
:100ED80021FA02F243EB020008BF20EADC707047F7
:100EE8004FF0FF0C1CEAD0521EBF1CEAD15392EA05
:100EF8000C0F93EA0C0F6FD01A4480EA010C4002E1
:100F080018BF5FEA41211ED04FF0006343EA50103A
:100F180043EA5111A0FB01310CF00040B1F5000F7C
:100F28003EBF490041EAD3715B0040EA010062F12B
:100F38007F02FD2A1DD8B3F1004F40EBC25008BF15
:100F480020F00100704790F0000F0CF0004C08BF33
:100F580049024CEA502040EA51207F3AC2BFD2F100
:100F6800FF0340EAC250704740F400004FF000030E
:100F7800013A5DDC12F1190FDCBF00F00040704748
:100F8800C2F10002410021FA02F1C2F1200200FA86
:100F980002FC5FEA310040F1000053EA4C0308BF4D
:100FA80020EADC70704792F0000F00F0004C02BF9E
:100FB800400010F4000F013AF9D040EA0C0093F019
:100FC800000F01F0004C02BF490011F4000F013B73
:100FD800F9D041EA0C018FE70CEAD15392EA0C0FE1
:100FE80018BF93EA0C0F0AD030F0004C18BF31F04C
:100FF800004CD8D180EA010000F00040704790F022
:10100800000F17BF90F0004F084691F0000F91F0C5
:10101800004F14D092EA0C0F01D142020FD193EA8B
:101028000C0F03D14B0218BF084608D180EA010013
:1010380000F0004040F0FE4040F40000704740F0EF
:10104800FE4040F4400070474FF0FF0C1CEAD052BD
:101058001EBF1CEAD15392EA0C0F93EA0C0F69D019
:10106800A2EB030280EA010C49024FEA402037D084
:101078004FF0805343EA111143EA10130CF000407B
:101088008B4238BF5B0042F17D024FF4000C8B426B
:1010980024BF5B1A40EA0C00B3EB510F24BFA3EB4B
:1010A800510340EA5C00B3EB910F24BFA3EB91031B
:1010B80040EA9C00B3EBD10F24BFA3EBD10340EA75
:1010C800DC001B0118BF5FEA1C1CE0D1FD2A3FF6BB
:1010D80050AF8B4240EBC25008BF20F00100704770
:1010E8000CF0004C4CEA50207F32C2BFD2F1FF0313
:1010F80040EAC250704740F400004FF00003013A44
:1011080037E792F0000F00F0004C02BF400010F4E7
:10111800000F013AF9D040EA0C0093F0000F01F0FB
:10112800004C02BF490011F4000F013BF9D041EA1D
:101138000C0195E70CEAD15392EA0C0F08D1420250
:101148007FF47DAF93EA0C0F7FF470AF084676E723
:1011580093EA0C0F04D14B023FF44CAF08466EE7FC
:1011680030F0004C18BF31F0004CCAD130F00042CA
:101178007FF45CAF31F000437FF43CAF5FE700BF22
:101188004FF0FF3C06E000BF4FF0010C02E000BF4B
:101198004FF0010C4DF804CD4FEA40024FEA4103ED
:1011A8007FEA226C18BF7FEA236C11D001B052EAA3
:1011B800530C18BF90EA010F58BFB2EB030088BF69
:1011C800C81738BF6FEAE17018BF40F001007047D8
:1011D8007FEA226C02D15FEA402C05D17FEA236CBA
:1011E800E4D15FEA412CE1D05DF8040B704700BF01
:1011F800844608466146FFE70FB5FFF7C9FF002898
:1012080048BF10F1000F0FBD4DF808EDFFF7F4FFD0
:101218000CBF012000205DF808FB00BF4DF808ED69
:10122800FFF7EAFF34BF012000205DF808FB00BF8C
:101238004DF808EDFFF7E0FF94BF012000205DF8AE
:1012480008FB00BF4DF808EDFFF7D2FF94BF01205F
:1012580000205DF808FB00BF4DF808EDFFF7C8FF58
:1012680034BF012000205DF808FB00BF4FEA4002B0
:10127800B2F1FE4F0FD34FF09E03B3EB12620DD9BC
:101288004FEA002343F0004310F0004F23FA02F026
:1012980018BF404270474FF00000704712F1610FCD
:1012A80001D1420205D110F0004008BF6FF00040A4
:1012B80070474FF00000704742000ED2B2F1FE4F67
:1012C8000BD34FF09E03B3EB126209D44FEA00230D
:1012D80043F0004323FA02F070474FF000007047D4
:1012E80012F1610F01D1420202D14FF0FF30704775
:1012F8004FF00000704700BF014B00221A60704792
:101308008C040020014B1868704700BF8C04002033
:10131800F8B50B46144601461846FFF7D7FC0546B4
:101328002649FFF7DDFD264E56F82410FFF7D0FCBE
:1013380046F824002349FFF78FFF10B1214A46F8E9
:101348002420214F57F824102846FFF7BFFC1B49DB
:10135800FFF77AFE064647F8245029461B4B53F8F8
:101368002400FFF7BDFD0546154B53F82410184B14
:1013780053F82400FFF7B4FD01462846FFF7A8FC00
:1013880005463146134B53F82400FFF7A9FD0146E3
:101398002846FFF79DFC05460F4B43F82400002123
:1013A800FFF73CFF30B90D492846FFF755FF10B14C
:1013B8000A4D00E000252846F8BD00BF0000A04106
:1013C800740400200000FA45A004002038580008E2
:1013D80028580008185800089004002000006144AC
:1013E80038B503F095FB04462F49FFF72DFE2F4B28
:1013F80018602F492046FFF711FF002830D12D49EA
:101408002046FFF729FF002847D10124132C46DC8A
:1014180003F07EFB2449FFF717FE0146234D286899
:10142800FFF756FC28600134F0E71F492046FFF714
:101438000BFE01461D4C2068FFF74AFC2060013571
:10144800132D2CDC03F064FB04461A49FFF704FF54
:101458000028EAD018492046FFF738FC0446E4E79C
:101468000125EDE710492046FFF7EEFD01460F4C38
:101478002068FFF72DFC20600135132D0FDC03F0E9
:1014880047FB04460A49FFF7C9FE0028EAD00A4983
:101498002046FFF71DFC0446E4E70125EDE7034B72
:1014A8001A68064B1A6038BD0000A0418804002065
:1014B80000007042000096430000B44384040020FA
:1014C80010B503F025FB0E4B1968FFF7FFFB044628
:1014D8000C49FFF7C1FE30B10B492046FFF7F6FB78
:1014E8000446204610BD09492046FFF797FE00280C
:1014F800F7D005492046FFF7EBFB0446F1E700BFAC
:1015080088040020000034430000B443000034C3C2
:1015180038B50446274D00224FF48051284602F082
:1015280083F800224FF40061284602F07DF8A5F503
:10153800806500220121284602F076F80022022167
:10154800284602F071F8012C1CD0B4F1FF3F25D0D9
:10155800184C01224FF48051204602F065F8012210
:101568004FF40061204602F05FF8A4F58064012280
:101578001146204602F058F801220221204602F0C6
:1015880053F838BD01224FF480510A4802F04CF854
:1015980001220221284602F047F8F2E701224FF41F
:1015A8000061044802F040F801221146024802F0A6
:1015B8003BF8E6E700100140000C014038B504464E
:1015C800294D00224FF40051284602F02DF8002240
:1015D8004FF48041284602F027F800224FF480613A
:1015E800224802F021F800224FF40041204802F07E
:1015F8001BF8012C1ED0B4F1FF3F28D01B4C012250
:101608004FF40051204602F00FF801224FF48041B8
:10161800204602F009F8A4F5806401224FF48061A5
:10162800204602F001F801224FF40041204601F063
:10163800FBFF38BD01224FF40051284601F0F4FFAA
:1016480001224FF400410A4801F0EEFFF1E70122C0
:101658004FF48041044801F0E7FF01224FF4806114
:10166800024801F0E1FFE4E7000C014000100140EE
:101678000008014038B504460D460021FFF7ECFD8F
:1016880018B1034B43F8254038BD0024F9E700BFE3
:101698000000002010B5FFF71BFB04460B49FFF7BD
:1016A800BDFD30B10A492046FFF712FB044620462B
:1016B80010BD08492046FFF7CFFD0028F7D00449A0
:1016C8002046FFF703FB0446F1E700BF000034C3E0
:1016D8000000B4430000344338B505460020FFF746
:1016E8006DFF0020FFF714FF03F012FA344C20605E
:1016F8004FF4FA7000F064FD29462068FFF7CAFF2E
:101708002060FFF7DDFE0021FFF788FD40B90120CA
:10171800FFF7FEFE4FF0FF30FFF750FF00242BE0ED
:101728004FF0FF30FFF7F4FE0120FFF747FF0024DA
:1017380004E021462348FFF79DFF0134032CF8DD20
:10174800FFF7BEFE2049FFF769FD0028F8D106E043
:1017580021461E48FFF78EFF0134032CF8DDFFF702
:10176800AFFE1B49FFF75AFDF8B10024F5E7214603
:101778001448FFF77FFF0134032CF8DDFFF7A0FEC4
:101788001449FFF769FD0028F8D106E021460F4803
:10179800FFF770FF0134032CF8DDFFF791FE0E49C7
:1017A800FFF75AFD08B10024F5E70020FFF7B0FE67
:1017B8000020FFF703FF4FF4FA7000F001FD38BD79
:1017C800880400200000C040000048C200004040DB
:1017D8000000A0C0000048420000A0400000000037
:1017E8002DE9F84F0368B3F1804F01D0BDE8F88FB9
:1017F800654BD3F800C0DCF82400644B19684F6AC5
:10180800634B1A68566A634B1B685D6A47F6A47493
:10181800A04202D9C0F57F40FF3047F6A474A74222
:1018280002D9C7F57F47FF3747F6A474A64202D905
:10183800C6F57F46FF3647F6A474A54202D9C5F51A
:101848007F45FF350024CCF824404C6254625C622A
:10185800FFF7EEFA5049FFF743FB5049FFF7F4FB57
:10186800FEF7B8FE44A3D3E90023FEF70BFFFFF70A
:10187800D9F983463846FFF7DBFA4749FFF730FBCB
:101888004749FFF7E1FBFEF7A5FE3BA3D3E9002399
:10189800FEF7F8FEFFF7C6F982463046FFF7C8FAAA
:1018A8003D49FFF71DFB3E49FFF7CEFBFEF792FED1
:1018B80031A3D3E90023FEF7E5FEFFF7B3F90746A6
:1018C8002846FFF7B5FA3449FFF70AFB3549FFF711
:1018D800BBFBFEF77FFE28A3D3E90023FEF7D2FE69
:1018E800FFF7A0F9054651465846FFF7F1F9394682
:1018F800FFF7EEF92946FFF7EBF9FEF76BFE20A399
:10190800D3E90023FEF7BEFE80468946264E30689E
:10191800FEF760FE42464B46FEF7FEFCFFF782F9F3
:101928003060224E224631685846FFF7F1FCFFF737
:101938009DFC0446012271685046FFF7E9FCFFF759
:1019480095FC80460222B1683846FFF7E1FCFFF7B4
:101958008DFC07460322F1682846FFF7D9FCFFF7FC
:1019680085FC134B1B685C63C3F83880DF6318641D
:101978003CE700BFAFF30080666666666666344083
:101988009A9999999999893F440500208C050020D6
:10199800D40500201C0600200000A04100000544DA
:1019A80000C00444008004448C040020000000208F
:1019B800B40400202DE9F04F87B0002408E0204649
:1019C80003F0A6FA06AB03EB440323F8080C013432
:1019D800022CF4DDBDF81080BDF81200A8EB000061
:1019E800614BDC8804FB04005E8806FB06F9A0EB6B
:1019F80009009F8807FB07001D8805FB05FAA0EB77
:101A08000A00FEF7D5FD0022584BFEF73BFECDE954
:101A18000201A01BFEF7CCFD03460C46CDE90034BD
:101A280002460B46DDE90201FEF756FFFFF7FAF81A
:101A38000446781BFEF7BCFDDDE90023FEF74CFFEA
:101A4800FFF7F0F807460146FFF742F983463046AC
:101A5800FFF7F2F95946FFF743FA064621462046B2
:101A6800FFF736F900903946FFF73AFA0146304653
:101A7800FFF72CF906466800FFF7DEF90146304605
:101A8800FFF724F98346FEF7A5FD02460B46FEF74D
:101A9800F9FDCDE9020139463846FFF721FA4FF042
:101AA8007E51FFF715F907464FF08141FFF718FA05
:101AB800064621462046FFF713FA04465046FFF72C
:101AC800BBF92146FFF704F904464846FFF7B4F985
:101AD8002146FFF7FDF804462846FFF7ADF90099BF
:101AE800FFF7FEF901462046FFF7F0F804464046A6
:101AF800FFF7A2F901462046FFF7E8F8014630460D
:101B0800FFF7EEF9FEF766FD02460B46DDE9020136
:101B1800FEF700FCFFF786F806460BF10040FEF7DB
:101B280059FD04460D463046FEF754FD03F016FBFA
:101B380002460B4620462946FEF7EEFB00220B4BD9
:101B4800FEF7A0FD04460D463846FEF743FD024663
:101B58000B4620462946FEF7BFFEFFF743F880B242
:101B680007B0BDE8F08F00BF680400200000E03F28
:101B78002DE9F04F89B0002408E0204603F0C8F9A9
:101B880008AB03EB440323F8080C0134022CF4DD02
:101B9800BDF81890BDF81A00A9EB0000674BDE8865
:101BA80006FB06005D8805FB05F20492801AB3F86F
:101BB80004A00AFB0A001C8804FB04FBA0EB0B0032
:101BC800FEF7F6FC00225E4BFEF75CFDCDE9000156
:101BD800701BFEF7EDFC06460F4602460B46DDE994
:101BE8000001FEF779FEFFF71DF88046AAEB040016
:101BF800FEF7DEFC32463B46FEF76EFEFFF712F8B4
:101C080006460146FFF764F807462846FFF714F929
:101C18003946FFF765F9054641464046FFF758F84B
:101C280000903146FFF75CF901462846FFF74EF869
:101C380005466000FFF700F901462846FFF746F819
:101C48000546FEF7C7FC02460B46FEF71BFDCDE92D
:101C5800020131463046FFF743F94FF07E51FFF756
:101C680037F882464FF08141FFF73AF9059041462F
:101C78004046FFF735F907465846FFF7DDF839467D
:101C8800FFF726F807460498FFF7D6F83946FFF716
:101C98001FF807462046FFF7CFF80099FFF720F90D
:101CA80001463846FFF712F804464846FFF7C4F8DD
:101CB80001462046FFF70AF801460598FFF710F994
:101CC800FEF788FC02460B46DDE90201FEF722FB1F
:101CD800FEF7A8FF074605F10040FEF77BFC044627
:101CE8000D463846FEF776FC03F038FA02460B46F6
:101CF80020462946FEF710FB0022114BFEF7C2FCD6
:101D080004460D465046FEF765FC02460B46204643
:101D18002946FEF7E1FDFEF765FF80B2FFF78CF874
:101D28003146FFF7DDF801464046FEF7CFFFFFF7E3
:101D3800C3FA80B209B0BDE8F08F00BF6804002084
:101D48000000E03F08B503F0CFF810B903F0D4F86D
:101D580008BDFFF72FFEFBE708B503F0C5F810B97B
:101D680003F0D0F808BDFFF703FFFBE70000000011
:101D78002DE9F04780460F4604216F4801F05AFCD0
:101D8800FFF7E0FFFFF758F801464046FEF79EFFD1
:101D98008246FFF7E1FFFFF74FF801463846FEF7A6
:101DA80095FF044651465046FFF79AF805462146E6
:101DB8002046FFF795F801462846FEF789FFFEF70B
:101DC80009FC03F0CBF9FEF72DFF0646FFF794FA5E
:101DD80086E0DFF868912046FEF7FCFB04460D46D6
:101DE8005046FEF7F7FB22462B4603F0B5F94EA303
:101DF800D3E90023FEF746FC04460D46504B19680C
:101E0800504B1868FEF762FF824620462946FEF7C7
:101E180009FF5146FFF73EFCFFF75EFCFFF76CFA3F
:101E28000120FFF775FB0120FFF7C8FB0024032CF6
:101E380011DC21464846FFF71DFC0134F7E7DFF8BF
:101E48000891C8E7DFF80491C5E7DFF80491C2E715
:101E5800142000F0B5F9FFF755FAFEF7BBFB04466E
:101E68000D463046FEF7B6FB31A3D3E90023FEF753
:101E780009FC02460B4620462946FEF775FE002857
:101E8800E6D1FFF745FB0020FFF798FB4FF47A7087
:101E980000F096F9FFF756FFFEF7CEFF01464046E1
:101EA800FEF714FF8246FFF757FFFEF7C5FF01460E
:101EB8003846FEF70BFF044651465046FFF710F828
:101EC800054621462046FFF70BF801462846FEF74F
:101ED800FFFEFEF77FFB03F041F9FEF7A3FE06467F
:101EE80016493046FFF7B8F9D8B117493046FFF719
:101EF80095F900287FF46DAF16493046FFF78EF943
:101F080000289CD114493046FFF788F9002899D158
:101F180012493046FFF782F9002896D0DFF8409042
:101F280059E7BDE8F08700BFD9CEF753E3A54C4089
:101F38009A9999999999E93F001401400000A040A5
:101F48008804002084040020000020410000704123
:101F58000000C8410000F041000048420000C842AB
:101F68000000A04172B6FEE700B591B0282200211A
:101F780006A803F029F8002301930293039304931E
:101F88000593012206924FF4803307930A920222A6
:101F98000D920E934FF4E0130F9306A800F008FF7C
:101FA80080B90F23019302210291002303934FF478
:101FB80080620492059301A801F03AF920B911B0A2
:101FC8005DF804FBFFF7CEFFFFF7CCFF08B500F084
:101FD800B5FEFFF7C9FF00F071F802F071F801F0E3
:101FE80089FE01F0BDFE01F0EDFE01F01DFF01F0DC
:101FF8004DFF02F05FFD02F00DF902F0F1F8234801
:1020080000F006FA224C0021204600F027FD0421AA
:10201800204600F023FD0821204600F01FFD0C217A
:10202800204600F01BFD3C211A4800F091FD3C21A0
:10203800194800F08DFD3C21184800F089FD3C212D
:10204800174800F085FD4FF4FA7000F0B9F815480C
:1020580002F052FD144802F0D5FEFFF7C1F902F074
:102068003DFF0128FBD1114C21462046FFF780FE99
:102078000F480146FFF77CFE21462046FFF778FE11
:102088000C490D48FFF774FEE9E700BFFC04002087
:10209800B4040020440500208C050020D40500204D
:1020A8001C060020EC060020300700200000FE423D
:1020B8000000704100002A43000020432DE9F0474A
:1020C80088B000240494059406940794374B9A69C1
:1020D80042F020029A619A6902F020020092009A66
:1020E8009A6942F004029A619A6902F00402019224
:1020F800019A9A6942F008029A619A6902F0080204
:102108000292029A9A6942F010029A619B6903F05E
:1021180010030393039BDFF898A0224646F20301BD
:10212800504601F081FADFF88C9022464FF40041C6
:10213800484601F079FADFF8808022464FF4E051F2
:10214800404601F071FA1D4F22460421384601F03D
:102158006BFA46F2030304930126059606940225BA
:10216800079504A9504601F03FF94FF40043049342
:1021780005960694079504A9484601F035F94FF4E9
:10218800E053049305960694079504A9404601F088
:102198002BF90423049305960694079504A9384659
:1021A80001F022F908B0BDE8F08700BF0010024036
:1021B800000C0140000801400010014000140140DB
:1021C80038B5054600F0D8FD044600F0D5FD001BE3
:1021D800A842FAD338BDFEE7FEE7FEE7FEE7FEE7D2
:1021E80070477047704708B500F0BAFD08BD000099
:1021F80008B5024801F09AFB08BD00BFA8060020F8
:1022080008B5024801F092FB08BD00BF6406002033
:1022180008B5024800F03DF908BD00BFFC040020E5
:1022280008B5024802F0B0FA08BD00BFEC0600206D
:1022380010B5044C204602F0A7FA204602F0DAF85E
:1022480010BD00BF3007002082B00E4B9A6942F0E3
:1022580001029A619A6902F001020092009ADA6911
:1022680042F08052DA61DB6903F080530193019BED
:10227800054A536823F0E06343F00073536002B0EB
:10228800704700BF001002400000014030B4036AEC
:1022980023F001030362036A4268846924F073042B
:1022A8000D682C4323F0020C8B6843EA0C03104D95
:1022B800A84203D005F50065A84205D123F008031C
:1022C800CD682B4323F00403094DA84203D005F53C
:1022D8000065A84205D122F440724D692A438D69F0
:1022E8002A43426084614A684263036230BC704793
:1022F800002C014030B4036A23F480730362036A3C
:102308004268C46924F0730C0C6844EA0C0523F491
:1023180000738C6843EA0423114CA04203D004F5EF
:102328000064A04206D123F40063CC6843EA042386
:1023380023F480630A4CA04203D004F50064A04251
:1023480007D122F440524C6942EA04128C6942EAED
:1023580004124260C5614A68C263036230BC7047B8
:10236800002C014030B4036A23F480530362036AEB
:102378004468C26922F4E6420D6842EA052223F461
:1023880000538D6843EA0533094DA84203D005F58B
:102398000065A84204D124F480444D6944EA8514B8
:1023A8004460C2614A680264036230BC704700BF7F
:1023B800002C014010B4036A046A24F0010404628A
:1023C800846924F0F00C4CEA021223F00A030B4350
:1023D8008261036210BC704710B4046A24F01004D0
:1023E80004628469036A24F4704C4CEA023223F0D4
:1023F800A00343EA01138261036210BC704783683B
:1024080023F070030B4343F0070383607047000019
:1024180090F83D30DBB2012B2FD1022380F83D30FC
:102428000268D36843F00103D3600368154A9342F6
:1024380018D002F50062934214D0B3F1804F11D046
:10244800A2F5983293420DD002F58062934209D0EA
:1024580002F58062934205D01A6842F001021A60C0
:10246800002070479A6802F00702062A07D01A6807
:1024780042F001021A6000207047012070470020D6
:10248800704700BF002C0140704770477047704785
:10249800704710B5044603681A6912F0020F11D08C
:1024A800DA6812F0020F0DD06FF002021A610123F0
:1024B800037703689B6913F0030F70D0FFF7E6FFFB
:1024C8000023237723681A6912F0040F12D0DA6800
:1024D80012F0040F0ED06FF004021A610223237762
:1024E80023689B6913F4407F5FD02046FFF7CEFF37
:1024F8000023237723681A6912F0080F12D0DA68CC
:1025080012F0080F0ED06FF008021A610423237727
:102518002368DB6913F0030F4ED02046FFF7B6FFA0
:102528000023237723681A6912F0100F12D0DA6893
:1025380012F0100F0ED06FF010021A6108232377E3
:102548002368DB6913F4407F3DD02046FFF79EFFE8
:102558000023237723681A6912F0010F03D0DA6881
:1025680012F0010F36D123681A6912F0800F03D0D8
:10257800DA6812F0800F34D123681A6912F0400F1C
:1025880003D0DA6812F0400F32D123681A6912F0CA
:10259800200F03D0DA6812F0200F30D110BDFFF7FA
:1025A80074FF2046FFF773FF8AE72046FFF76DFFA9
:1025B8002046FFF76CFF9BE72046FFF766FF2046A3
:1025C800FFF765FFACE72046FFF75FFF2046FFF700
:1025D8005EFFBDE76FF001021A612046FFF700F9C0
:1025E800C1E76FF080021A61204600F07FFBC3E765
:1025F8006FF040021A612046FFF74AFFC5E76FF007
:1026080020021A61204600F070FBC7E70368244ADD
:10261800904212D002F5006290420ED0B0F1804F85
:102628000BD0A2F59832904207D002F58062904212
:1026380003D002F58062904203D123F070034A6808
:102648001343174A904212D002F5006290420ED00E
:10265800B0F1804F0BD0A2F59832904207D002F526
:102668008062904203D002F58062904203D123F445
:102678004073CA68134323F080034A691343036015
:102688008B68C3620B688362054B984203D003F5DD
:102698000063984201D10B690363012343617047CA
:1026A800002C014040B310B5044690F83D30F3B11A
:1026B800022384F83D30214651F8040BFFF7A6FFAA
:1026C800012384F8463084F83E3084F83F3084F89B
:1026D800403084F8413084F8423084F8433084F83C
:1026E800443084F8453084F83D30002010BD80F82F
:1026F8003C3001F0FDFBDBE70120704740B310B52B
:10270800044690F83D30F3B1022384F83D30214669
:1027180051F8040BFFF77AFF012384F8463084F858
:102728003E3084F83F3084F8403084F8413084F8F3
:10273800423084F8433084F8443084F8453084F8D3
:102748003D30002010BD80F83C30FFF79DFEDBE7F0
:1027580001207047002857D070B50D46044690F800
:102768003D30002B4BD0022384F83D30226893681B
:1027780023F4804323F007039360214651F8040BA8
:10278800FFF744FF21688A688B690E6A286810433E
:1027980023F4407C2CF0030CAA68AB6942EA0323BB
:1027A80043EA0C0323F47C4323F0FC03EA69D5F8DD
:1027B8000CC04CEA022C4CEA030C2A6A13032A695F
:1027C80043EA021343EA0C0326F022066A686D699D
:1027D80042EA05123243886021688B6123681A62D5
:1027E800012384F8463084F83E3084F83F3084F87A
:1027F800423084F8433084F83D30002070BD80F8C2
:102808003C3001F0A5FBAEE70120704730B4036A05
:1028180023F010030362036A4468826922F4E642E3
:102828000D6842EA052223F020038D6843EA051368
:10283800114DA84203D005F50065A84206D123F042
:102848008003CD6843EA051323F040030A4DA842EC
:1028580003D005F50065A84207D124F440644D690A
:1028680044EA85048D6944EA8504446082614A68C3
:102878008263036230BC7047002C014038B590F881
:102888003C30012B60D004460D46012380F83C30D3
:102898000C2A1AD8DFE802F0071919191D19191995
:1028A8003119191944000068FFF7F0FC2268936990
:1028B80043F0080393612268936923F0040393614A
:1028C8002268936929690B439361002084F83C00CE
:1028D80038BD0068FFF79AFF2268936943F40063E4
:1028E80093612268936923F48063936122689369F2
:1028F800296943EA01239361E7E70068FFF7FAFCD7
:102908002268D36943F00803D3612268D36923F0AE
:102918000403D3612268D36929690B43D361D4E7DF
:102928000068FFF71FFD2268D36943F40063D36191
:102938002268D36923F48063D3612268D369296943
:1029480043EA0123D361C0E70220C1E710B48468D9
:1029580024F47F4C42EA03220A4342EA0C028260D2
:1029680010BC704790F83C30012B66D010B5044677
:10297800012380F83C30022380F83D3002689368D8
:1029880023F47F4323F0770393600B68602B40D0D8
:1029980022D8402B47D00BD9502B0ED1CA68496892
:1029A8000068FFF707FD50212068FFF728FD04E0C5
:1029B800202B0CD008D9302B09D0012384F83D30C6
:1029C800002084F83C0010BD0BB1102BF5D119463E
:1029D8002068FFF714FDF0E7702B0ED0B3F5005F09
:1029E800EBD1CB684A6889680068FFF7AFFF2268B7
:1029F800936843F480439360DFE7CB684A6889684B
:102A08000068FFF7A3FF2268936843F07703936099
:102A1800D3E7CA6849680068FFF7DEFC60212068D0
:102A2800FFF7EDFCC9E7CA6849680068FFF7C2FC10
:102A380040212068FFF7E3FCBFE70220704701F060
:102A48001F01012303FA01FC036A23EA0C03036252
:102A5800036A02FA01F10B430362704710B504469A
:102A6800084600293AD194F83E30DBB2013B18BF42
:102A78000123002B66D1002849D1022384F83E3077
:102A8800012201462068FFF7DAFF23682F4A9342A4
:102A980003D002F50062934203D15A6C42F400421B
:102AA8005A642368294A934241D002F5006293424E
:102AB8003DD0B3F1804F3AD0A2F59832934236D048
:102AC80002F58062934232D002F5806293422ED0A2
:102AD8001A6842F001021A60002032E0042908D086
:102AE80008290DD094F84130DBB2013B18BF01230F
:102AF800BFE794F83F30DBB2013B18BF0123B8E7CA
:102B080094F84030DBB2013B18BF0123B1E7042839
:102B180005D0082807D0022384F84130B0E7022303
:102B280084F83F30ACE7022384F84030A8E79A687D
:102B380002F00702062A07D01A6842F001021A605A
:102B4800002010BD0120FCE70020FAE7002C01401E
:102B580038B5044690F83E00C0B294F83F3094F877
:102B68004220D2B294F843C00D46B1B9012849D1E8
:102B7800012A48D1022384F83E3084F842307DB3DC
:102B8800042D39D0012200212068FFF758FF0122C7
:102B980004212068FFF753FF27E0DBB25FFA8CFCC3
:102BA800042912D0012833D1012B2CD1012A31D18B
:102BB800BCF1010F30D1022384F83E3084F83F3055
:102BC80084F8423084F84330D9E7012B1CD1BCF19A
:102BD800010F1BD1022384F83F3084F84330CEE73D
:102BE800012200212068FFF72AFF2268136843F0BA
:102BF80001031360002006E0012204212068FFF78A
:102C08001EFFF2E7012038BD0120FCE71846FAE76D
:102C18000120F8E71846F6E71046F4E790F83C304C
:102C2800012B34D010B4012380F83C30022380F803
:102C38003D3003685A689C6822F0700C0A6842EAC2
:102C48000C025A600368134A934212D002F50062DC
:102C580093420ED0B3F1804F0BD0A2F59832934235
:102C680007D002F58062934203D002F58062934256
:102C780004D124F080044A6814439C60012380F83E
:102C88003D30002380F83C30184610BC70470220C5
:102C9800704700BF002C014090F83C30012B22D037
:102CA800012380F83C30CB6823F440738A681343CF
:102CB80023F480634A68134323F400630A681343C8
:102CC80023F480530A69134323F400534A691343D6
:102CD80023F48043CA69134302685364002380F8CD
:102CE8003C30184670470220704770477047000014
:102CF80010B504460E4B18784FF47A73B3FBF0F313
:102D08000C4A1068B0FBF3F000F0DEFF68B90F2C36
:102D180001D901200AE0002221464FF0FF3000F0DF
:102D28008DFF054B1C60002000E0012010BD00BF96
:102D380010000020180000201400002008B5074AE1
:102D4800136843F010031360032000F065FF0F20A1
:102D5800FFF7CEFFFFF778FA002008BD00200240F9
:102D6800034A1168034B1B780B441360704700BF7C
:102D7800B004002010000020014B1868704700BF05
:102D8800B004002082B0084B1B68084AA2FB03234A
:102D98005B0A00FB03F3019300BF019B5A1E0192DB
:102DA800002BF9D102B0704718000020D34D6210F3
:102DB800002800F0F18170B582B00446036813F072
:102DC800010F2CD0994B5B6803F00C03042B1DD02A
:102DD800964B5B6803F00C03082B12D06368B3F5BD
:102DE800803F41D0002B55D103F1804303F50433D4
:102DF8001A6822F480321A601A6822F480221A6053
:102E080037E08A4B5B6813F4803FE7D0874B1B6839
:102E180013F4003F03D06368002B00F0BF812368E0
:102E280013F0020F75D0814B5B6813F00C0F5FD065
:102E38007E4B5B6803F00C03082B54D02369002BEE
:102E480000F08A807A4B01221A60FFF795FF054649
:102E5800764B1B6813F0020F75D1FFF78DFF401BEF
:102E68000228F5D903209EE1704A136843F48033A1
:102E78001360636843B3FFF77FFF05466B4B1B681E
:102E880013F4003FCBD1FFF777FF401B6428F5D937
:102E9800032088E1B3F5A02F09D0644B1A6822F407
:102EA80080321A601A6822F480221A60E1E703F17E
:102EB8008043A3F53C331A6842F480221A601A68EA
:102EC80042F480321A60D4E7FFF756FF0546574BA5
:102ED8001B6813F4003FA2D0FFF74EFF401B642885
:102EE800F5D903205FE1514B5B6813F4803FA5D10E
:102EF8004E4B1B6813F0020F03D02369012B40F0DF
:102F08004F814A4A136823F0F803616943EAC10311
:102F18001360236813F0080F33D0A369002B5CD02B
:102F2800434B0122C3F88024FFF726FF05463F4B99
:102F38005B6A13F0020F21D1FFF71EFF401B022826
:102F4800F5D903202FE1394A136823F0F8036169A2
:102F580043EAC1031360DCE7354B00221A60FFF730
:102F68000BFF0546314B1B6813F0020FD1D0FFF75A
:102F780003FF401B0228F5D9032014E10120FFF7C5
:102F880001FF236813F0040F00F09680274BDB69DC
:102F980013F0805F34D1254BDA6942F08052DA6150
:102FA800DB6903F080530193019B0125214B1B68CA
:102FB80013F4807F26D0E368012B3DD0002B53D13A
:102FC80003F1804303F504331A6A22F001021A62FE
:102FD8001A6A22F004021A6233E0154B0022C3F881
:102FE8008024FFF7C9FE0546104B5B6A13F0020FF9
:102FF800C7D0FFF7C1FE401B0228F5D90320D2E055
:103008000025D3E70B4A136843F480731360FFF776
:10301800B3FE0646074B1B6813F4807FCBD1FFF73E
:10302800ABFE801B6428F5D90320BCE000100240E9
:1030380000004242007000405F4A136A43F00103F7
:103048001362E36833B3FFF797FE06465A4B1B6AD1
:1030580013F0020F2FD1FFF78FFE801B41F2883348
:103068009842F3D903209EE0052B09D0524B1A6AE7
:1030780022F001021A621A6A22F004021A62E0E7D8
:103088004D4B1A6A42F004021A621A6A42F00102AF
:103098001A62D6E7FFF770FE0646474B1B6A13F025
:1030A800020F08D0FFF768FE801B41F28833984270
:1030B800F3D9032077E0E5B9E369002B72D03E4AE3
:1030C800526802F00C02082A56D0022B17D03B4B4C
:1030D80000221A66FFF750FE0446374B1B6813F0B0
:1030E800007F47D0FFF748FE001B0228F5D90320D0
:1030F80059E0314AD36923F08053D361DCE72F4B81
:1031080000221A66FFF738FE05462B4B1B6813F0A2
:10311800007F06D0FFF730FE401B0228F5D90320B8
:1031280041E0236AB3F5803F1AD023494B6823F462
:103138007413226A606A024313434B601F4B0122D7
:103148001A66FFF719FE04461B4B1B6813F0007F35
:103158000ED1FFF711FE001B0228F5D9032022E04B
:10316800154A536823F40033A1680B435360DCE726
:10317800002018E0002016E0012B16D00E4B5B68EB
:1031880003F48031226A914211D103F47013626A08
:1031980093420ED1002006E001207047012002E092
:1031A800012000E0002002B070BD0120FBE70120F3
:1031B800F9E70120F7E700BF001002400000424293
:1031C80086B0174B0FCB0DF1180C0CE90F0040F22D
:1031D8000123ADF80430134B5B6803F00C02082A96
:1031E80002D0114806B07047C3F3834218326A44CC
:1031F80012F8100C13F4803F0DD00A4B5B68C3F330
:10320800404318336B4413F8143C074A02FB00F0A0
:10321800B0FBF3F0E6E7054B03FB00F0E2E700BF85
:10322800485800080010024000127A0000093D00CA
:10323800002800F0A08070B50D460446524B1B686C
:1032480003F007038B420BD24F4A136823F007039E
:103258000B431360136803F007038B4240F08D8023
:10326800236813F0020F17D013F0040F04D0474A55
:10327800536843F4E0635360236813F0080F04D0E5
:10328800424A536843F460535360404A536823F0FA
:10329800F003A1680B435360236813F0010F31D08A
:1032A8006368012B20D0022B25D0384A126812F00F
:1032B800020F64D035494A6822F0030213434B6079
:1032C800FFF75AFD0646314B5B6803F00C03626852
:1032D800B3EB820F16D0FFF74FFD801B41F2883306
:1032E8009842F0D9032045E0284A126812F4003FBA
:1032F800E0D101203EE0254A126812F0007FD9D1C2
:10330800012037E0204B1B6803F00703AB420AD9C2
:103318001D4A136823F007032B431360136803F057
:103328000703AB422DD1236813F0040F06D0174AC8
:10333800536823F4E063E1680B435360236813F098
:10334800080F07D0114A536823F46053216943EAF0
:10335800C1035360FFF734FF0C4B5B68C3F30313DF
:103368000B4AD35CD8400B4B18600B4B1868FFF71F
:10337800BFFC002070BD012070470120FAE7012042
:10338800F8E70120F6E700BF0020024000100240E5
:103398005C5800081800002014000020014B186831
:1033A800704700BF1800002008B5FFF7F7FF044B6F
:1033B8005B68C3F30223034AD35CD84008BD00BF4F
:1033C800001002406C58000808B5FFF7E7FF044BEF
:1033D8005B68C3F3C223034AD35CD84008BD00BF6F
:1033E800001002406C58000870B582B00024A44652
:1033F800B0E0874DAA4210D007D9864DAA420CD01A
:1034080005F58035AA4208D013E0A5F58015AA4233
:1034180003D005F57025AA4207D18A68002A62D030
:10342800012A5BD04361082403E0A5F58015AA4270
:10343800F3D0BEF1FF0F58D80646BEF1FF0F56D89D
:103448004FEA8C0233680F25954023EA050304FAF6
:1034580002F2134333604B6813F0805F78D06E4BF1
:103468009A6942F001029A619B6903F00103019392
:10347800019B4FEA9C02951C684B53F825600CF0A1
:1034880003039D000F23AB4026EA0306644B9842D2
:1034980033D003F58063984200F0988003F5806389
:1034A800984200F0958003F58063984200F092807E
:1034B80003F58063984200F08F8003F5806398429B
:1034C80019D006231AE0CC68B3E7CC680434B0E717
:1034D800CC680834ADE7CC680C34AAE7036108244B
:1034E800A7E70024A5E70424A3E7061DA5E7ACF198
:1034F80008029200A6E7052300E00023AB4033430F
:103508000232464D45F822304B6813F4803F65D0AF
:10351800444A136843EA0E0313604B6813F4003FF0
:1035280062D0404A536843EA0E0353604B6813F471
:10353800801F5FD03B4A936843EA0E0393604B6851
:1035480013F4001F5CD0374AD36843EA0E03D360F4
:103558000CF1010C0A6832FA0CF357D0012303FA74
:103568000CF302EA030E33EA0202F1D14A68122A86
:103578003FF63FAF122A3FF65CAF01A555F822F09F
:1035880023340008CF340008D9340008EB3400088D
:103598003B3400083B3400083B3400083B34000847
:1035A8003B3400083B3400083B3400083B34000837
:1035B8003B3400083B3400083B3400083B34000827
:1035C8003B340008D3340008DF340008012395E7B2
:1035D800022393E7032391E704238FE7114A136833
:1035E80023EA0E03136098E70E4A536823EA0E0392
:1035F80053609BE70B4A936823EA0E0393609EE7A8
:10360800084AD36823EA0E03D360A1E702B070BD6D
:10361800000022100000311000100240000001409C
:1036280000080140000401400AB101617047090423
:1036380001617047C36801EA030221EA030141EA14
:1036480002410161704730B40124056CAC40C56B80
:103658006C60046863604368102B05D00368996048
:103668000368DA6030BC704703689A600368D96001
:10367800F8E7000000283AD010B4024600681D4B55
:10368800984229D81C4B03441C49A1FB03131B096E
:103698009B0013641A4BD363022382F8213001681C
:1036A80021F47F5121F03001536894682343D46892
:1036B8002343146923435469234394692343D469F6
:1036C80023430B43036000209063012382F82130D9
:1036D80082F8200010BC70470A4B03440749A1FB3D
:1036E80003131B099B001364074BD363D4E7012022
:1036F800704700BF07040240F8FFFDBFCDCCCCCC1B
:1037080000000240F8FBFDBF0004024038B5044643
:1037180090F82000012831D0012084F8200094F886
:103728002100012804D0002384F82030022038BD6D
:10373800022084F821000020A0632568286820F072
:10374800010028602046FFF77EFFE36A5BB122682C
:10375800136843F00E0313602268136843F00103F3
:1037680013600020E3E72268136823F00403136062
:103778002268136843F00A031360EDE70220D6E7D6
:1037880090F82130022B06D004238363002380F8AD
:103798002030012070470268136823F00E0313607D
:1037A8000268136823F001031360036CC16B0122E4
:1037B80002FA03F34B6080F82120002380F82030C0
:1037C8001846704708B590F82130022B03D004231F
:1037D8008363012008BD0268136823F00E03136099
:1037E8000268136823F00103136003684B4A93428D
:1037F8004ED9783A934224D01432934230D01432BE
:1038080093422FD0143293422FD0143293422FD0A8
:10381800143293422FD0143293422FD002F56272A1
:1038280093422ED0143293422DD0143293422CD08E
:103838001432934202D04FF4803203E04FF48052A6
:1038480000E00122364B5A60012380F82130002322
:1038580080F82030436B002B5ED098470020B9E7F2
:103868001022EFE74FF48072ECE74FF48052E9E75B
:103878004FF48032E6E74FF48012E3E74FF08072AE
:10388800E0E70122DEE71022DCE74FF48072D9E797
:10389800244A934224D01432934225D014329342BE
:1038A80024D01432934224D01432934224D01432B8
:1038B800934224D01432934224D002F56272934288
:1038C80023D01432934222D01432934221D014329E
:1038D800934202D04FF4803203E04FF4805200E06C
:1038E8000122114B5A60AFE71022FAE74FF48072B9
:1038F800F7E74FF48052F4E74FF48032F1E74FF4E2
:103908008012EEE74FF08072EBE70122E9E7102220
:10391800E7E74FF48072E4E700205BE780000240AD
:1039280000040240080002400000024038B5C36BA2
:103938001A6804682568016C04238B40134200F060
:103948009B8015F0040F00F09780236813F0200F78
:1039580003D1236823F00403236003689A4A93423F
:1039680046D9783A934224D01432934228D014325C
:10397800934227D01432934227D01432934227D04F
:103988001432934227D01432934227D002F5627240
:10399800934226D01432934225D01432934224D035
:1039A8001432934202D04FF4802203E04FF4804255
:1039B80000E00422854B5A60C36A03B1984738BDBA
:1039C8004022F7E74FF48062F4E74FF48042F1E7D2
:1039D8004FF48022EEE74FF48002EBE74FF080626D
:1039E800E8E70422E6E74022E4E74FF48062E1E7F3
:1039F800774A934224D01432934225D0143293420A
:103A080024D01432934224D01432934224D0143256
:103A1800934224D01432934224D002F56272934226
:103A280023D01432934222D01432934221D014323C
:103A3800934202D04FF4802203E04FF4804200E02A
:103A48000422644B5A60B7E74022FAE74FF48062D9
:103A5800F7E74FF48042F4E74FF48022F1E74FF4A0
:103A68008002EEE74FF08062EBE70422E9E74022AC
:103A7800E7E74FF48062E4E702238B40134200F04B
:103A8800AB8015F0020F00F0A780236813F0200F19
:103A980006D1236823F00A032360012380F821302C
:103AA8000368494A93424BD9783A934224D0143256
:103AB80093422DD0143293422CD0143293422CD0FE
:103AC800143293422CD0143293422CD014329342A5
:103AD8002CD002F5627293422BD0143293422AD032
:103AE8001432934229D01432934202D04FF4003258
:103AF80003E04FF4005200E00222344B5A600023E6
:103B080080F82030836A002B3FF459AF984756E776
:103B18002022F2E74FF40072EFE74FF40052ECE78F
:103B28004FF40032E9E74FF40012E6E74FF0007275
:103B3800E3E70222E1E72022DFE74FF40072DCE747
:103B4800234A934224D01432934225D0143293420C
:103B580024D01432934224D01432934224D0143205
:103B6800934224D01432934224D002F562729342D5
:103B780023D01432934222D01432934221D01432EB
:103B8800934202D04FF4003203E04FF4005200E0B9
:103B98000222104B5A60B2E72022FAE74FF4007273
:103BA800F7E74FF40052F4E74FF40032F1E74FF42F
:103BB8000012EEE74FF00072EBE70222E9E720225D
:103BC800E7E74FF40072E4E7800002400004024097
:103BD8000800024000000240082303FA01F11142E4
:103BE8003FF4EDAE15F0080F3FF4E9AE236823F07B
:103BF8000E032360026CC16B012303FA02F24A60D0
:103C0800836380F82130002380F82030036B002B79
:103C18003FF4D5AE9847D2E6074AD36823F4E06369
:103C28001B041B0C000200F4E060034343F0BF6375
:103C380043F40033D360704700ED00E000B5194B42
:103C4800DB68C3F30223C3F1070CBCF1040F28BFE0
:103C58004FF0040C03F1040EBEF1060F18D9033B14
:103C68004FF0FF3E0EFA0CFC21EA0C0199400EFAC7
:103C780003F322EA0303194300280BDB0901C9B245
:103C880000F1604000F5614080F800135DF804FB26
:103C98000023E5E700F00F000901C9B2024B1954EF
:103CA800F4E700BF00ED00E014ED00E0002807DBBA
:103CB80000F01F02400901239340024A42F82030D5
:103CC800704700BF00E100E00138B0F1807F0BD2FF
:103CD8004FF0E0235861054AF02182F823100020B4
:103CE800986107221A6170470120704700ED00E0D3
:103CF8007047000000B587B0002302930393049334
:103D080005930093019315484FF0804202604722C3
:103D18004260836044F61F62C26003618361FEF7FC
:103D2800C1FC90B94FF48053029302A90B48FEF7E7
:103D380019FE68B900230093019369460748FEF706
:103D48006DFF40B907B05DF804FBFEF70BF9E9E732
:103D5800FEF708F9EEE7FEF705F9F3E7FC040020A3
:103D680000B58DB02422002103A801F02DF900230D
:103D7800019302931148124A0260436083604FF630
:103D8800FF72C26003618361012303930593099362
:103D980003A9FEF7DFFC50B900230193029301A9A0
:103DA8000648FEF73BFF28B90DB05DF804FBFEF7A7
:103DB800D9F8F1E7FEF7D6F8F6E700BF440500208A
:103DC8000004004000B58DB02422002103A801F0B2
:103DD800FBF80023019302931148124A02604360E2
:103DE80083604FF6FF72C26003618361012303930E
:103DF8000593099303A9FEF7ADFC50B9002301937D
:103E0800029301A90648FEF709FF28B90DB05DF82D
:103E180004FBFEF7A7F8F1E7FEF7A4F8F6E700BF02
:103E28008C0500200008004000B58DB02422002138
:103E380003A801F0C9F80023019302931148124A1C
:103E48000260436083604FF6FF72C2600361836162
:103E5800012303930593099303A9FEF77BFC50B94B
:103E680000230193029301A90648FEF7D7FE28B95B
:103E78000DB05DF804FBFEF775F8F1E7FEF772F890
:103E8800F6E700BFD4050020000C004000B58DB057
:103E98002422002103A801F097F80023019302933C
:103EA8001148124A0260436083604FF6FF72C26095
:103EB800036143618361012303930593099303A974
:103EC800FEF748FC50B900230193029301A9064864
:103ED800FEF7A4FE28B90DB05DF804FBFEF742F822
:103EE800F1E7FEF73FF8F6E71C0600200034014032
:103EF80000B583B00368144A934205D0B3F1804FEC
:103F08000DD003B05DF804FB104B9A6942F40062CF
:103F18009A619B6903F400630093009BF1E703F542
:103F28000433DA6942F00102DA61DB6903F0010364
:103F38000193019B002211461C20FFF77FFE1C20E5
:103F4800FFF7B4FEDDE700BF002C0140001002407F
:103F580000B58DB00023089309930A930B93036867
:103F68003B4A93420BD03B4A934222D03A4A93426F
:103F780039D03A4A934250D00DB05DF804FB384B23
:103F8800DA6942F00202DA61DA6902F002020092AA
:103F9800009A9A6942F004029A619B6903F004034B
:103FA8000193019BC023089308A92E48FFF71CFA28
:103FB800E2E72B4BDA6942F00402DA61DA6902F0CF
:103FC80004020292029A9A6942F008029A619B6975
:103FD80003F008030393039BC023089308A922480E
:103FE800FFF702FAC8E71E4BDA6942F00802DA6105
:103FF800DA6902F008020492049A9A6942F004020B
:104008009A619B6903F004030593059B03230893B6
:1040180008A91448FFF7E8F9AEE7114B9A6942F48A
:1040280000529A619A6902F400520692069A9A69B5
:1040380042F010029A619B6903F010030793079BF3
:10404800C023089308A90948FFF7CEF994E700BFF1
:104058000004004000080040000C0040003401400B
:104068000010024000080140000C0140001001400F
:1040780000B587B000230293039304930593026865
:104088000D4B9A4202D007B05DF804FB03F5644378
:104098009A6942F004029A619B6903F00403019350
:1040A800019B4FF47063029302230393059302A9C3
:1040B8000248FFF799F9E6E7002C014000080140A3
:1040C80010B596B000241294139414941594109477
:1040D800119409940A940B940C940D940E940F94D3
:1040E8002022214601A800F06FFF3B483B4B0360AC
:1040F80047234360846040F2E733C360046144614E
:104108008461FEF7CFFA00284BD14FF48053129305
:1041180012A93148FEF726FC002845D12E48FEF7A3
:10412800EDFA002843D100231093119310A92A48CF
:10413800FEF774FD00283DD16023099300220A92FE
:104148000B920C920D920E920F9209A92248FEF73B
:1041580095FB002831D1042209A91F48FEF78EFBE0
:1041680070BB082209A91C48FEF788FB58BB0C2223
:1041780009A91948FEF782FB40BB0023019302936B
:104188000393049305934FF400520692089301A9F0
:104198001148FEF781FDE0B90F48FFF769FF16B037
:1041A80010BDFDF7DFFEB0E7FDF7DCFEB6E7FDF773
:1041B800D9FEB8E7FDF7D6FEBEE7FDF7D3FECAE79E
:1041C800FDF7D0FECDE7FDF7CDFED0E7FDF7CAFE3F
:1041D800D3E7FDF7C7FEDFE7B4040020002C014059
:1041E80008B50A480A4B03604FF4E13343600023E3
:1041F8008360C36003610C2242618361C36100F084
:10420800B3F900B908BDFDF7ADFEFBE7EC060020E9
:104218000044004008B50A480A4B03604FF4E133F4
:10422800436000238360C36003610C2242618361A1
:10423800C36100F099F900B908BDFDF793FEFBE7EB
:10424800300700200048004070B588B004460023BD
:10425800049305930693079303684B4A934204D04B
:104268004A4A934247D008B070BD494BDA6942F4D4
:104278000032DA61DA6902F400320092009A9A692F
:1042880042F004029A619B6903F004030193019BC5
:104298000423049302230593032307933D4E04A9A3
:1042A8003046FFF7A1F808230493002505950695E5
:1042B80004A93046FFF798F83748384B0360456043
:1042C80085608023C3600561456185614FF40053B3
:1042D800C361FFF7CFF958B92F4BA3635C62002283
:1042E80011462620FFF7AAFC2620FFF7DFFCBAE7D5
:1042F800FDF738FEF0E7264BDA6942F48022DA61EE
:10430800DA6902F480220292029A9A6942F008025B
:104318009A619B6903F008030393039B4FF480633E
:10432800049302230593032307931D4E04A93046E3
:10433800FFF75AF84FF40063049300250595069596
:1043480004A93046FFF750F81648174B036045603C
:1043580085608023C3600561456185614FF44053E2
:10436800C361FFF787F958B90E4BA3635C6200225B
:1043780011462720FFF762FC2720FFF797FC72E71A
:10438800FDF7F0FDF0E700BF0044004000480040A2
:104398000010024000080140640600206C00024042
:1043A800000C0140A80600203000024008B5034B6D
:1043B800834200D008BD00F0A9FCFBE7EC06002012
:1043C80010B5094C204600F0FEF8084B1B685868E9
:1043D800C0B2C043C0B200F027FDFF220449204606
:1043E80000F04CFB10BD00BF30070020A8060020DD
:1043F800F807002002680C4B9A4200D070470B4B1C
:104408001B681A6812F0100FF8D000B583B00022AC
:1044180001921A6801925B680193019BFFF7D0FF34
:1044280003B05DF804FB00BF0048004030070020DF
:104438000268D36823F0C003D360202380F83D309E
:1044480070470268D36823F49073D3600268536995
:1044580023F001035361036B012B05D0202380F85F
:104468003E300023036370470268D36823F01003CB
:10447800D360F3E790F83D30DBB2212B01D0022066
:1044880070478368B3F5805F17D0036A5A1C0262CD
:104498001A7803685A60C38C9BB2013B9BB2C384F1
:1044A8004BB90268D36823F08003D3600268D368ED
:1044B80043F04003D360002070470369002BE4D128
:1044C800036A1B880268C3F308035360036A023354
:1044D8000362E0E710B504460268136923F4405309
:1044E800C1680B43136183680269134342691A4325
:1044F8000168CB6823F4B05323F00C031343CB605B
:104508000268536923F4407381690B43536102685D
:10451800134B9A4220D0FEF747FF024602EB820275
:1045280002EB820263689B00B2FBF3F20D48A0FB2A
:1045380002314909642303FB11231B013233A0FB19
:1045480003235B0903F0F00202EB011203F00F03EF
:10455800216813448B6010BDFEF736FF0246DDE785
:10456800003801401F85EB5158B310B5044690F848
:104578003D300BB3242384F83D302268D36823F4FC
:104588000053D3602046FFF7A5FF2268136923F480
:10459800904313612268536923F02A035361226808
:1045A800D36843F40053D36000202064202384F8A8
:1045B8003D3084F83E3010BD80F83C30FFF744FEB3
:1045C800D8E70120704710B5044601684A6990F899
:1045D8003D30DBB2212B0AD021684A6902F0400243
:1045E80094F83E30DBB2222B11D0002010BD02F02F
:1045F8008002002AF0D04B6923F080034B61406BA6
:1046080008B1FFF7BDF82046FFF712FFE4E7002ADC
:10461800EBD04B6923F040034B61A06B08B1FFF767
:10462800AFF82046FFF70DFFDFE7704708B50168D0
:10463800CA6822F04002CA60202280F83D20FFF7B5
:10464800F4FF002008BD7047704710B5446A23681E
:104658005A6994F83D30DBB2212B10D023685A698F
:1046680002F0400294F83E30DBB2222B11D0236CCA
:1046780043F0100323642046FFF7E6FF10BD02F065
:104688008002002AEAD00023E3842046FFF7D0FE08
:10469800E4E7002AEBD00023E3852046FFF7D1FEAC
:1046A800E5E708B5406A0023C385C384FFF7CCFF5C
:1046B80008BD704790F83E30DBB2222B60D183688A
:1046C800B3F5805F46D0826AB3F5805F04D0002BD3
:1046D8004DD10369002B4AD103685B681370836A64
:1046E80001338362C38D9BB2013B9BB2C385002B10
:1046F80048D100B583B00268D36823F02003D360A3
:104708000268D36823F48073D3600268536923F086
:1047180001035361202380F83E30036B012B2CD119
:10472800002303630268D36823F01003D36003688F
:104738001A6812F0100F06D0002201921A6801922E
:104748005B680193019B818DFFF7B3FF002003B0E5
:104758005DF804FB0269002AB5D1826A03685B68C8
:10476800C3F308031380836A02338362BAE70368DA
:104778005B6803F07F031370B1E7FFF717FEE5E707
:10478800022070470020704730B583B004460268A5
:104798001368D068516913F00F0505D113F0200F85
:1047A80002D010F0200F19D12DB111F0010119D14B
:1047B80010F4907F16D1216B012975D013F0800F6A
:1047C80003D010F0800F40F0D78013F0400F03D0D3
:1047D80010F0400F40F0D48003B030BD2046FFF702
:1047E80069FFF9E713F0010F06D010F4807F03D0BA
:1047F800226C42F00102226413F0040F04D019B1B4
:10480800226C42F00202226413F0020F04D019B1A4
:10481800226C42F00402226413F0080F07D010F053
:10482800200F00D119B1226C42F008022264226CD8
:10483800002AD1D013F0200F02D010F0200F21D180
:1048480023685B6903F04003226C12F0080F00D163
:1048580023B32046FFF7F5FD23685A6912F0400F8D
:1048680018D05A6922F040025A61A36B73B1464AC4
:104878005A63A06BFEF7A6FF0028ADD0A06B436B70
:104888009847A9E72046FFF715FFD9E72046FFF725
:10489800DBFEA1E72046FFF7D7FE9DE72046FFF79E
:1048A800D3FE0023236497E713F0100F86D010F08F
:1048B800100F83D000230193136801935368019369
:1048C800019B536913F0400F32D0A16B0B685B68F2
:1048D8009BB2002B80D0A08D98427FF67DAFE385F8
:1048E8008B69202B08D1A18DE38D9BB2C91A89B29F
:1048F8002046FFF7DEFE6FE7D36823F48073D360AA
:104908002268536923F0010353612268536923F035
:1049180040035361202384F83E3000232363226838
:10492800D36823F01003D360A06BFEF729FFDAE702
:10493800A18DE38D9BB2C91A89B2E38D9BB2002B7E
:104948003FF44AAF00293FF447AFD36823F490738C
:10495800D3602268536923F001035361202384F84C
:104968003E30002323632268D36823F01003D3600A
:104978002046FFF79EFE2FE72046FFF77BFD2BE73B
:104988002046FFF753FE27E7AB46000808B5406A04
:10499800036B012B02D0FFF756FE08BD818D490835
:1049A800FFF787FEF9E708B50346406A1B681B68EE
:1049B80013F0200F16D10023C3850268D36823F4AF
:1049C8008073D3600268536923F00103536102685E
:1049D800536923F040035361202380F83E30036B72
:1049E800012B05D0036B012B08D0FFF7DFFC08BDB6
:1049F8000268D36823F01003D360F3E7818DFFF7D3
:104A080058FEF4E730B583B00446134681628285C8
:104A180000250564222280F83E20826B14489062AB
:104A2800A26B1448D062A26B13481063A26B556343
:104A380020680A46011DA06BFEF768FE01952368F1
:104A48001A6801925A680192019A84F83C50DA680F
:104A580042F48072DA602268536943F001035361BB
:104A68002268536943F040035361284603B030BDC0
:104A7800AF490008954900085346000808B590F862
:104A88003E30DBB2202B0DD171B17AB190F83C30B9
:104A9800012B0DD0012380F83C3000230363FFF77E
:104AA800B1FF00E0022008BD0120FCE70120FAE781
:104AB8000220F8E700B583B00E4B5A6942F00102B4
:104AC8005A615B6903F001030193019B00221146BF
:104AD8000D20FFF7B3F80D20FFF7E8F80022114684
:104AE8001020FFF7ABF81020FFF7E0F803B05DF8EF
:104AF80004FB00BF0010024008B5034B18600B22EE
:104B08000249FFF7BBFF08BDC4070020B807002013
:104B1800014B9868704700BF8007002038B5164CD5
:104B2800E078A37843EA0020FCF786F94FF060515B
:104B3800FCF7D6F91149FCF7D3F9114D28606079D3
:104B4800237943EA0020FCF777F94FF06051FCF72E
:104B5800C7F90A49FCF7C4F96860E079A37943EA20
:104B68000020FCF769F94FF06051FCF7B9F90349E7
:104B7800FCF7B6F9A86038BDA00700200000344350
:104B8800800700200000000038B5274CE078A378A3
:104B980043EA0020FCF750F94FF06051FCF7A0F908
:104BA8004FF08341FCF79CF9FBF714FD1CA3D3E9F4
:104BB8000023FBF767FDFCF735F81C4D286060798A
:104BC800237943EA0020FCF737F94FF06051FCF7EE
:104BD80087F94FF08341FCF783F9FBF7FBFC10A33F
:104BE800D3E90023FBF74EFDFCF71CF86860E07979
:104BF800A37943EA0020FCF71FF94FF06051FCF756
:104C08006FF94FF08341FCF76BF9FBF7E3FC04A362
:104C1800D3E90023FBF736FDFCF704F8A86038BD9C
:104C28009A99999999992340A00700207407002020
:104C380038B5164CE078A37843EA0020FCF7FCF876
:104C48004FF06051FCF74CF91149FCF749F9114D47
:104C580028606079237943EA0020FCF7EDF84FF0EB
:104C68006051FCF73DF90A49FCF73AF96860E079C8
:104C7800A37943EA0020FCF7DFF84FF06051FCF716
:104C88002FF90349FCF72CF9A86038BDA0070020CC
:104C98000000FA449407002008B50D4B5A7A187A98
:104CA80040EA02200B4B83FB0030C011FBF780FC6D
:104CB80005A3D3E90023FBF72FFBFBF7B3FF064B54
:104CC800186008BDAFF30080A4703D0AD743424086
:104CD800A0070020616060609007002008B50A4BBB
:104CE8005B78522B09D0532B0AD0512B02D0FFF7F7
:104CF800D3FF08BDFFF748FFF9E7FFF799FFF6E78D
:104D0800FFF70CFFF3E700BFA007002008B5364BFC
:104D18001978364BA3FB0123DB0803EB830203EB73
:104D28004203C91AC9B2324B5B5C552B24D02E4BB7
:104D380000221A702C4B1B780A2B2FD82C4AD25CD5
:104D4800552A2BD00133284A1370F3E7294A1278E1
:104D58001A44274810F803C0274800F802C0013356
:104D68009942F3DC00231A46092B07DC2249C95C67
:104D78000A44D2B20133F7E70023F1E71E4B9B7ACE
:104D880093420FD1002304E01B4AD15C1B4AD15443
:104D980001330A2BF8DDFFF7A1FF03E0C3F10B0392
:104DA800144A1370104B93F800C0104BA3FB0C234C
:104DB800DB0803EB830203EB4203ACEB030C5FFA63
:104DC8008CFC634606E0A3EB0C020949C85C0A495F
:104DD800885401330A2BF6DD0B220549084B186865
:104DE800FFF74CFE08BD00BF8D070020A38B2EBA2D
:104DF800B80700208C070020AC070020A00700207F
:104E0800C407002008B5064A10600268D36843F05A
:104E18001003D360FF220349FFF730FE08BD00BF2F
:104E28002C090020F807002070B5044630280BD064
:104E38002F2C08D8254B1D78DDB12B19302B1FD00E
:104E4800224B00221A7070BD214B93F82E300D2B87
:104E5800EED11F4B93F82F300A2BE9D11D4C1C4D76
:104E68000FCD0FC40FCD0FC495E80F0084E80F00D5
:104E7800E9E71C70224616491748FBF7D1F9E2E723
:104E8800A31E134AD35C0D2B05D0012C13D00F4B56
:104E980000221A70D7E7631ED35C0A2BF5D10D4E9A
:104EA8002A460D493046FBF7BBF9224608497019D6
:104EB800FBF7B6F9EBE7064B1B780A2BE7D1064B55
:104EC80093F82E300D2BE2D1E9E700BF2809002026
:104ED800F8070020C8070020F8080020014B987840
:104EE80080097047C8070020024B9878C0F340102B
:104EF800704700BFC8070020014BD878704700BF33
:104F0800C8070020014B1879704700BFC807002068
:104F180002280AD843001133054AD35C093012F835
:104F2800100000EB032080B270474FF6FF70704707
:104F3800C80700200C480D490D4A002302E0D45848
:104F4800C4500433C4188C42F9D30A4A0A4C0023CB
:104F580001E013600432A242FBD3FEF7C9FE00F061
:104F68000FF8FDF733F87047000000204C040020CC
:104F7800F45800084C04002034090020FEE7000023
:104F880070B50D4E0D4D761BB61006D0002455F8A1
:104F9800043B01349847A642F9D1094E094D00F067
:104FA80029FC761BB61006D0002455F8043B0134C2
:104FB8009847A642F9D170BDE8580008E85800089B
:104FC800F0580008E8580008830730B548D0541E48
:104FD800002A3FD00346CAB201E0013C3AD303F8A5
:104FE800012B9D07F9D1032C2DD9CDB245EA052512
:104FF8000F2C45EA054536D9A4F1100222F00F0C12
:1050080003F1200EE6444FEA121C03F1100242E9B4
:10501800045542E9025510327245F8D10CF10102EB
:1050280014F00C0F03EB021204F00F0C13D0ACF1C8
:10503800040323F003030433134442F8045B93424C
:10504800FBD10CF003042CB1CAB21C4403F8012BA9
:105058009C42FBD130BD64461346002CF4D1F9E7DD
:1050680003461446BFE71A46A446E0E7024B13B1CD
:10507800024800F005B8704700000000955000088D
:10508800002301461A46184600F01AB838B5084BEE
:10509800084D5B1B9C1007D0043B1D44013C55F890
:1050A80004399847002CF9D1BDE8384000F0A8BB76
:1050B800F4580008F0580008704700BF704700BF58
:1050C8002DE9F047DFF87CA00646DAF8000098469C
:1050D8000F469146FFF7F0FF1B4B1B68D3F848417A
:1050E80024B365681F2D26DC5EB96B1C0235DAF81F
:1050F8000000636044F82570FFF7E0FF0020BDE87A
:10510800F087012304EB8501C1F88890D4F8882141
:10511800AB401A43022EC4F88821C1F80881E4D1B3
:10512800D4F88C211343C4F88C31DEE703F5A67458
:10513800C3F84841D5E7DAF80000FFF7BFFF4FF0A2
:10514800FF30DCE74804002074580008014B186859
:10515800704700BF1C00002000F02AB8F8B50446CC
:105168000D4600F0EFF8224606460F462B4620462D
:105178002946FBF721FD30B92046294600220023A5
:10518800FBF7F2FC10B930463946F8BDFFF7DEFFF1
:10519800002200232121016010461946FBF79CFBE1
:1051A80006460F4630463946F8BD00BF00000000ED
:1051B8009C462DE9F84F53425F4C13432CF00049AD
:1051C80049EAD373A342964607460E463DD8454260
:1051D800054321F0004A4AEAD575A54203468B46A5
:1051E80033D80CF1404505F5801515433DD04FEAFD
:1051F800AC7505F002055AEA030345EAD1752CD0CF
:1052080059EA020335D0A14546D0A24531D0AAEBD0
:105218000909B9F1747F4FEA295339DABCF1000F53
:1052280046DA3C3344DA00200021012D58D0022D03
:1052380049D085B134A3D3E90023FBF76BF834A335
:10524800D3E90023FBF766F805E03A467046614665
:105258003346FBF761F8BDE8F88F022D10D0032D17
:10526800F9D12DA1D1E90001F5E7BDE8F84F00F02B
:105278002FB9BBF1000F07DB29A1D1E90001EAE74B
:1052880023A1D1E90001E6E727A1D1E90001E2E77E
:1052980023A1D1E90001C8E7CA4505F1FF3523D0AC
:1052A800022D29D8254B03EBC505D5E90001D2E726
:1052B8007246634638463146FBF70EFB00F096FA15
:1052C80000F006F9B1E710A3D3E90023FBF722F8B1
:1052D80002460B460EA1D1E90001FBF71BF8BAE71D
:1052E80001F100431946B6E7022D08D8144B03EB29
:1052F800C505D5E90001AEE700200021ABE70CA108
:10530800D1E90001A7E700BF075C143326A6A13C3A
:10531800182D4454FB210940182D4454FB2109C081
:10532800182D4454FB21F93F182D4454FB21F9BF93
:10533800182D4454FB21E93F0000F07F90580008E5
:10534800785800082DE9F843604E054636EA010210
:105358000C4600F09E8000290B46844654DD091552
:1053680062D0C3F31303C807A1F2FF3743F48013D5
:1053780004D45B0003EBDC734FEA4C0C00264FEAC5
:10538800DC7202EB43034FF0160E4FF40012344662
:105398007F104FEA4C0CA118994202DC5B1A8C185A
:1053A80016445B00BEF1010E03EBDC734FEA5202B8
:1053B8004FEA4C0CEFD1754620204FF000420AE02E
:1053C80043D04FEADC71013801EB43034FEA4C0C40
:1053D8004FEA520242D0A34202EB0E01F0DD00294F
:1053E80001EB020E0ADBA0461B1B614588BF03F1D7
:1053F800FF334446ACEB010C1544E2E7BEF1000F65
:10540800F1DB04F10108EFE721F00042024336D056
:1054180000294CD14FEADC22134615394FEA4C5C7F
:10542800002AF7D0D6024CD400205B00DD020446E7
:1054380000F10100F9D51A4663460CFA00FCC0F1E8
:105448002000C340091B13438BE76145B9D80029E5
:1054580001EB020ED2DB98460023CAE753EA0C039D
:1054680011D16808731003F17F5303F50013F20795
:1054780048BF40F0004003EB075905464C46284614
:105488002146BDE8F883691C16BF681C0136400830
:10549800E8E702460B46FBF7F5F82A462346FAF7F3
:1054A8003BFF05460C4628462146BDE8F8830246E0
:1054B800FAF730FF02460B46FBF70EFA05460C4694
:1054C800DDE7634620204FF0FF34BAE70000F07FA5
:1054D8002DE9F84FB84F21F00046BE4204460D466C
:1054E8008A461CDDB54B9E420DDC0AD0B44BB54A4A
:1054F800B54CBAF1000FD8BF134620461946BDE88F
:10550800F88F0028F2D022462B4620462946FAF783
:1055180003FF04460B4620461946BDE8F88FAB4BFF
:105528009E4200F3B080A3F1DE739E4240F39D805B
:105538004FF0FF3B22462B4620462946FBF7A2F8B0
:1055480002460B4680468946FBF79CF882A3D3E9BE
:10555800002306460F46FBF795F881A3D3E90023FD
:10556800FAF7DAFE32463B46FBF78CF87EA3D3E91E
:105578000023FAF7D1FE32463B46FBF783F87CA3BB
:10558800D3E90023FAF7C8FE32463B46FBF77AF820
:1055980079A3D3E90023FAF7BFFE32463B46FBF76F
:1055A80071F877A3D3E90023FAF7B6FE42464B46D3
:1055B800FBF768F874A3D3E9002380468946304690
:1055C8003946FBF75FF872A3D3E90023FAF7A2FE86
:1055D80032463B46FBF756F86FA3D3E90023FAF7A8
:1055E80099FE32463B46FBF74DF86DA3D3E90023FD
:1055F800FAF790FE32463B46FBF744F86AA3D3E934
:105608000023FAF787FE32463B46FBF73BF8BBF12F
:10561800FF3F02460B464046494653D0FAF77CFE08
:105628006B4E22462B46FBF72DF86A4B06EBCB0652
:105638004FEACB0B9B44DBE90023FAF76BFE2246CB
:105648002B46FAF767FE0B460246D6E90001FAF741
:1056580061FEBAF1000F04460B46BFF64EAF01F1EA
:10566800004320461946BDE8F88F51A3D3E900232B
:10567800FAF752FE0022584BFBF794FA00283FF441
:1056880057AF2B4639E700F0B1F8544B04469E4219
:105698000D4629DCA3F550239E4250DC02460B46FA
:1056A800FAF73AFE00224C4BFAF734FE02460B4654
:1056B8002046294614461D464FF0000B00224FF0A5
:1056C800804326E0FAF728FE22462B46FAF7DAFF4F
:1056D80002460B4620462946FAF71CFE04460B46AE
:1056E80020461946BDE8F88F3D4B9E421CDA002241
:1056F8003C4BFAF70FFE02460B4620462946144655
:105708001D460022374B4FF0020BFAF7BBFF002271
:10571800314BFAF701FE02460B4620462946FBF7B5
:10572800DBF804460D4605E702460B4600202E49E5
:10573800FBF7D2F84FF0030B04460D46FAE60022B9
:10574800254BFAF7E7FD02460B46204629464FF05F
:10575800010B14461D46DAE711DA22E33AAD903F11
:10576800EB0D76244B7BA93F513DD0A0660DB13F90
:105778006E204CC5CD45B73FFF8300922449C23FF8
:105788000D5555555555D53F2F6C6A2C44B4A2BFBD
:105798009AFDDE522DDEAD3F6D9A74AFF2B0B33F85
:1057A800711623FEC671BC3FC4EB98999999C93FFD
:1057B8009C7500883CE4377EFFFF0F440000F07FB3
:1057C800FB21F93FFB21F9BF182D4454FFFFDB3FB4
:1057D800A8580008C85800080000F03FFFFFF23F33
:1057E800008003400000F83F0000F0BF21F00041B6
:1057F800704700BFF8B500BFF8BC08BC9E467047AC
:0C580800F8B500BFF8BC08BC9E46704715
:105818000000C8420000C8420000C8420000C84258
:10582800CDCC4C3ECDCC4C3ECDCC4C3ECDCC4C3EE4
:1058380000002042000020420000204200002042D8
:1058480002030405060708090A0B0C0D0E0F1010B9
:105858000000000000000000000000000102030436
:1058680006070809000000000102030420000020C8
:10587800182D4454FB21E9BFD221337F7CD9024043
:10588800D221337F7CD902C00000000000000080D4
:10589800182D4454FB210940182D4454FB2109C0FC
:1058A8004FBB610567ACDD3F182D4454FB21E93F30
:1058B8009BF681D20B73EF3F182D4454FB21F93F1F
:1058C800E2652F227F2B7A3C075C143326A6813CA5
:1058D800BDCBF07A8807703C075C143326A6913C50
:0858E800755000080D020008D4
:0458F000E9010008C2
:1058F4000000A0410000A0410000A0410000A04120
:1059040001000000100000000024F400200000202A
:10591400000000000C03002074030020DC030020BE
:105924000000000000000000000000000000000073
:105934000000000000000000000000000000000063
:105944000000000000000000000000000000000053
:105954000000000000000000000000000000000043
:105964000000000000000000000000000000000033
:105974000000000000000000000000000000000023
:105984000000000000000000000000000000000013
:105994000000000000000000000000000000000003
:1059A40000000000000000000000000000000000F3
:1059B40000000000000000000100000000000000E2
:1059C4000E33CDAB34126DE6ECDE05000B000000A7
:1059D40000000000000000000000000000000000C3
:1059E40000000000000000000000000000000000B3
:1059F40000000000000000000000000000000000A3
:105A04000000000000000000000000000000000092
:0C5D34000000000000000000300900200A
:0400000508004F3D63
:00000001FF
