:020000040800F2
:1000000000C0002001680008BB380008BD380008A7
:10001000BF380008C1380008C338000800000000DD
:10002000000000000000000000000000C5380008CB
:10003000C738000800000000C9380008CB380008A5
:1000400049680008496800084968000849680008CC
:1000500049680008496800084968000849680008BC
:1000600049680008496800084968000849680008AC
:1000700049680008D5380008496800084968000840
:10008000E538000849680008496800084968000820
:10009000496800084968000849680008496800087C
:1000A000496800084968000849680008496800086C
:1000B000F5380008496800084968000849680008E0
:1000C000496800084968000849680008496800084C
:1000D0004968000849680008053900081539000812
:1000E000496800084968000849680008496800082C
:1000F000496800084968000849680008496800081C
:10010000496800084968000849680008496800080B
:1001100049680008496800084968000849680008FB
:1001200049680008496800084968000849680008EB
:1001300000000000000000000000000000000000BF
:1001400000000000000000000000000000000000AF
:10015000000000000000000000000000000000009F
:10016000000000000000000000000000000000008F
:10017000000000000000000000000000000000007F
:10018000000000000000000000000000000000006F
:10019000000000000000000000000000000000005F
:1001A000000000000000000000000000000000004F
:1001B000000000000000000000000000000000003F
:1001C000000000000000000000000000000000002F
:1001D000000000000000000000000000000000001F
:0401E0005FF8E0F1F3
:1001E80010B5054C237833B9044B13B10448AFF369
:1001F80000800123237010BDF404002000000000DB
:100208008C84000808B5034B1BB103490348AFF3BE
:10021800008008BD00000000F80400208C8400085D
:10022800844641EA000313F0030349D1403A23D33B
:100238000B6803604B6843608B688360CB68C3605E
:100248000B6903614B6943618B698361CB69C36146
:100258000B6A03624B6A43628B6A8362CB6AC3622E
:100268000B6B03634B6B43638B6B8363CB6BC36316
:1002780040304031403ADBD230320BD30B68036058
:100288004B6843608B688360CB68C3601030103163
:10029800103AF3D20C3205D351F8043B40F8043B32
:1002A800043AF9D2043208D0D2071CBF11F8013B36
:1002B80000F8013B01D30B8803806046704700BFFC
:1002C800082A13D38B07B1D010F00303AED0C3F1C3
:1002D8000403D21ADB071CBF11F8013B00F8013BED
:1002E800A4D331F8023B20F8023B9FE7043AD9D364
:1002F800013A11F8013B00F8013BF9D20B78037081
:100308004B7843708B7883706046704781F000416A
:1003180002E000BF83F0004330B54FEA41044FEAE2
:10032800430594EA050F08BF90EA020F1FBF54EA7D
:10033800000C55EA020C7FEA645C7FEA655C00F019
:10034800E2804FEA5454D4EB5555B8BF6D420CDDEA
:100358002C4480EA020281EA030382EA000083EA6D
:10036800010180EA020281EA0303362D88BF30BD0D
:1003780011F0004F4FEA01314FF4801C4CEA113163
:1003880002D0404261EB410113F0004F4FEA0333C2
:100398004CEA133302D0524263EB430394EA050F4D
:1003A80000F0A780A4F10104D5F1200E0DDB02FABC
:1003B8000EFC22FA05F2801841F1000103FA0EF250
:1003C800801843FA05F359410EE0A5F120050EF116
:1003D800200E012A03FA0EFC28BF4CF0020C43FA47
:1003E80005F3C01851EBE37101F0004507D54FF054
:1003F800000EDCF1000C7EEB00006EEB0101B1F5A4
:10040800801F1BD3B1F5001F0CD349085FEA3000E9
:100418004FEA3C0C04F101044FEA445212F5800FF4
:1004280080F09A80BCF1004F08BF5FEA500C50F191
:10043800000041EB045141EA050130BD5FEA4C0C74
:10044800404141EB0101013C28BFB1F5801FE9D2D1
:1004580091F0000F04BF01460020B1FA81F308BFF4
:100468002033A3F10B03B3F120020CDA0C3208DDC0
:1004780002F1140CC2F10C0201FA0CF021FA02F19B
:100488000CE002F11402D8BFC2F1200C01FA02F10B
:1004980020FA0CFCDCBF41EA0C019040E41AA2BF30
:1004A80001EB0451294330BD6FEA04041F3C1CDAF8
:1004B8000C340EDC04F11404C4F1200220FA04F018
:1004C80001FA02F340EA030021FA04F345EA0301C2
:1004D80030BDC4F10C04C4F1200220FA02F001FA84
:1004E80004F340EA0300294630BD21FA04F0294606
:1004F80030BD94F0000F83F4801306BF81F480119F
:100508000134013D4EE77FEA645C18BF7FEA655C11
:1005180029D094EA050F08BF90EA020F05D054EAE3
:10052800000C04BF1946104630BD91EA030F1EBFE8
:100538000021002030BD5FEA545C05D140004941EC
:1005480028BF41F0004130BD14F580043CBF01F5DF
:10055800801130BD01F0004545F0FE4141F47001C5
:100568004FF0000030BD7FEA645C1ABF19461046A0
:100578007FEA655C1CBF0B46024650EA013406BFA1
:1005880052EA033591EA030F41F4002130BD00BF60
:1005980090F0000F04BF0021704730B54FF480641D
:1005A80004F132044FF000054FF0000150E700BF9E
:1005B80090F0000F04BF0021704730B54FF48064FD
:1005C80004F1320410F0004548BF40424FF00001EA
:1005D8003EE700BF42004FEAE2014FEA31014FEA2D
:1005E80002701FBF12F07F4393F07F4F81F060517C
:1005F800704732F07F4208BF704793F07F4F04BFC7
:1006080041F40021704730B54FF4607401F00045A3
:1006180021F000411CE700BF50EA010208BF704703
:1006280030B54FF000050AE050EA010208BF7047F4
:1006380030B511F0004502D5404261EB41014FF45D
:10064800806404F132045FEA915C3FF4D8AE4FF065
:1006580003025FEADC0C18BF03325FEADC0C18BF48
:10066800033202EBDC02C2F1200300FA03FC20FA99
:1006780002F001FA03FE40EA0E0021FA02F11444E6
:10068800BDE600BF70B54FF0FF0C4CF4E06C1CEAFF
:1006980011541DBF1CEA135594EA0C0F95EA0C0F70
:1006A80000F0DEF82C4481EA030621EA4C5123EAE3
:1006B8004C5350EA013518BF52EA033541F4801112
:1006C80043F4801338D0A0FB02CE4FF00005E1FBC5
:1006D80002E506F00042E0FB03E54FF00006E1FB0F
:1006E80003569CF0000F18BF4EF0010EA4F1FF0452
:1006F800B6F5007F64F5407404D25FEA4E0E6D4192
:1007080046EB060642EAC62141EA55514FEAC520A2
:1007180040EA5E504FEACE2EB4F1FD0C88BFBCF51E
:10072800E06F1ED8BEF1004F08BF5FEA500E50F1CF
:10073800000041EB045170BD06F0004646EA010195
:1007480040EA020081EA0301B4EB5C04C2BFD4EBC7
:100758000C0541EA045170BD41F480114FF0000EC0
:10076800013C00F3AB8014F1360FDEBF002001F02E
:10077800004170BDC4F10004203C35DA0C341BDCA8
:1007880004F11404C4F1200500FA05F320FA04F07A
:1007980001FA05F240EA020001F0004221F00041AE
:1007A80010EBD37021FA04F642EB06015EEA430E21
:1007B80008BF20EAD37070BDC4F10C04C4F1200551
:1007C80000FA04F320FA05F001FA04F240EA020004
:1007D80001F0004110EBD37041F100015EEA430ED5
:1007E80008BF20EAD37070BDC4F1200500FA05F2F5
:1007F8004EEA020E20FA04F301FA05F243EA020374
:1008080021FA04F001F0004121FA04F220EA020082
:1008180000EBD3705EEA430E08BF20EAD37070BDC8
:1008280094F0000F0FD101F00046400041EB0101A8
:1008380011F4801F08BF013CF7D041EA060195F08A
:10084800000F18BF704703F00046520043EB030344
:1008580013F4801F08BF013DF7D043EA0603704731
:1008680094EA0C0F0CEA135518BF95EA0C0F0CD03C
:1008780050EA410618BF52EA4306D1D181EA030182
:1008880001F000414FF0000070BD50EA410606BF7C
:100898001046194652EA430619D094EA0C0F02D1C1
:1008A80050EA013613D195EA0C0F05D152EA033606
:1008B8001CBF104619460AD181EA030101F0004124
:1008C80041F0FE4141F470014FF0000070BD41F06D
:1008D800FE4141F4780170BD70B54FF0FF0C4CF447
:1008E800E06C1CEA11541DBF1CEA135594EA0C0F66
:1008F80095EA0C0F00F0A7F8A4EB050481EA030EB3
:1009080052EA03354FEA013100F088804FEA033399
:100918004FF0805545EA131343EA12634FEA022267
:1009280045EA111545EA10654FEA00260EF0004128
:100938009D4208BF964244F1FD0404F5407402D27A
:100948005B084FEA3202B61A65EB03055B084FEA0B
:1009580032024FF480104FF4002CB6EB020E75EB08
:10096800030E22BFB61A754640EA0C005B084FEA30
:100978003202B6EB020E75EB030E22BFB61A7546AD
:1009880040EA5C005B084FEA3202B6EB020E75EBF8
:10099800030E22BFB61A754640EA9C005B084FEA70
:1009A8003202B6EB020E75EB030E22BFB61A75467D
:1009B80040EADC0055EA060E18D04FEA051545EA6C
:1009C80016754FEA06164FEAC30343EA52734FEA15
:1009D800C2025FEA1C1CC0D111F4801F0BD141EA8E
:1009E80000014FF000004FF0004CB6E711F4801FF3
:1009F80004BF01430020B4F1FD0C88BFBCF5E06FD3
:100A08003FF6AFAEB5EB030C04BFB6EB020C5FEAE2
:100A1800500C50F1000041EB045170BD0EF0004E37
:100A28004EEA113114EB5C04C2BFD4EB0C0541EA69
:100A3800045170BD41F480114FF0000E013C90E666
:100A480045EA060E8DE60CEA135594EA0C0F08BF2A
:100A580095EA0C0F3FF43BAF94EA0C0F0AD150EA29
:100A680001347FF434AF95EA0C0F7FF425AF1046BC
:100A780019462CE795EA0C0F06D152EA03353FF4E4
:100A8800FDAE1046194622E750EA410618BF52EA61
:100A980043067FF4C5AE50EA41047FF40DAF52EA35
:100AA80043057FF4EBAE12E74FF0FF3C06E000BFD2
:100AB8004FF0010C02E000BF4FF0010C4DF804CDDF
:100AC8004FEA410C7FEA6C5C4FEA430C18BF7FEA9F
:100AD8006C5C1BD001B050EA410C0CBF52EA430CCD
:100AE80091EA030F02BF90EA020F0020704710F14D
:100AF800000F91EA030F58BF994208BF90422CBFDC
:100B0800D8176FEAE37040F0010070474FEA410CD4
:100B18007FEA6C5C02D150EA013C07D14FEA430CF2
:100B28007FEA6C5CD6D152EA033CD3D05DF8040B63
:100B3800704700BF8446104662468C461946634695
:100B480000E000BF01B5FFF7B7FF002848BF10F16C
:100B5800000F01BD4DF808EDFFF7F4FF0CBF0120B1
:100B680000205DF808FB00BF4DF808EDFFF7EAFF2D
:100B780034BF012000205DF808FB00BF4DF808EDE8
:100B8800FFF7E0FF94BF012000205DF808FB00BFDD
:100B98004DF808EDFFF7CEFF94BF012000205DF867
:100BA80008FB00BF4DF808EDFFF7C4FF34BF012074
:100BB80000205DF808FB00BF4FEA410C7FEA6C5C3F
:100BC80002D150EA013C0AD14FEA430C7FEA6C5C3F
:100BD80002D152EA033C02D14FF0000070474FF0B7
:100BE800010070474FEA410212F5001215D211D5E3
:100BF8006FF47873B3EB625212D94FEAC12343F012
:100C0800004343EA505311F0004F23FA02F018BF93
:100C1800404270474FF00000704750EA013005D15C
:100C280011F0004008BF6FF0004070474FF000001F
:100C3800704700BF4FEA4102B2F1E04324BFB3F569
:100C4800001CDCF1FE5C0DD901F0004C4FEAC0023B
:100C58004CEA5070B2F1004F40EB830008BF20F01F
:100C68000100704711F0804F21D113F13872BCBFD9
:100C780001F00040704741F480114FEA5252C2F12E
:100C88001802C2F1200C10FA0CF320FA02F018BF77
:100C980040F001004FEAC1234FEAD32303FA0CFCCA
:100CA80040EA0C0023FA02F34FEA4303CCE77FEA59
:100CB800625307D150EA01331EBF4FF0FE4040F4A3
:100CC8004000704701F0004040F0FE4040F4000052
:100CD800704700BF80F0004002E000BF81F0004193
:100CE80042001FBF5FEA410392EA030F7FEA226CCA
:100CF8007FEA236C6AD04FEA1262D2EB1363C1BF5A
:100D0800D218414048404140B8BF5B42192B88BFC8
:100D1800704710F0004F40F4000020F07F4018BFEB
:100D2800404211F0004F41F4000121F07F4118BF0B
:100D3800494292EA030F3FD0A2F1010241FA03FCB3
:100D480010EB0C00C3F1200301FA03F100F000439B
:100D580002D5494260EB4000B0F5000F13D3B0F163
:100D6800807F06D340084FEA310102F10102FE2AD2
:100D780051D2B1F1004F40EBC25008BF20F0010042
:100D880040EA03007047490040EB0000013A28BFE1
:100D9800B0F5000FEDD2B0FA80FCACF1080CB2EB64
:100DA8000C0200FA0CF0AABF00EBC25052421843E2
:100DB800BCBFD0401843704792F0000F81F4000187
:100DC80006BF80F400000132013BB5E74FEA41035A
:100DD8007FEA226C18BF7FEA236C21D092EA030FC6
:100DE80004D092F0000F08BF0846704790EA010F40
:100DF8001CBF0020704712F07F4F04D1400028BF6D
:100E080040F00040704712F100723CBF00F500004E
:100E1800704700F0004343F0FE4040F40000704784
:100E28007FEA226216BF08467FEA23630146420230
:100E380006BF5FEA412390EA010F40F48000704743
:100E48004FF0000304E000BF10F0004348BF4042E9
:100E58005FEA000C08BF704743F0964301464FF025
:100E680000001CE050EA010208BF70474FF0000381
:100E78000AE000BF50EA010208BF704711F00043C2
:100E880002D5404261EB41015FEA010C02BF844692
:100E98000146002043F0B64308BFA3F18053A3F5F1
:100EA8000003BCFA8CF2083AA3EBC25310DB01FA38
:100EB80002FC634400FA02FCC2F12002BCF1004FBC
:100EC80020FA02F243EB020008BF20F0010070474D
:100ED80002F1200201FA02FCC2F1200250EA4C00A1
:100EE80021FA02F243EB020008BF20EADC707047E7
:100EF8004FF0FF0C1CEAD0521EBF1CEAD15392EAF5
:100F08000C0F93EA0C0F6FD01A4480EA010C4002D0
:100F180018BF5FEA41211ED04FF0006343EA50102A
:100F280043EA5111A0FB01310CF00040B1F5000F6C
:100F38003EBF490041EAD3715B0040EA010062F11B
:100F48007F02FD2A1DD8B3F1004F40EBC25008BF05
:100F580020F00100704790F0000F0CF0004C08BF23
:100F680049024CEA502040EA51207F3AC2BFD2F1F0
:100F7800FF0340EAC250704740F400004FF00003FE
:100F8800013A5DDC12F1190FDCBF00F00040704738
:100F9800C2F10002410021FA02F1C2F1200200FA76
:100FA80002FC5FEA310040F1000053EA4C0308BF3D
:100FB80020EADC70704792F0000F00F0004C02BF8E
:100FC800400010F4000F013AF9D040EA0C0093F009
:100FD800000F01F0004C02BF490011F4000F013B63
:100FE800F9D041EA0C018FE70CEAD15392EA0C0FD1
:100FF80018BF93EA0C0F0AD030F0004C18BF31F03C
:10100800004CD8D180EA010000F00040704790F011
:10101800000F17BF90F0004F084691F0000F91F0B5
:10102800004F14D092EA0C0F01D142020FD193EA7B
:101038000C0F03D14B0218BF084608D180EA010003
:1010480000F0004040F0FE4040F40000704740F0DF
:10105800FE4040F4400070474FF0FF0C1CEAD052AD
:101068001EBF1CEAD15392EA0C0F93EA0C0F69D009
:10107800A2EB030280EA010C49024FEA402037D074
:101088004FF0805343EA111143EA10130CF000406B
:101098008B4238BF5B0042F17D024FF4000C8B425B
:1010A80024BF5B1A40EA0C00B3EB510F24BFA3EB3B
:1010B800510340EA5C00B3EB910F24BFA3EB91030B
:1010C80040EA9C00B3EBD10F24BFA3EBD10340EA65
:1010D800DC001B0118BF5FEA1C1CE0D1FD2A3FF6AB
:1010E80050AF8B4240EBC25008BF20F00100704760
:1010F8000CF0004C4CEA50207F32C2BFD2F1FF0303
:1011080040EAC250704740F400004FF00003013A33
:1011180037E792F0000F00F0004C02BF400010F4D7
:10112800000F013AF9D040EA0C0093F0000F01F0EB
:10113800004C02BF490011F4000F013BF9D041EA0D
:101148000C0195E70CEAD15392EA0C0F08D1420240
:101158007FF47DAF93EA0C0F7FF470AF084676E713
:1011680093EA0C0F04D14B023FF44CAF08466EE7EC
:1011780030F0004C18BF31F0004CCAD130F00042BA
:101188007FF45CAF31F000437FF43CAF5FE700BF12
:101198004FF0FF3C06E000BF4FF0010C02E000BF3B
:1011A8004FF0010C4DF804CD4FEA40024FEA4103DD
:1011B8007FEA226C18BF7FEA236C11D001B052EA93
:1011C800530C18BF90EA010F58BFB2EB030088BF59
:1011D800C81738BF6FEAE17018BF40F001007047C8
:1011E8007FEA226C02D15FEA402C05D17FEA236CAA
:1011F800E4D15FEA412CE1D05DF8040B704700BFF1
:10120800844608466146FFE70FB5FFF7C9FF002887
:1012180048BF10F1000F0FBD4DF808EDFFF7F4FFC0
:101228000CBF012000205DF808FB00BF4DF808ED59
:10123800FFF7EAFF34BF012000205DF808FB00BF7C
:101248004DF808EDFFF7E0FF94BF012000205DF89E
:1012580008FB00BF4DF808EDFFF7D2FF94BF01204F
:1012680000205DF808FB00BF4DF808EDFFF7C8FF48
:1012780034BF012000205DF808FB00BF4FEA4002A0
:10128800B2F1FE4F0FD34FF09E03B3EB12620DD9AC
:101298004FEA002343F0004310F0004F23FA02F016
:1012A80018BF404270474FF00000704712F1610FBD
:1012B80001D1420205D110F0004008BF6FF0004094
:1012C80070474FF000007047014B00221A607047CA
:1012D80054050020014B1868704700BF54050020D2
:1012E800F8B50B46144601461846FFF7F7FC0546C5
:1012F8002649FFF7FDFD264E56F82410FFF7F0FCAF
:1013080046F824002349FFF7AFFF10B1214A46F8F9
:101318002420214F57F824102846FFF7DFFC1B49EB
:10132800FFF79AFE064647F8245029461B4B53F808
:101338002400FFF7DDFD0546154B53F82410184B24
:1013480053F82400FFF7D4FD01462846FFF7C8FCF0
:1013580005463146134B53F82400FFF7C9FD0146F3
:101368002846FFF7BDFC05460F4B43F82400002133
:10137800FFF75CFF30B90D492846FFF775FF10B13C
:101388000A4D00E000252846F8BD00BF0000A04136
:10139800100500200000FA4584050020E8840008B4
:1013A800D8840008C884000874050020000061443F
:1013B80038B504F011FF04462F49FFF74DFE2F4BB7
:1013C80018602F492046FFF731FF002830D12D49FA
:1013D8002046FFF749FF002847D10124132C46DC9B
:1013E80004F0FAFE2449FFF737FE0146234D28682A
:1013F800FFF776FC28600134F0E71F492046FFF725
:101408002BFE01461D4C2068FFF76AFC2060013561
:10141800132D2CDC04F0E0FE04461A49FFF724FFE4
:101428000028EAD018492046FFF758FC0446E4E7AC
:101438000125EDE710492046FFF70EFE01460F4C47
:101448002068FFF74DFC20600135132D0FDC04F0F8
:10145800C3FE04460A49FFF7E9FE0028EAD00A4914
:101468002046FFF73DFC0446E4E70125EDE7034B82
:101478001A68064B1A6038BD0000A04150050020CC
:1014880000007042000096430000B4434C05002061
:1014980038B504460D460021FFF7E6FE18B1034BA8
:1014A80043F8254038BD0024F9E700BFE4050020D3
:1014B8002DE9F84F0368B3F1804F01D0BDE8F88FEC
:1014C8007F4BD3F800C0DCF824007E4B19684F6AC4
:1014D8007D4B1A68566A7D4B1B685D6A47F6A47493
:1014E800A04202D9C0F57F40FF3047F6A474A74256
:1014F80002D9C7F57F47FF3747F6A474A64202D939
:10150800C6F57F46FF3647F6A474A54202D9C5F54D
:101518007F45FF350024CCF824404C6254625C625D
:10152800FFF78EFC6A49FFF7E3FC6A49FFF794FD71
:10153800FFF750F85CA3D3E90023FFF7A3F85CA3F7
:10154800D3E90023FFF79EF8FFF774FB834638467C
:10155800FFF776FC5E49FFF7CBFC5F49FFF77CFDA0
:10156800FFF738F850A3D3E90023FFF78BF850A30F
:10157800D3E90023FFF786F8FFF75CFB8246304685
:10158800FFF75EFC5249FFF7B3FC5349FFF764FDD0
:10159800FFF720F844A3D3E90023FFF773F844A327
:1015A800D3E90023FFF76EF8FFF744FB0746284608
:1015B800FFF746FC4649FFF79BFC4849FFF74CFDFF
:1015C800FFF708F838A3D3E90023FFF75BF838A33F
:1015D800D3E90023FFF756F8FFF72CFB05463946F9
:1015E8005846FFF77DFBFEF7F5FF33A3D3E9002349
:1015F800FFF748F8FFF71EFB804629465046FFF7DD
:101608006FFBFEF7E7FF2CA3D3E90023FFF73AF8B7
:10161800FFF710FB064641464046FFF769FC804647
:1016280031463046FFF764FC01464046FFF758FB59
:10163800FEF7D0FF05F09EFA80468946284E3068AE
:10164800FEF7C8FF42464B46FEF766FEFFF7F2FA82
:101658003060244E224631685846FFF741FEFFF7B6
:101668000DFE0446012271685046FFF739FEFFF768
:1016780005FE80460222B1683846FFF731FEFFF7C3
:10168800FDFD07460322F1682846FFF729FEFFF70C
:10169800F5FD154B1B685C63C3F83880DF6318647D
:1016A8000CE700BFAFF30080666666666666344086
:1016B800B81E85EB51B8E63F9A9999999999993F3F
:1016C80088060020D00600201807002060070020A8
:1016D8000000A0410000054400C004440080044408
:1016E80054050020E4050020F80500202DE9F04FFE
:1016F800A5B00590002303604360836005F02AF8D5
:10170800B0B90024022C1FDC204605F045F824ABB4
:1017180003EB840545F80C0C204605F049F845F81C
:10172800180C204604F0BAFF45F8240C0134E9E708
:1017380004F050FFFFF784FB059C206004F050FF85
:10174800FFF77EFB606003E200249B4B1B68A3420B
:101758000EDD04EB4402994B03EB8203986804F016
:10176800AFFF24AB03EB840343F8580C0134ECE7D8
:10177800229D0695DDF88490A5EB0900FFF764FB30
:10178800064619901F9BDDF878B00493A3EB0B0075
:10179800FFF75AFB04461790239A0892A2EB090018
:1017A800FFF752FB01901A9020990991A1EB0B00C9
:1017B800FFF74AFB029018904D4405EBD5756D1064
:1017C8001C98079000FB00F0DDF86CA00AFB0AF8F3
:1017D800A0EB0800FFF738FB074601463046FFF745
:1017E80087FB0A90314603963046FFF781FB064691
:1017F80021462046FFF77CFB01463046FFF770FA8A
:10180800064601460A98FFF727FC4FF07C51FFF780
:101818006FFB0A902846FFF717FB0A99FFF75EFA55
:101828000B901390049D5D4405EBD5756D103946FA
:101838002046FFF75DFB3146FFF70EFC4FF07C5169
:10184800FFF756FB06462846FFF7FEFA3146FFF734
:1018580045FA07461190089D4D4405EBD5756D1066
:10186800DDF874E0CDF830E00EFB0EF0A0EB0800D8
:10187800FFF7EAFA0A900146019E3046FFF738FB67
:10188800804631463046FFF733FB0646029A11463A
:101898001046FFF72DFB01463046FFF721FA0646B2
:1018A80001464046FFF7D8FB4FF07C51FFF720FB7D
:1018B80080462846FFF7C8FA4146FFF70FFA8046E8
:1018C8001490099D5D4405EBD5756D100A99029831
:1018D800FFF70EFB3146FFF7BFFB4FF07C51FFF7D8
:1018E80007FB06462846FFF7AFFA3146FFF7F6F939
:1018F800064612900B990398FFF7FAFA05463946FF
:101908002046FFF7F5FA01462846FFF7E9F90546AC
:10191800159041460198FFF7EBFA07463146DDF886
:1019280008804046FFF7E4FA01463846FFF7D8F941
:101938000646169029464046FFF7DAFA074631462A
:101948002046FFF7D5FA01463846FFF7C7F907469C
:1019580041460398FFF7CCFA804601992046FFF7E5
:10196800C7FA01464046FFF7B9F90446014638462A
:10197800FFF772FBFFF782FC074631460398FFF733
:10198800B7FA064629460198FFF7B2FA01463046EB
:10199800FFF7A4F92146FFF75FFBFFF76FFC064648
:1019A8004FF0FF350023039302930023019353461E
:1019B800DA469B46A7E000BF44050020200500202A
:1019C80009F10109694B1B684B453DDD684B09EB83
:1019D800490203EB820A53F822803846FFF734FAAB
:1019E8004146FFF77BF980462846FFF72DFA414626
:1019F800FFF776F90146FFF77BFA8046DAF804A08C
:101A08003046FFF721FA5146FFF768F9824620462B
:101A1800FFF71AFA5146FFF763F90146FFF768FA2C
:101A280001464046FFF75CF9FEF7D4FD05F0A2F841
:101A3800FFF7D8F824AB03EB890353F8583C9842D6
:101A4800BED000230A93BBE7DDF82C80DDF834A074
:101A58000A9B93B12846FFF7F7F901460298FFF76A
:101A68003FF902902046FFF7EFF901460398FFF788
:101A780037F90390019B013301930134012C40DCB9
:101A8800A7EB08002844A6EB0A03234403FB03F34F
:101A980000FB0030FEF78CFD05F06CF8FFF7A2F8AC
:101AA8008345EAD1069BF81A2844049BF31A234479
:101AB80003FB03F300FB0030FEF77AFD05F05AF84C
:101AC800FFF790F8079B8342D7D1089BF81A284460
:101AD800099BF31A234403FB03F300FB0030FEF7D2
:101AE80067FD05F047F8FFF77DF80C9B8342C4D1EA
:101AF8004FF0000901230A93CDF82C80CDF834A0CB
:101B080060E7C1460135012D03DC4FF0FF34C846BC
:101B1800B4E7019B03B30198FFF796F90446014621
:101B28000298FFF799FA05463846FFF78DF92946D6
:101B3800FFF7D6F8059D286021460398FFF78CFA31
:101B480004463046FFF780F92146FFF7C9F8686078
:101B5800059825B0BDE8F08F3846FFF775F9059C64
:101B680020603046FFF770F96060F1E74405002017
:101B7800200500202DE9F04FA5B005900023036053
:101B88004360836004F0E6FDB0B90024022C1FDC3A
:101B9800204604F001FE24AB03EB840545F80C0C49
:101BA800204604F005FE45F8180C204604F076FDA2
:101BB80045F8240C0134E9E704F00CFDFFF740F97F
:101BC800059C206004F00CFDFFF73AF96060ECE139
:101BD80000249B4B1B68A3420EDD04EB4402994B87
:101BE80003EB8203986804F06BFD24AB03EB8403DA
:101BF80043F8300C0134ECE7229D0695DDF884A00B
:101C0800A5EB0A00FFF720F9064616901F9BDDF8A2
:101C180078B00493A3EB0B00FFF716F90446149071
:101C2800239A0892A2EB0A00FFF70EF90190179089
:101C380020990991A1EB0B00FFF706F90290159086
:101C4800554405EBD5756D101C98079000FB00F006
:101C5800DDF86C9009FB09F8A0EB0800FFF7F4F831
:101C6800074601463046FFF743F90A903146039686
:101C78003046FFF73DF9064621462046FFF738F97A
:101C880001463046FFF72CF8064601460A98FFF74A
:101C9800E3F94FF07C51FFF72BF90A902846FFF73C
:101CA800D3F80A99FFF71AF80B901090049D5D4439
:101CB80005EBD5756D1039462046FFF719F9314601
:101CC800FFF7CAF94FF07C51FFF712F9064628468C
:101CD800FFF7BAF83146FFF701F807460E90089D5E
:101CE800554405EBD5756D10DDF874E0CDF830E09E
:101CF8000EFB0EF0A0EB0800FFF7A6F80A900146CD
:101D0800019E3046FFF7F4F8804631463046FFF72B
:101D1800EFF80646029A11461046FFF7E9F8014621
:101D28003046FEF7DDFF064601464046FFF794F9C8
:101D38004FF07C51FFF7DCF880462846FFF784F81F
:101D48004146FEF7CBFF80461190099D5D4405EBA7
:101D5800D5756D100A990298FFF7CAF83146FFF752
:101D68007BF94FF07C51FFF7C3F806462846FFF78A
:101D78006BF83146FEF7B2FF06460F900B990398B1
:101D8800FFF7B6F8054639462046FFF7B1F8014691
:101D98002846FEF7A5FF0546129041460198FFF731
:101DA800A7F807463146DDF808804046FFF7A0F857
:101DB80001463846FEF794FF0646139029464046EA
:101DC800FFF796F8074631462046FFF791F8014697
:101DD8003846FEF783FF074641460398FFF788F821
:101DE800804601992046FFF783F801464046FEF7F2
:101DF80075FF044601463846FFF72EF9FFF73EFA0D
:101E0800074631460398FFF773F8064629460198B6
:101E1800FFF76EF801463046FEF760FF2146FFF7F0
:101E28001BF9FFF72BFA06464FF0FF350023039303
:101E38000293002301934B46D146DA469B46A6E01F
:101E4800440500202005002009F10109614B1B68A9
:101E58004B453DDD604B09EB490203EB820A53F821
:101E680022803846FEF7F0FF4146FEF737FF8046EE
:101E78002846FEF7E9FF4146FEF732FF0146FFF725
:101E880037F88046DAF804A03046FEF7DDFF514601
:101E9800FEF724FF82462046FEF7D6FF5146FEF79E
:101EA8001FFF0146FFF724F801464046FEF718FFDA
:101EB800FEF790FB04F05EFEFEF794FE24AB03EB06
:101EC800890353F8303C9842BED000230A93BBE7FD
:101ED800DDF82C80DDF834A00A9B93B12846FEF784
:101EE800B3FF01460298FEF7FBFE02902046FEF77C
:101EF800ABFF01460398FEF7F3FE0390019B013305
:101F080001930134012C40DCA7EB08002844A6EB20
:101F18000A03234403FB03F300FB0030FEF748FBEE
:101F280004F028FEFEF75EFE8345EAD1069BF81A08
:101F38002844049BF31A234403FB03F300FB0030FB
:101F4800FEF736FB04F016FEFEF74CFE079B8342B5
:101F5800D7D1089BF81A2844099BF31A234403FB9A
:101F680003F300FB0030FEF723FB04F003FEFEF74B
:101F780039FE0C9B8342C4D14FF0000901230A9318
:101F8800CDF82C80CDF834A060E7C1460135012D8D
:101F980003DC4FF0FF34C846B4E7019B012B08D09F
:101FA8000E4B059A136053609360059825B0BDE801
:101FB800F08F3846FEF748FF0299FEF791FE059C20
:101FC80020603046FEF740FF0399FEF789FE606007
:101FD800EBE700BF4405002020050020000080BF7B
:101FE8002DE9F04F91B08346894B00EBC00203EB1B
:101FF8008207D7F80CA053F82230039319465046AD
:10200800FEF76CFE01900E90BA6951460492104694
:10201800FEF764FE06900F903D697C6821462846CD
:10202800FEF75CFE02900C90FA692946059210466C
:10203800FEF754FE07900D907E69D7F80880414658
:102048003046FEF74BFEFEF7C5FA6FA3D3E900232F
:10205800FEF718FBCDE9080141463046FEF740FE81
:10206800FEF7B8FA8046894602460B46DDE90801C4
:10207800FEF732FC42464B46FEF72EFC8046894668
:1020880003995046FEF72CFE01460198FEF730FFF3
:10209800FEF7A0FA00225F4BFEF7F4FA02460B4661
:1020A80040464946FEF738F9804689462146284683
:1020B800FEF716FE01460298FEF71AFFFEF78AFAA7
:1020C8000022544BFEF7DEFA02460B4640464946CC
:1020D800FEF722F9FEF7AEFD04460A903F6A314644
:1020E8003846FEF7FBFDFEF775FA47A3D3E9002350
:1020F800FEF7C8FA8046894639463046FEF7F0FDB5
:10210800FEF768FA06460F4602460B464046494621
:10211800FEF7E2FB32463B46FEF7DEFB06460F467D
:1021280004995046FEF7DCFD0146DDF81890484654
:10213800FEF7DEFEFEF74EFA0022364BFEF7A2FA55
:1021480002460B4630463946FEF7E6F806460F4685
:1021580005992846FEF7C4FD0146DDF81CA0504647
:10216800FEF7C6FEFEF736FA00222A4BFEF78AFA79
:1021780002460B4630463946FEF7CEF8FEF75AFDC2
:1021880005460B9057465146DDF804804046FEF759
:10219800AFFE0646DDF808A051464846FEF7A8FE01
:1021A80001463046FEF79AFD01464FF07E50FEF795
:1021B80053FF064621463846FEF79AFE074629464B
:1021C8005046FEF795FE01463846FEF787FD314634
:1021D800FEF78EFE104B43F82B0029464046FEF7CB
:1021E80087FE054621464846FEF782FE01462846F8
:1021F800FEF774FD3146FEF77BFE084B43F82B00D3
:1022080011B0BDE8F08F00BF0000000065CDDD41D2
:10221800940500200000E03F640500206C050020C4
:102228002DE9F04385B001A8FFF7A4FC4FF03F412A
:102238000398FEF7FBFF002840F0CD80002414E04F
:1022480004EBC405654B03EB850504AB13E90700F4
:1022580085E80700204604F005FAFEF7F1FDA860BE
:102268005F4B012243F824200134012C7BDC5D4BB9
:1022780053F82430002BF7D1594B53F82430002B56
:10228800DED0012B3DD0022BEED1544E04EBC40717
:102298004FEA870806EB8707F868FEF7EFFF054661
:1022A80056F80800FEF7EAFF06462D1A0298FEF7D0
:1022B800E5FF80467868FEF7E1FF8146A8EB000855
:1022C80008FB05F50198FEF7D9FF861B3869FEF76C
:1022D800D5FFA0EB090909FB06F6B542C4D007F102
:1022E800180304AA12E9070083E80700204604F04F
:1022F800B9F9FEF7A5FD3862394B032243F82420CB
:10230800B2E70198FEF7BAFF054604EBC403334A67
:1023180052F82300FEF7B2FF85420DD10298FEF76E
:10232800ADFF054604EBC4032C4A02EB830358684F
:10233800FEF7A4FF854297D004EBC405274B03EBB7
:10234800850505F10C0304AA12E9070083E80700D4
:10235800204604F087F9FEF773FD6861204B0222DE
:1023680043F8242080E7002408E01E4B002243F8AD
:1023780024201B4B002243F824200134012C2ADCA2
:10238800174B53F82430032BF7D12046FFF728FECC
:10239800154B53F8245015492846FEF765FF0028C9
:1023A800E3D013492846FEF741FF0028DDD0114B42
:1023B80053F824500D492846FEF756FF0028D4D07C
:1023C8000B492846FEF732FF0028CED0054B0122E4
:1023D80043F82420CDE705B0BDE8F083940500203C
:1023E800DC0500205C050020640500200000E040BA
:1023F800000078436C0500202DE9F04F83B00746B4
:1024080000911E460C9C644B036000234360634BA1
:10241800D3F800B0BBF1000F2FD015464FF00008DD
:10242800C3452EDD5E4B08EB480203EB820A53F8E6
:1024380022102846FEF752FC0146FEF759FD814658
:10244800DAF804103046FEF749FC0146FEF750FD65
:1024580001464846FEF744FC814621462046FEF7E1
:1024680047FD01464846FEF7E1FE10B908F10108AC
:10247800D6E74C4B3B60C7F80480384603B0BDE84C
:10248800F08F0098FEF7A6F841A3D3E90023FEF7E2
:10249800F9F88046894604F013FBFEF7CBFB834628
:1024A8004046494604F0BAFAFEF7C4FB00904FF0E4
:1024B800000801E008F10108384B1B684345DCDDE2
:1024C800374B08EB480203EB8209294653F82200F0
:1024D800FEF704FC82463146D9F80400FEF7FEFBFD
:1024E80081460AF100405946FEF702FD019049462F
:1024F8000098FEF7FDFC01460198FEF7F1FB0190FC
:1025080051460098FEF7F4FC824649465846FEF7C5
:10251800EFFC01465046FEF7E3FB81462146FEF7F5
:1025280085FE0028C6D004F100404946FEF77EFE2D
:102538000028BFD000210198FEF796FE0028B9D0E8
:1025480021462046FEF7D4FC824649464846FEF717
:10255800CFFC01465046FEF7C1FBFEF73BF804F0FE
:1025680009FB81468A460198FEF734F84A465346E5
:10257800FDF7D0FEFEF75EFB814601463868FEF7A0
:1025880073FE002896D0C7F80480C7F8009091E73A
:10259800514CDE0033DF913F0050C3474405002013
:1025A80020050020000080BF2DE9F04F85B00546CA
:1025B80001A8FFF79BF8019E029F04F003F860B39F
:1025C8000024DFF8C890A0462DE00134072C59DC20
:1025D8002F4B04EB440203EB820A53F822103046D7
:1025E800FEF77CFB0146FEF783FC0546DAF804108B
:1025F8003846FEF773FB0146FEF77AFC014628468B
:10260800FEF76EFB054601464846FEF72DFE0028FC
:10261800DBD01FFA84F8A946D7E780460024DFF804
:102628006C90D3E701340A2C2CDC04EB4403184AE1
:1026380002EB83031B89AB42F4D1134604EB44023B
:1026480003EB820B53F822103046FEF747FB014696
:10265800FEF74EFC8246DBF804103846FEF73EFBD8
:102668000146FEF745FC01465046FEF739FB824617
:1026780001464846FEF7F8FD0028D3D01FFA84F833
:10268800D146CFE7404605B0BDE8F08F286B6E4EC7
:102698000000002000B583B003F0B0FFADF80000E3
:1026A80003F0B2FFADF8020003F0B6FFADF8040086
:1026B80003F0B8FFADF806000023184600E0013328
:1026C800032B0DDC02AA02EB430232F8081C02AA13
:1026D80002EB400232F8082C9142F0D998B2EEE7AA
:1026E80003B05DF804FB00002DE9F041002409E087
:1026F800204603F0F7FF04EB4402244B03EB82036C
:1027080018810134072CF3DD002400E00134022C89
:1027180039DC204604F040F804F10806FEF790FB87
:102728001A4D06EB460305EB830845F823002046BF
:1027380004F03EF8FEF784FBC8F80400204603F0D6
:1027480079FFA8F80800204604F00CF80028DDD02E
:10275800204604F039F80E4F3D68FEF771FB0D4E28
:1027680005EB450546F82500204604F039F83D6894
:10277800FEF766FB05EB450306EB83067060B46065
:1027880001353D60C2E7BDE8F08100BF00000020D0
:10279800440500202005002038B504462F4D0022AE
:1027A8004FF40051284602F0ADFA00224FF4804160
:1027B800284602F0A7FA05F5806500224FF48051FB
:1027C800284602F09FFA00224FF40061284602F0E2
:1027D80099FA012C27D0B4F1FF3F31D00024002111
:1027E8002046FEF755FE02212046FEF751FE1B4CFF
:1027F80001224FF40051204602F084FA01224FF4DE
:102808008041204602F07EFA04F5806401224FF4EC
:102818008051204602F076FA01224FF400612046EA
:1028280002F070FA38BD01224FF400510B4802F053
:1028380069FA01224FF48051284602F063FAF1E761
:1028480001224FF48041054802F05CFA01224FF45E
:102858000061034802F056FAE4E700BF000C0140AB
:102868000010014038B504462A4D002201212846AF
:1028780002F048FA00220221284602F043FA002218
:102888004FF48061244802F03DFA00224FF40041E1
:10289800224802F037FA012C23D0B4F1FF3F2CD0A4
:1028A800002401212046FEF7F3FD03212046FEF710
:1028B800EFFD184C01221146204602F023FA0122AE
:1028C8000221204602F01EFA01224FF480611248CC
:1028D80002F018FA01224FF40041104802F012FAEF
:1028E80038BD01220221284602F00CFA01224FF4D9
:1028F80000410A4802F006FAF2E7012211460548AB
:1029080002F000FA01224FF48061034802F0FAF95C
:10291800E6E700BF000C014000100140000801403C
:102928002DE9F84305460846FDF754FE3AA3D3E9D6
:102938000023FDF7A7FEFEF77DF9FDF74BFE38A350
:10294800D3E90023FDF7E8FCFEF774F904462846AE
:10295800FDF740FE06460F462046FDF73BFE804643
:10296800894604F05BF802460B4630463946FDF7C7
:1029780089FEFEF75FF905464046494604F0A0F88F
:1029880002460B4630463946FDF77CFEFEF752F903
:10299800044600212846FEF75DFCE0B10120FFF760
:1029A800FBFE00212846FEF773FD02212846FEF7AC
:1029B8006FFD00212046FEF74DFCD8B10120FFF73E
:1029C80051FF01212046FEF763FD03212046FEF753
:1029D8005FFDBDE8F8834FF0FF30FFF7DDFE05F13E
:1029E800004500212846FEF753FD02212846FEF740
:1029F8004FFDDEE74FF0FF30FFF734FF04F10044EE
:102A080001212046FEF744FD03212046FEF740FD44
:102A1800DFE700BFAFF3008070E20DA545DF913F0F
:102A28007A008BFCFA21E93F2DE9F04F8BB006467E
:102A3800994B1B6823B1984A5268002A40F02281BA
:102A480013B9964B00221A60934B5B6813B9934BEA
:102A580000225A6007A8FEF749FE079FDDF820808C
:102A68008F4B009343463A46314605A8FFF7C4FC0E
:102A78004FF03F410598FEF7D9FB00284BD14FF0A6
:102A8800000987490598FEF7D1FB00283AD009F1DB
:102A980014094846FEF7D8F982463146FEF720F970
:102AA800044602ADDFF8F8B1CDF800B043463A4627
:102AB80001462846FFF7A0FC05AB95E8030083E82C
:102AC800030059460598FEF7CFFB002860D1514610
:102AD8003046FEF703F90446CDF800B043463A46BF
:102AE80001462846FFF788FC05AB95E8030083E814
:102AF800030059460598FEF7B7FB00284AD1B9F1FB
:102B0800B40FBEDD31466748FFF70AFF634B1C6808
:102B18005B681C4445E0069D634C4FEA450905EB9C
:102B2800450354F823103846FEF7D8F806464D44B6
:102B380004EB850461684046FEF7D0F8FDF74AFDCE
:102B480004460D463046FDF745FD22462B4604F067
:102B58000FF84FA3D3E90023FDF794FD04460D4673
:102B6800524B1868FDF736FD22462B46FDF7D4FB7D
:102B780004460D4603F030FBFDF72CFD02460B46DC
:102B880020462946FDF7C6FBFEF754F8064676E7C9
:102B98002646B7E72646B5E7142000F07FFEFFF784
:102BA8003FFB3E4B1D685B681D44A542F4D004E022
:102BB800142000F073FEFFF733FB384B1C685B688A
:102BC8001C44A542F4D002AD354B009343463A4627
:102BD80031462846FFF710FC05AB95E8030083E86B
:102BE800030028252F490598FEF720FB002835D03B
:102BF80014352846FEF728F983463146FEF770F863
:102C080081460DF1080A264B009343463A46014691
:102C18005046FFF7F1FB05AB9AE8030083E8030091
:102C280020490598FEF720FBE8B959463046FEF7DB
:102C380055F881461A4B009343463A46014650469A
:102C4800FFF7DAFB05AB9AE8030083E803001549B0
:102C58000598FEF709FB40B98C2DC3DD31461148B4
:102C6800FFF75EFE08E04E46F8E74E46F6E714200A
:102C780000F014FEFFF7D4FA084A136852681344A8
:102C88009C42F4D00BB0BDE8F08F00BFAFF30080DA
:102C9800D9CEF753E3A54C405C050020DC050020A5
:102CA8000000704100002041200500204C05002054
:102CB8002DE9F04F95B0074689469D49FEF7B6FACB
:102CC80070B99C493846FEF7CFFA48B99849484642
:102CD800FEF7ACFA20B997494846FEF7C5FA10B195
:102CE80015B0BDE8F08F11A8FEF700FD119B049305
:102CF80019463846FDF7F2FF0546DDF848B0594653
:102D08004846FDF7EBFF044629462846FEF7F0F84B
:102D1800064621462046FEF7EBF801463046FDF709
:102D2800DFFFFDF757FC03F025FFFDF783FF06469D
:102D3800FEF7CAFA2846FDF74DFCCDE90201204608
:102D4800FDF748FC02460B46CDE90623DDE9020102
:102D580003F00EFF72A3D3E90023FDF793FC0446AA
:102D68000D46754B1868FDF735FC22462B46FDF7D6
:102D7800D3FA04460D4603F02FFAFDF72BFC024662
:102D88000B4620462946FDF7C5FAFDF753FF0546D1
:102D98006A4B1B78002B00F0BB804FF00008674B94
:102DA8001B78022B40F0B880654B00934B463A469F
:102DB80029460FA8FFF720FB0F9C4FF03F41204604
:102DC800FEF734FA002840F0BD8031462046FEF771
:102DD8002DFA002800F0328159492046FDF780FF7E
:102DE800099000240296049E82460697CDF820900A
:102DF80002990F98FEF71AFA002800F010810A3499
:102E08002046FEF721F807462946FDF769FF804668
:102E18000DF128094A4B00935B4632460146484665
:102E2800FFF7EAFA0FAB99E8030083E8030051467D
:102E38000F98FEF719FA002840F0F5803946284621
:102E4800FDF74CFF07463E4B00935B463246014672
:102E58004846FFF7D1FA0FABD9E9000183E8030030
:102E680051460F98FEF700FA002840F0E180782CD0
:102E7800BEDD069FDDF820900498FDF7ABFBCDE999
:102E880004010998FDF7A6FBCDE902012846FDF7E4
:102E9800A1FB25A3D3E90023FDF7F4FB02460B466B
:102EA800CDE9062303F00CFE02460B46DDE90201DC
:102EB800FDF7E8FB02460B46DDE90401FDF72CFAB5
:102EC800CDE904015846FDF785FB04460D46DDE9CA
:102ED800060103F0A3FD02460B46DDE90201FDF7FA
:102EE800D1FB02460B4620462946FDF715FAFDF7A9
:102EF800A1FE0446DDE90401FDF79CFE00222146FF
:102F0800FFF7D6FE002249463846FFF7D1FEE7E62E
:102F180003F06CFB804642E72846FFF785FD43E750
:102F2800D9CEF753E3A54C4065DF15C1FF56C63F20
:102F38000000E040000078434C05002048050020D0
:102F480000007041109DBA4B05EB450203EB820669
:102F580053F822100498FDF7C1FE044671685846DC
:102F6800FDF7BCFEFDF736FB82468B462046FDF793
:102F780031FB52465B4603F0FBFDABA3D3E90023CC
:102F8800FDF780FB82468B46AA4B1868FDF722FBAB
:102F980052465B46FDF7C0F982468B4603F01CF9A2
:102FA800FDF718FB02460B4650465946FDF7B2F9A5
:102FB800FDF740FE0146A048FFF7B2FC0BE00AAC63
:102FC8002046FEF793FB94E8070014AB03E90700DB
:102FD800142000F063FC964B05EB450203EB8206D8
:102FE80053F822101198FDF779FE0146FDF780FF8E
:102FF800044671681298FDF771FE0146FDF778FFE7
:1030080001462046FDF76CFE8C49FEF70FF90028B3
:10301800D5D1002249463846FFF74AFE60E6069FAA
:10302800DDF8209028E7069FDDF82090454623E745
:10303800BA46069FDDF8209055461DE7DDE90623D0
:10304800DDE9020103F094FD77A3D3E90023FDF73E
:1030580019FB04460D46774B1868FDF7BBFA224664
:103068002B46FDF759F904460D4603F0B5F8FDF770
:10307800B1FA02460B4620462946FDF74BF9FDF703
:10308800D9FD04469EE003F0B1FA404540F3A8801C
:1030980026E66B493046FEF7C9F8002800F0A580FF
:1030A8001EE6674811E067493046FEF7BFF828B1C9
:1030B800012D01D0644808E0644806E0012D01D0E4
:1030C800634802E0614800E062482146FFF728FCB7
:1030D800FEF700F9FDF77EFA04460D463046FDF787
:1030E80079FA00225C4BFDF7CDFA02460B462046E2
:1030F8002946FDF739FD50B1142000F0CFFB574B9E
:103108001B78002BE4D103F071FA4045E0DD002084
:10311800FFF742FB0020FFF7A5FB4FF4C87000F053
:10312800BDFB0AAC2046FEF7E1FA94E8070014ABB1
:1031380003E9070011993846FDF7D0FD8246129938
:103148004846FDF7CBFD044651465046FDF7D0FEF4
:10315800054621462046FDF7CBFE01462846FDF7E9
:10316800BFFDFDF737FA03F005FDFDF763FD0646E1
:103178002046FDF72FFA04460D465046FDF72AFA79
:1031880022462B4603F0F4FC27A3D3E90023FDF7DE
:1031980079FA04460D46274B1868FDF71BFA2246B4
:1031A8002B46FDF7B9F804460D4603F015F8FDF770
:1031B80011FA02460B4620462946FDF7ABF8FDF703
:1031C80039FD044623493046FEF74EF800283FF4FF
:1031D80087ADFEF779F8214B1B78002B3FF453AFEE
:1031E8001E4B1D78022D3FF454AF13493046FEF7AD
:1031F8001DF800287FF468AF19493046FEF716F825
:1032080090BB13493046FEF711F880BB154930468C
:10321800FEF70CF800283FF446AF012D3FF441AF0C
:103228000F4852E7AFF30080D9CEF753E3A54C40DF
:10323800200500204C0500200000204100006143CB
:10324800000090410000C8420000D0410000C84181
:103258000000F0410000A0400000E83F48050020C1
:103268000000A041000048424FF082402DE701488D
:103278002BE700BF000070412DE9F04784B001A89A
:10328800FEF734FA524B1B68002B37D1504A52686C
:10329800A2BB019C4FF086412046FDF7C7FF28B12D
:1032A8004FF086410298FDF7C1FFD8B94FF086412B
:1032B8002046FDF7BBFF28B14FF086410298FDF785
:1032C800C9FF98B94FF086412046FDF7C3FF28B1E2
:1032D8004FF086410298FDF7A9FF58B93D48FFF71E
:1032E800A3FB66E03C48FFF79FFB62E03B48FFF723
:1032F8009BFB5EE03A48FFF797FB5AE0002B4DD066
:10330800334A5268002A49D0019DDFF8D8A0DAF87C
:10331800008041462846FDF7E1FC0146FDF7E8FD3F
:103328000446029E304FD7F8009049463046FDF7D4
:10333800D5FC0146FDF7DCFD01462046FDF7D0FC33
:103348000446DAF804A051462846FDF7C7FC0146B2
:10335800FDF7CEFD05467F6839463046FDF7BEFCD1
:103368000146FDF7C5FD01462846FDF7B9FC0146B3
:103378002046FDF75BFF40B1002249464046FFF773
:1033880097FC134B00221A6013E00022394650467E
:10339800FFF78EFC0E4B00225A600AE063B1002250
:1033A800114B19680F4B1868FFF782FC084B002275
:1033B8001A6004B0BDE8F08700220B4B5968094B2E
:1033C8005868FFF775FC024B00225A60F1E700BF0E
:1033D8005C050020000007C30000344200000743DA
:1033E800000034C2640500206C05002010B50020E0
:1033F800FFF7D2F90020FFF735FA4FF4FA7000F022
:103408004DFA084C01220421204601F07BFC4FF4C0
:103418007A7000F043FA00220421204601F072FC81
:1034280010BD00BF001401402DE9F04198B003F031
:10343800C3F8022800F0A88003F0BEF8032800F0C3
:10344800A380002614961596169617960CAC504D28
:103458000FCD0FC495E80F0084E80F000896099671
:103468000A960B964B48FFF7DFFA4B4A13681093FE
:103478004A4B19681191526812925B681393484835
:1034880032460146FFF714FCFFF7B0FF05A8FEF728
:103498002DF9374658E0434A18AB03EB840343F849
:1034A800402C0134032C24DC18AB03EB840353F8C1
:1034B800103C002BEFD1059918AB03EBC40555F868
:1034C800300CFDF70BFC0146FDF712FD804606990E
:1034D80055F82C0CFDF702FC0146FDF709FD0146E5
:1034E8004046FDF7FDFB18AB03EB840343F8400CA3
:1034F800D7E7002400E00134032C12DC18AB03EBFF
:10350800840353F8103C002BF5D1264918AB03EB84
:10351800840353F8400CFDF789FE0028EBD02646BB
:10352800E9E7002218AB03EBC60353F82C1C53F849
:10353800300CFFF7BDFB012E13DD012218AB03EBA6
:10354800860343F8102C1744032F0DDC6C462046E5
:10355800FEF7CCF805AB94E8070083E807000024E1
:10356800A0E7FFF743FFE8E70020FFF71DF80E4C40
:1035780000EB400304EB830300EB40000022596892
:1035880054F82000FFF794FB18B0BDE8F08100BFA5
:10359800A884000800003442640500206C0500205F
:1035A80000004842286B6E4E0000002072B6FEE70D
:1035B80000B591B02822002106A803F067F900237E
:1035C80001930293039304930593012206924FF407
:1035D800803307930A9202220D920E934FF4E01360
:1035E8000F9306A800F052FF80B90F230193022120
:1035F8000291002303934FF480620492059301A87B
:1036080001F084F920B911B05DF804FBFFF7CEFF93
:10361800FFF7CCFF10B500F0FFFEFFF7C9FF00F081
:10362800BBF802F0B1F801F0C9FE01F0FDFE01F0AF
:103638002DFF01F05DFF01F08DFF02F09FFD02F00C
:103648004DF902F031F9494800F050FA484C002190
:10365800204600F071FD0421204600F06DFD082190
:10366800204600F069FD0C21204600F065FD3C2154
:10367800404800F0DBFD3C213F4800F0D7FD3C21ED
:103688003E4800F0D3FD3C213D4800F0CFFD4FF40B
:10369800FA7000F003F93B4802F092FD3A4802F054
:1036A80015FFFDF785FE07E00020FFF775F80020FD
:1036B800FFF7D8F8012C09D002F07EFF0446002855
:1036C800F2D00228F0D00328F4D1EDE702F07AFF17
:1036D80010F0FF0405D0012C06D002F06DFF04465F
:1036E800E8E7FFF7A1FEF6E7284B1B7873B102F075
:1036F80059FF40F2B633984211D8254B1B78B3B125
:10370800012B1ED0224B00221A70E6E7FEF7ECFFD1
:103718001E4B01221A701E4B00221A70E7E702F0B6
:1037280065FF0028E9D01A4B01221A70E5E7FFF778
:10373800A3FD02F05BFF0828CFD9154B01221A70B0
:10374800CBE7FEF7A7FFFEF72FFF124C00EB400375
:1037580004EB830300EB40001A89596854F82000F1
:10376800FFF7A6FA0A4B00221A70B6E740060020B7
:10377800F805002088060020D00600201807002041
:103788006007002030080020740800205805002039
:1037980048050020000000202DE9F04788B00024EB
:1037A8000494059406940794374B9A6942F02002D2
:1037B8009A619A6902F020020092009A9A6942F08E
:1037C80004029A619A6902F004020192019A9A69C4
:1037D80042F008029A619A6902F008020292029A7B
:1037E8009A6942F010029A619B6903F010030393EF
:1037F800039BDFF898A0224646F20301504601F0E9
:1038080081FADFF88C9022464FF40041484601F0D7
:1038180079FADFF8808022464FF4E051404601F003
:1038280071FA1D4F22460421384601F06BFA46F220
:10383800030304930126059606940225079504A917
:10384800504601F03FF94FF400430493059606945F
:10385800079504A9484601F035F94FF4E05304935D
:1038680005960694079504A9404601F02BF9042310
:10387800049305960694079504A9384601F022F9A1
:1038880008B0BDE8F08700BF00100240000C0140FE
:1038980000080140001001400014014038B50546F9
:1038A80000F0D8FD044600F0D5FD001BA842FAD36D
:1038B80038BDFEE7FEE7FEE7FEE7FEE77047704724
:1038C800704708B500F0BAFD08BD000008B5024809
:1038D80001F090FB08BD00BFEC07002008B50248C6
:1038E80001F088FB08BD00BFA807002008B5024802
:1038F80000F03DF908BD00BF4006002008B50248A9
:1039080002F0A6FA08BD00BF3008002010B5044C2C
:10391800204602F09DFA204602F0D0F810BD00BF04
:103928007408002082B00E4B9A6942F001029A6135
:103938009A6902F001020092009ADA6942F0805214
:10394800DA61DB6903F080530193019B054A5368F0
:1039580023F0E06343F00073536002B0704700BF88
:10396800001002400000014030B4036A23F0010354
:103978000362036A4268846924F073040D682C4367
:1039880023F0020C8B6843EA0C03104DA84203D0C5
:1039980005F50065A84205D123F00803CD682B433F
:1039A80023F00403094DA84203D005F50065A84299
:1039B80005D122F440724D692A438D692A43426039
:1039C80084614A684263036230BC7047002C01403E
:1039D80030B4036A23F480730362036A4268C469DB
:1039E80024F0730C0C6844EA0C0523F400738C680B
:1039F80043EA0423114CA04203D004F50064A0421A
:103A080006D123F40063CC6843EA042323F48063DB
:103A18000A4CA04203D004F50064A04207D122F466
:103A280040524C6942EA04128C6942EA041242602C
:103A3800C5614A68C263036230BC7047002C01400C
:103A480030B4036A23F480530362036A4468C2698A
:103A580022F4E6420D6842EA052223F400538D68F9
:103A680043EA0533094DA84203D005F50065A8428D
:103A780004D124F480444D6944EA85144460C26149
:103A88004A680264036230BC704700BF002C0140E2
:103A980010B4036A046A24F001040462846924F0FF
:103AA800F00C4CEA021223F00A030B438261036212
:103AB80010BC704710B4046A24F0100404628469CE
:103AC800036A24F4704C4CEA023223F0A00343EA60
:103AD80001138261036210BC7047836823F070038E
:103AE8000B4343F0070383607047000090F83D30B4
:103AF800DBB2012B2FD1022380F83D300268D36856
:103B080043F00103D3600368154A934218D002F5C5
:103B18000062934214D0B3F1804F11D0A2F59832CD
:103B280093420DD002F58062934209D002F580627B
:103B3800934205D01A6842F001021A6000207047CB
:103B48009A6802F00702062A07D01A6842F00102B2
:103B58001A6000207047012070470020704700BF9E
:103B6800002C01407047704770477047704710B588
:103B7800044603681A6912F0020F11D0DA6812F0CD
:103B8800020F0DD06FF002021A6101230377036858
:103B98009B6913F0030F70D0FFF7E6FF002323772C
:103BA80023681A6912F0040F12D0DA6812F0040FB1
:103BB8000ED06FF004021A610223237723689B69F1
:103BC80013F4407F5FD02046FFF7CEFF0023237712
:103BD80023681A6912F0080F12D0DA6812F0080F79
:103BE8000ED06FF008021A61042323772368DB697B
:103BF80013F0030F4ED02046FFF7B6FF00232377BC
:103C080023681A6912F0100F12D0DA6812F0100F38
:103C18000ED06FF010021A61082323772368DB693E
:103C280013F4407F3DD02046FFF79EFF0023237703
:103C380023681A6912F0010F03D0DA6812F0010F35
:103C480036D123681A6912F0800F03D0DA6812F0AF
:103C5800800F34D123681A6912F0400F03D0DA6854
:103C680012F0400F32D123681A6912F0200F03D0E6
:103C7800DA6812F0200F30D110BDFFF774FF20462C
:103C8800FFF773FF8AE72046FFF76DFF2046FFF72F
:103C98006CFF9BE72046FFF766FF2046FFF765FFAE
:103CA800ACE72046FFF75FFF2046FFF75EFFBDE762
:103CB8006FF001021A612046FDF7FAFBC1E76FF0C9
:103CC80080021A61204600F07FFBC3E76FF04002D4
:103CD8001A612046FFF74AFFC5E76FF020021A6114
:103CE800204600F070FBC7E70368244A904212D0D0
:103CF80002F5006290420ED0B0F1804F0BD0A2F5D1
:103D08009832904207D002F58062904203D002F5C3
:103D18008062904203D123F070034A681343174A24
:103D2800904212D002F5006290420ED0B0F1804F5E
:103D38000BD0A2F59832904207D002F580629042EB
:103D480003D002F58062904203D123F44073CA681D
:103D5800134323F080034A69134303608B68C362EB
:103D68000B688362054B984203D003F500639842C1
:103D780001D10B690363012343617047002C0140A3
:103D880040B310B5044690F83D30F3B1022384F8EF
:103D98003D30214651F8040BFFF7A6FF012384F8B4
:103DA800463084F83E3084F83F3084F8403084F858
:103DB800413084F8423084F8433084F8443084F841
:103DC800453084F83D30002010BD80F83C3001F0CB
:103DD800F3FBDBE70120704740B310B5044690F8C9
:103DE8003D30F3B1022384F83D30214651F8040BED
:103DF800FFF77AFF012384F8463084F83E3084F8D0
:103E08003F3084F8403084F8413084F8423084F8F8
:103E1800433084F8443084F8453084F83D3000203D
:103E280010BD80F83C30FFF79DFEDBE701207047AE
:103E3800002857D070B50D46044690F83D30002B49
:103E48004BD0022384F83D302268936823F48043E2
:103E580023F007039360214651F8040BFFF744FF52
:103E680021688A688B690E6A2868104323F4407CAD
:103E78002CF0030CAA68AB6942EA032343EA0C035B
:103E880023F47C4323F0FC03EA69D5F80CC04CEA20
:103E9800022C4CEA030C2A6A13032A6943EA021328
:103EA80043EA0C0326F022066A686D6942EA0512A5
:103EB8003243886021688B6123681A62012384F881
:103EC800463084F83E3084F83F3084F8423084F835
:103ED800433084F83D30002070BD80F83C3001F05C
:103EE8009BFBAEE70120704730B4036A23F0100350
:103EF8000362036A4468826922F4E6420D6842EA72
:103F0800052223F020038D6843EA0513114DA842CA
:103F180003D005F50065A84206D123F08003CD68DB
:103F280043EA051323F040030A4DA84203D005F5E0
:103F38000065A84207D124F440644D6944EA850429
:103F48008D6944EA8504446082614A688263036239
:103F580030BC7047002C014038B590F83C30012B3C
:103F680060D004460D46012380F83C300C2A1AD84C
:103F7800DFE802F0071919191D191919311919194A
:103F880044000068FFF7F0FC2268936943F00803D7
:103F980093612268936923F004039361226893690B
:103FA80029690B439361002084F83C0038BD006800
:103FB800FFF79AFF2268936943F4006393612268CC
:103FC800936923F48063936122689369296943EABA
:103FD80001239361E7E70068FFF7FAFC2268D369D9
:103FE80043F00803D3612268D36923F00403D36143
:103FF8002268D36929690B43D361D4E70068FFF7C6
:104008001FFD2268D36943F40063D3612268D36932
:1040180023F48063D3612268D369296943EA0123C1
:10402800D361C0E70220C1E710B4846824F47F4C50
:1040380042EA03220A4342EA0C02826010BC70473B
:1040480090F83C30012B66D010B50446012380F867
:104058003C30022380F83D300268936823F47F43A4
:1040680023F0770393600B68602B40D022D8402B55
:1040780047D00BD9502B0ED1CA6849680068FFF7A2
:1040880007FD50212068FFF728FD04E0202B0CD005
:1040980008D9302B09D0012384F83D30002084F85A
:1040A8003C0010BD0BB1102BF5D119462068FFF765
:1040B80014FDF0E7702B0ED0B3F5005FEBD1CB68A1
:1040C8004A6889680068FFF7AFFF2268936843F47D
:1040D80080439360DFE7CB684A6889680068FFF728
:1040E800A3FF2268936843F077039360D3E7CA6815
:1040F80049680068FFF7DEFC60212068FFF7EDFCE7
:10410800C9E7CA6849680068FFF7C2FC402120680F
:10411800FFF7E3FCBFE70220704701F01F0101230E
:1041280003FA01FC036A23EA0C030362036A02FA36
:1041380001F10B430362704710B504460846002995
:104148003AD194F83E30DBB2013B18BF0123002B73
:1041580066D1002849D1022384F83E300122014665
:104168002068FFF7DAFF23682F4A934203D002F54D
:104178000062934203D15A6C42F400425A642368A5
:10418800294A934241D002F5006293423DD0B3F1EF
:10419800804F3AD0A2F59832934236D002F5806229
:1041A800934232D002F5806293422ED01A6842F0D0
:1041B80001021A60002032E0042908D008290DD035
:1041C80094F84130DBB2013B18BF0123BFE794F8F4
:1041D8003F30DBB2013B18BF0123B8E794F8403009
:1041E800DBB2013B18BF0123B1E7042805D008283A
:1041F80007D0022384F84130B0E7022384F83F3027
:10420800ACE7022384F84030A8E79A6802F0070276
:10421800062A07D01A6842F001021A60002010BD71
:104228000120FCE70020FAE7002C014038B50446DD
:1042380090F83E00C0B294F83F3094F84220D2B2D1
:1042480094F843C00D46B1B9012849D1012A48D193
:10425800022384F83E3084F842307DB3042D39D0EF
:10426800012200212068FFF758FF0122042120685D
:10427800FFF753FF27E0DBB25FFA8CFC042912D06A
:10428800012833D1012B2CD1012A31D1BCF1010FE6
:1042980030D1022384F83E3084F83F3084F842302D
:1042A80084F84330D9E7012B1CD1BCF1010F1BD195
:1042B800022384F83F3084F84330CEE701220021FE
:1042C8002068FFF72AFF2268136843F00103136090
:1042D800002006E0012204212068FFF71EFFF2E714
:1042E800012038BD0120FCE71846FAE70120F8E76D
:1042F8001846F6E71046F4E790F83C30012B34D026
:1043080010B4012380F83C30022380F83D30036864
:104318005A689C6822F0700C0A6842EA0C025A60DB
:104328000368134A934212D002F5006293420ED0FA
:10433800B3F1804F0BD0A2F59832934207D002F523
:104348008062934203D002F58062934204D124F044
:1043580080044A6814439C60012380F83D300023A0
:1043680080F83C30184610BC70470220704700BFE8
:10437800002C014090F83C30012B22D0012380F81A
:104388003C30CB6823F440738A68134323F480637A
:104398004A68134323F400630A68134323F48053E1
:1043A8000A69134323F400534A69134323F48043EF
:1043B800CA69134302685364002380F83C301846E6
:1043C80070470220704770477047000010B50446D8
:1043D8000E4B18784FF47A73B3FBF0F30C4A10685D
:1043E800B0FBF3F000F0D4FF68B90F2C01D901201D
:1043F8000AE0002221464FF0FF3000F083FF054B12
:104408001C60002000E0012010BD00BFB4000020A7
:10441800BC000020B800002008B5074A136843F024
:1044280010031360032000F05BFF0F20FFF7CEFF9F
:10443800FFF778FA002008BD00200240034A1168FF
:10444800034B1B780B441360704700BFF405002032
:10445800B4000020014B1868704700BFF405002025
:1044680082B0084B1B68084AA2FB03235B0A00FBC7
:1044780003F3019300BF019B5A1E0192002BF9D14F
:1044880002B07047BC000020D34D6210002800F035
:10449800F18170B582B00446036813F0010F2CD087
:1044A800994B5B6803F00C03042B1DD0964B5B689B
:1044B80003F00C03082B12D06368B3F5803F41D09A
:1044C800002B55D103F1804303F504331A6822F415
:1044D80080321A601A6822F480221A6037E08A4B08
:1044E8005B6813F4803FE7D0874B1B6813F4003FE9
:1044F80003D06368002B00F0BF81236813F0020F1C
:1045080075D0814B5B6813F00C0F5FD07E4B5B68F6
:1045180003F00C03082B54D02369002B00F08A8089
:104528007A4B01221A60FFF795FF0546764B1B6808
:1045380013F0020F75D1FFF78DFF401B0228F5D944
:1045480003209EE1704A136843F480331360636864
:1045580043B3FFF77FFF05466B4B1B6813F4003F1F
:10456800CBD1FFF777FF401B6428F5D9032088E1FA
:10457800B3F5A02F09D0644B1A6822F480321A6070
:104588001A6822F480221A60E1E703F18043A3F558
:104598003C331A6842F480221A601A6842F4803266
:1045A8001A60D4E7FFF756FF0546574B1B6813F40C
:1045B800003FA2D0FFF74EFF401B6428F5D9032027
:1045C8005FE1514B5B6813F4803FA5D14E4B1B68EC
:1045D80013F0020F03D02369012B40F04F814A4AA0
:1045E800136823F0F803616943EAC1031360236881
:1045F80013F0080F33D0A369002B5CD0434B012282
:10460800C3F88024FFF726FF05463F4B5B6A13F08B
:10461800020F21D1FFF71EFF401B0228F5D9032006
:104628002FE1394A136823F0F803616943EAC103AB
:104638001360DCE7354B00221A60FFF70BFF0546D5
:10464800314B1B6813F0020FD1D0FFF703FF401B5B
:104658000228F5D9032014E10120FFF701FF2368A0
:1046680013F0040F00F09680274BDB6913F0805F8E
:1046780034D1254BDA6942F08052DA61DB6903F004
:1046880080530193019B0125214B1B6813F4807F04
:1046980026D0E368012B3DD0002B53D103F1804392
:1046A80003F504331A6A22F001021A621A6A22F028
:1046B80004021A6233E0154B0022C3F88024FFF786
:1046C800C9FE0546104B5B6A13F0020FC7D0FFF70F
:1046D800C1FE401B0228F5D90320D2E00025D3E70C
:1046E8000B4A136843F480731360FFF7B3FE064662
:1046F800074B1B6813F4807FCBD1FFF7ABFE801B01
:104708006428F5D90320BCE00010024000004242B2
:10471800007000405F4A136A43F001031362E368C4
:1047280033B3FFF797FE06465A4B1B6A13F0020F86
:104738002FD1FFF78FFE801B41F288339842F3D9BF
:1047480003209EE0052B09D0524B1A6A22F0010281
:104758001A621A6A22F004021A62E0E74D4B1A6ADA
:1047680042F004021A621A6A42F001021A62D6E79B
:10477800FFF770FE0646474B1B6A13F0020F08D07E
:10478800FFF768FE801B41F288339842F3D9032073
:1047980077E0E5B9E369002B72D03E4A526802F02F
:1047A8000C02082A56D0022B17D03B4B00221A665F
:1047B800FFF750FE0446374B1B6813F0007F47D0C5
:1047C800FFF748FE001B0228F5D9032059E0314ABB
:1047D800D36923F08053D361DCE72F4B00221A669C
:1047E800FFF738FE05462B4B1B6813F0007F06D0F9
:1047F800FFF730FE401B0228F5D9032041E0236A69
:10480800B3F5803F1AD023494B6823F47413226A06
:10481800606A024313434B601F4B01221A66FFF77D
:1048280019FE04461B4B1B6813F0007F0ED1FFF7DF
:1048380011FE001B0228F5D9032022E0154A53680F
:1048480023F40033A1680B435360DCE7002018E031
:10485800002016E0012B16D00E4B5B6803F4803164
:10486800226A914211D103F47013626A93420ED105
:10487800002006E001207047012002E0012000E04E
:10488800002002B070BD0120FBE70120F9E70120FC
:10489800F7E700BF001002400000424286B0174B05
:1048A8000FCB0DF1180C0CE90F0040F20123ADF805
:1048B8000430134B5B6803F00C02082A02D011483D
:1048C80006B07047C3F3834218326A4412F8100CDA
:1048D80013F4803F0DD00A4B5B68C3F34043183391
:1048E8006B4413F8143C074A02FB00F0B0FBF3F0EA
:1048F800E6E7054B03FB00F0E2E700BFF884000899
:104908000010024000127A0000093D00002800F063
:10491800A08070B50D460446524B1B6803F0070390
:104928008B420BD24F4A136823F007030B431360E3
:10493800136803F007038B4240F08D80236813F05F
:10494800020F17D013F0040F04D0474A536843F4FA
:10495800E0635360236813F0080F04D0424A536899
:1049680043F460535360404A536823F0F003A1684E
:104978000B435360236813F0010F31D06368012B98
:1049880020D0022B25D0384A126812F0020F64D0CA
:1049980035494A6822F0030213434B60FFF75AFD7A
:1049A8000646314B5B6803F00C036268B3EB820F79
:1049B80016D0FFF74FFD801B41F288339842F0D99B
:1049C800032045E0284A126812F4003FE0D1012094
:1049D8003EE0254A126812F0007FD9D1012037E065
:1049E800204B1B6803F00703AB420AD91D4A136822
:1049F80023F007032B431360136803F00703AB424C
:104A08002DD1236813F0040F06D0174A536823F4F6
:104A1800E063E1680B435360236813F0080F07D085
:104A2800114A536823F46053216943EAC103536070
:104A3800FFF734FF0C4B5B68C3F303130B4AD35CDB
:104A4800D8400B4B18600B4B1868FFF7BFFC0020D1
:104A580070BD012070470120FAE70120F8E7012026
:104A6800F6E700BF00200240001002400C85000855
:104A7800BC000020B8000020014B1868704700BF38
:104A8800BC00002008B5FFF7F7FF044B5B68C3F3D1
:104A98000223034AD35CD84008BD00BF001002407F
:104AA8001C85000808B5FFF7E7FF044B5B68C3F3F4
:104AB800C223034AD35CD84008BD00BF001002409F
:104AC8001C85000870B582B00024A446B0E0874D6C
:104AD800AA4210D007D9864DAA420CD005F58035D8
:104AE800AA4208D013E0A5F58015AA4203D005F51F
:104AF8007025AA4207D18A68002A62D0012A5BD0B1
:104B08004361082403E0A5F58015AA42F3D0BEF15D
:104B1800FF0F58D80646BEF1FF0F56D84FEA8C0251
:104B280033680F25954023EA050304FA02F213437C
:104B380033604B6813F0805F78D06E4B9A6942F00F
:104B480001029A619B6903F001030193019B4FEAFB
:104B58009C02951C684B53F825600CF003039D00DC
:104B68000F23AB4026EA0306644B984233D003F583
:104B78008063984200F0988003F58063984200F0C3
:104B8800958003F58063984200F0928003F5806376
:104B9800984200F08F8003F58063984219D006236D
:104BA8001AE0CC68B3E7CC680434B0E7CC680834C2
:104BB800ADE7CC680C34AAE703610824A7E7002412
:104BC800A5E70424A3E7061DA5E7ACF108029200B7
:104BD800A6E7052300E00023AB4033430232464DED
:104BE80045F822304B6813F4803F65D0444A136877
:104BF80043EA0E0313604B6813F4003F62D0404A47
:104C0800536843EA0E0353604B6813F4801F5FD068
:104C18003B4A936843EA0E0393604B6813F4001F02
:104C28005CD0374AD36843EA0E03D3600CF1010C19
:104C38000A6832FA0CF357D0012303FA0CF302EA9C
:104C4800030E33EA0202F1D14A68122A3FF63FAF57
:104C5800122A3FF65CAF01A555F822F0FF4A00087A
:104C6800AB4B0008B54B0008C74B0008174B0008B2
:104C7800174B0008174B0008174B0008174B000884
:104C8800174B0008174B0008174B0008174B000874
:104C9800174B0008174B0008174B0008174B000864
:104CA800AF4B0008BB4B0008012395E7022393E7AD
:104CB800032391E704238FE7114A136823EA0E03BD
:104CC800136098E70E4A536823EA0E0353609BE784
:104CD8000B4A936823EA0E0393609EE7084AD36859
:104CE80023EA0E03D360A1E702B070BD00002210D2
:104CF800000031100010024000000140000801408F
:104D0800000401400AB1016170470904016170475C
:104D180030B40124056CAC40C56B6C6004686360FA
:104D28004368102B05D0036899600368DA6030BCCB
:104D3800704703689A600368D960F8E700283AD09A
:104D480010B4024600681D4B984229D81C4B0344F6
:104D58001C49A1FB03131B099B0013641A4BD36363
:104D6800022382F82130016821F47F5121F03001BB
:104D7800536894682343D4682343146923435469CC
:104D8800234394692343D46923430B4303600020DE
:104D98009063012382F8213082F8200010BC70470C
:104DA8000A4B03440749A1FB03131B099B00136427
:104DB800074BD363D4E70120704700BF07040240C4
:104DC800F8FFFDBFCDCCCCCC00000240F8FBFDBF06
:104DD8000004024038B5044690F82000012831D07C
:104DE800012084F8200094F82100012804D0002331
:104DF80084F82030022038BD022084F821000020E9
:104E0800A0632568286820F0010028602046FFF785
:104E18007FFFE36A5BB12268136843F00E031360F7
:104E28002268136843F0010313600020E3E7226857
:104E3800136823F0040313602268136843F00A031D
:104E48001360EDE70220D6E790F82130022B06D058
:104E580004238363002380F8203001207047026810
:104E6800136823F00E0313600268136823F001032C
:104E78001360036CC16B012202FA03F34B6080F8E4
:104E88002120002380F820301846704708B590F894
:104E98002130022B03D004238363012008BD02685C
:104EA800136823F00E0313600268136823F00103EC
:104EB800136003684B4A93424ED9783A934224D000
:104EC8001432934230D0143293422FD0143293428A
:104ED8002FD0143293422FD0143293422FD0143251
:104EE80093422FD002F5627293422ED0143293422D
:104EF8002DD0143293422CD01432934202D04FF466
:104F0800803203E04FF4805200E00122364B5A60B1
:104F1800012380F82130002380F82030436B002BD8
:104F28005ED098470020B9E71022EFE74FF480726F
:104F3800ECE74FF48052E9E74FF48032E6E74FF4AC
:104F48008012E3E74FF08072E0E70122DEE71022EB
:104F5800DCE74FF48072D9E7244A934224D0143214
:104F6800934225D01432934224D01432934224D051
:104F78001432934224D01432934224D014329342F0
:104F880024D002F56272934223D01432934222D085
:104F98001432934221D01432934202D04FF480321B
:104FA80003E04FF4805200E00122114B5A60AFE752
:104FB8001022FAE74FF48072F7E74FF48052F4E7D3
:104FC8004FF48032F1E74FF48012EEE74FF0807231
:104FD800EBE70122E9E71022E7E74FF48072E4E704
:104FE80000205BE780000240000402400800024005
:104FF8000000024038B5C36B1A6804682568016C64
:1050080004238B40134200F09B8015F0040F00F03E
:105018009780236813F0200F03D1236823F004033B
:10502800236003689A4A934246D9783A934224D037
:105038001432934228D01432934227D01432934228
:1050480027D01432934227D01432934227D01432F7
:10505800934227D002F56272934226D014329342CB
:1050680025D01432934224D01432934202D04FF404
:10507800802203E04FF4804200E00422854B5A600E
:10508800C36A03B1984738BD4022F7E74FF48062FE
:10509800F4E74FF48042F1E74FF48022EEE74FF453
:1050A8008002EBE74FF08062E8E70422E6E740225F
:1050B800E4E74FF48062E1E7774A934224D0143260
:1050C800934225D01432934224D01432934224D0F0
:1050D8001432934224D01432934224D0143293428F
:1050E80024D002F56272934223D01432934222D024
:1050F8001432934221D01432934202D04FF48022CA
:1051080003E04FF4804200E00422644B5A60B7E7A2
:105118004022FAE74FF48062F7E74FF48042F4E761
:105128004FF48022F1E74FF48002EEE74FF08062FF
:10513800EBE70422E9E74022E7E74FF48062E4E77F
:1051480002238B40134200F0AB8015F0020F00F0F1
:10515800A780236813F0200F06D1236823F00A03E1
:105168002360012380F821300368494A93424BD9D0
:10517800783A934224D0143293422DD01432934279
:105188002CD0143293422CD0143293422CD01432A7
:1051980093422CD0143293422CD002F5627293427F
:1051A8002BD0143293422AD01432934229D014328D
:1051B800934202D04FF4003203E04FF4005200E073
:1051C8000222344B5A60002380F82030836A002B77
:1051D8003FF459AF984756E72022F2E74FF40072A0
:1051E800EFE74FF40052ECE74FF40032E9E74FF4F1
:1051F8000012E6E74FF00072E3E70222E1E720221F
:10520800DFE74FF40072DCE7234A934224D01432DC
:10521800934225D01432934224D01432934224D09E
:105228001432934224D01432934224D0143293423D
:1052380024D002F56272934223D01432934222D0D2
:105248001432934221D01432934202D04FF40032E8
:1052580003E04FF4005200E00222104B5A60B2E71C
:105268002022FAE74FF40072F7E74FF40052F4E710
:105278004FF40032F1E74FF40012EEE74FF00072FE
:10528800EBE70222E9E72022E7E74FF40072E4E7C0
:105298008000024000040240080002400000024072
:1052A800082303FA01F111423FF4EDAE15F0080F9F
:1052B8003FF4E9AE236823F00E032360026CC16B50
:1052C800012303FA02F24A60836380F82130002345
:1052D80080F82030036B002B3FF4D5AE9847D2E618
:1052E800074AD36823F4E0631B041B0C000200F494
:1052F800E060034343F0BF6343F40033D360704777
:1053080000ED00E000B5194BDB68C3F30223C3F1DD
:10531800070CBCF1040F28BF4FF0040C03F1040E76
:10532800BEF1060F18D9033B4FF0FF3E0EFA0CFCF6
:1053380021EA0C0199400EFA03F322EA0303194308
:1053480000280BDB0901C9B200F1604000F561409B
:1053580080F800135DF804FB0023E5E700F00F0078
:105368000901C9B2024B1954F4E700BF00ED00E08F
:1053780014ED00E0002807DB00F01F0240090123BC
:105388009340024A42F82030704700BF00E100E035
:105398000138B0F1807F0BD24FF0E0235861054A05
:1053A800F02182F823100020986107221A617047C3
:1053B8000120704700ED00E07047000000B587B09D
:1053C80000230293039304930593009301931548D4
:1053D8004FF08042026047224260836044F61F62B9
:1053E800C26003618361FEF7CBFC90B94FF4805330
:1053F800029302A90B48FEF723FE68B90023009325
:10540800019369460748FEF777FF40B907B05DF892
:1054180004FBFEF7CBF8E9E7FEF7C8F8EEE7FEF77E
:10542800C5F8F3E74006002000B58DB0242200211E
:1054380003A801F02BFA0023019302931148124AA2
:105448000260436083604FF6FF72C260036183614C
:10545800012303930593099303A9FEF7E9FC50B9C7
:1054680000230193029301A90648FEF745FF28B9D6
:105478000DB05DF804FBFEF799F8F1E7FEF796F832
:10548800F6E700BF880600200004004000B58DB094
:105498002422002103A801F0F9F9002301930293C3
:1054A8001148124A0260436083604FF6FF72C2607F
:1054B80003618361012303930593099303A9FEF70D
:1054C800B7FC50B900230193029301A90648FEF7DF
:1054D80013FF28B90DB05DF804FBFEF767F8F1E794
:1054E800FEF764F8F6E700BFD00600200008004089
:1054F80000B58DB02422002103A801F0C7F90023CC
:10550800019302931148124A0260436083604FF688
:10551800FF72C260036183610123039305930993BA
:1055280003A9FEF785FC50B900230193029301A952
:105538000648FEF7E1FE28B90DB05DF804FBFEF75A
:1055480035F8F1E7FEF732F8F6E700BF1807002054
:10555800000C004000B58DB02422002103A801F002
:1055680095F90023019302931148124A026043609F
:1055780083604FF6FF72C260036143618361012358
:1055880003930593099303A9FEF752FC50B900232E
:105598000193029301A90648FEF7AEFE28B90DB0A3
:1055A8005DF804FBFEF702F8F1E7FDF7FFFFF6E709
:1055B800600700200034014000B583B00368144A36
:1055C800934205D0B3F1804F0DD003B05DF804FBD2
:1055D800104B9A6942F400629A619B6903F4006374
:1055E8000093009BF1E703F50433DA6942F0010206
:1055F800DA61DB6903F001030193019B0022114684
:105608001C20FFF77FFE1C20FFF7B4FEDDE700BF7C
:10561800002C01400010024000B58DB00023089313
:1056280009930A930B9303683B4A93420BD03B4A76
:10563800934222D03A4A934239D03A4A934250D0C0
:105648000DB05DF804FB384BDA6942F00202DA610A
:10565800DA6902F002020092009A9A6942F00402A2
:105668009A619B6903F004030193019BC02308938B
:1056780008A92E48FFF726FAE2E72B4BDA6942F031
:105688000402DA61DA6902F004020292029A9A6963
:1056980042F008029A619B6903F008030393039B95
:1056A800C023089308A92248FFF70CFAC8E71E4B45
:1056B800DA6942F00802DA61DA6902F00802049253
:1056C800049A9A6942F004029A619B6903F0040300
:1056D8000593059B0323089308A91448FFF7F2F9DB
:1056E800AEE7114B9A6942F400529A619A6902F442
:1056F80000520692069A9A6942F010029A619B69D2
:1057080003F010030793079BC023089308A90948CF
:10571800FFF7D8F994E700BF0004004000080040F4
:10572800000C004000340140001002400008014015
:10573800000C01400010014000B587B0002302931F
:1057480003930493059302680D4B9A4202D007B065
:105758005DF804FB03F564439A6942F004029A6118
:105768009B6903F004030193019B4FF47063029358
:1057780002230393059302A90248FFF7A3F9E6E77A
:10578800002C01400008014010B596B00024129486
:105798001394149415941094119409940A940B94E6
:1057A8000C940D940E940F942022214601A801F028
:1057B8006DF83B483B4B036047234360846040F2ED
:1057C800E733C360046144618461FEF7D9FA0028B5
:1057D8004BD14FF48053129312A93148FEF730FC95
:1057E800002845D12E48FEF7F7FA002843D10023B8
:1057F8001093119310A92A48FEF77EFD00283DD189
:105808006023099300220A920B920C920D920E9239
:105818000F9209A92248FEF79FFB002831D10422E4
:1058280009A91F48FEF798FB70BB082209A91C4864
:10583800FEF792FB58BB0C2209A91948FEF78CFB0E
:1058480040BB0023019302930393049305934FF401
:1058580000520692089301A91148FEF78BFDE0B9A2
:105868000F48FFF769FF16B010BDFDF79FFEB0E7C0
:10587800FDF79CFEB6E7FDF799FEB8E7FDF796FE43
:10588800BEE7FDF793FECAE7FDF790FECDE7FDF70B
:105898008DFED0E7FDF78AFED3E7FDF787FEDFE749
:1058A800F8050020002C014008B50A480A4B03609F
:1058B8004FF4E133436000238360C36003610C222B
:1058C80042618361C36100F0B3F900B908BDFDF717
:1058D8006DFEFBE7300800200044004008B50A4888
:1058E8000A4B03604FF4E133436000238360C360D5
:1058F80003610C2242618361C36100F099F900B928
:1059080008BDFDF753FEFBE774080020004800407F
:1059180070B588B004460023049305930693079353
:1059280003684B4A934204D04A4A934247D008B08E
:1059380070BD494BDA6942F40032DA61DA6902F47F
:1059480000320092009A9A6942F004029A619B69B7
:1059580003F004030193019B04230493022305939A
:10596800032307933D4E04A93046FFF7ABF80823FD
:10597800049300250595069504A93046FFF7A2F87B
:105988003748384B0360456085608023C3600561F4
:10599800456185614FF40053C361FFF7CFF958B9EA
:1059A8002F4BA3635C62002211462620FFF7AAFC56
:1059B8002620FFF7DFFCBAE7FDF7F8FDF0E7264BF6
:1059C800DA6942F48022DA61DA6902F4802202920A
:1059D800029A9A6942F008029A619B6903F00803E7
:1059E8000393039B4FF480630493022305930323DB
:1059F80007931D4E04A93046FFF764F84FF400637F
:105A0800049300250595069504A93046FFF75AF832
:105A18001648174B0360456085608023C3600561A5
:105A2800456185614FF44053C361FFF787F958B961
:105A38000E4BA3635C62002211462720FFF762FC2D
:105A48002720FFF797FC72E7FDF7B0FDF0E700BFEE
:105A58000044004000480040001002400008014097
:105A6800A80700206C000240000C0140EC07002051
:105A78003000024008B5034B834200D008BD00F057
:105A8800A9FCFBE73008002010B5094C204600F0BF
:105A9800FEF8084B1B685868C0B2C043C0B200F09B
:105AA80027FDFF220449204600F04CFB10BD00BF33
:105AB80074080020EC0700203C09002002680C4B09
:105AC8009A4200D070470B4B1B681A6812F0100FEF
